:020000040800F2
:100000000050002045D10008E1D10008E1D10008EE
:10001000E1D10008E1D10008E1D1000800000000B2
:10002000000000000000000000000000E1D1000816
:10003000E1D1000800000000E1D10008C96100081A
:10004000E1D10008E1D10008E1D10008E1D10008C8
:10005000E1D10008E1D10008E1D10008E1D10008B8
:10006000E1D10008D9610008E1D10008E1D1000820
:10007000E1D10008E1D1000821440008E1D10008E5
:10008000E1D10008E1D10008E1D10008E1D1000888
:10009000E1D10008E1D10008E1D10008E1D1000878
:1000A000E1D10008E1D10008E1D10008E1D1000868
:1000B000E1D10008E1D10008E1D100086D65000838
:1000C000756500086965000871650008E1D10008E0
:1000D000E1D1000895430008E1D10008E1D1000812
:1000E000DF610008E1D10008E1D100080000000054
:1000F0000000000000000000000000000000000000
:0C01000000000000000000005FF808F1A3
:10010C002DE9F04FA1B004F0C1FD18B904F0C6FF01
:10011C0004F0E2FD04F084FEC94ACA4E13789146FD
:10012C0043F00103137000230A930B930C934FF4C9
:10013C00E0130D93C44BB17B9A46186840F48030A1
:10014C001860986940F010009861DAF8003003F4F8
:10015C0000330B930A9B01330A930B9B1BB90A9B2D
:10016C00B3F5A06FF1D1DAF8003013F4003300F0DE
:10017C00318302230C93B54BB5481A68B54D42F048
:10018C0010021A601A6822F003021A601A6842F010
:10019C0002021A60DAF80430CAF80430DAF80430D3
:1001AC00CAF80430DAF8043043F48063CAF8043037
:1001BC00A94B1A6822F070421A60A84A1060DAF84B
:1001CC00040020F47C10CAF80400186840F00040C9
:1001DC001860EB6823F40043EB604FF4E0130D93CD
:1001EC000C9B012B00F01A83022B10D139B10D9B03
:1001FC00B3F5801F40F00A834FF4A0130D930D9BB1
:10020C00DAF804100B4343F48033CAF80430DAF8FC
:10021C00003043F08073CAF80030DAF800309C01EB
:10022C00FBD5DAF8043023F00303CAF80430DAF80B
:10023C00043043F00203CAF80430DAF8043003F057
:10024C000C03082BF9D1DAF80430854C03F00C03BD
:10025C00042B00F0E882082B00F0E7827C4B236033
:10026C00DAF804307F4AC3F30313D25C2368002707
:10027C00D34023600C9B7C4AC9F80430AB687B4BA1
:10028C00DFF81482DA60DAF81820049342F00102E5
:10029C00CAF81820DAF824200DF1800BC9F80820D0
:1002AC00DAF82420404642F08072CAF82420DAF8AA
:1002BC00182042F01C02CAF818204FF6FF722BF8D7
:1002CC00302D59468DF8527006F0F8FB59466848A7
:1002DC0006F0F4FB59465F4806F0F0FB02224FF0A3
:1002EC0010038DF83F204FF400728DF83E3020AB98
:1002FC0023F8442D03934046C8F81020039906F0C8
:10030C00DDFB5C4958464A6842F000724A6006F0D0
:10031C00BFFA149A5849049BB2FBF1F25749DFF823
:10032C007CC10A604FF47A71554A17605760226895
:10033C005C46B2FBF1F25349013A4A60F02283F871
:10034C00232007238F600B60B368CCF80030454B3B
:10035C0003F1100EBEE80F000FC4BEE80F000FC46F
:10036C009EE80F0084E80F00DAF8183043F0100311
:10037C00CAF81830DAF8183043F01003CAF81830FD
:10038C00DAF8183043F01003CAF81830DAF81830DD
:10039C0043F00403CAF818301023C8F81430202393
:1003AC00C8F814304023C8F814304FF480432B6144
:1003BC004FF400532B614FF400432B61CDF81480A4
:1003CC00E046AEF130030493391D5BF80700594445
:1003DC00083706F073FB302FF6D1D8F800301B0726
:1003EC000BD596F82431012B07D8D9F8087096F85C
:1003FC00253117F0805701F059804FF400536420D9
:10040C006B6105F078FE4FF48043A0226B610021F4
:10041C001D480DF0E9FCDAF81C301C4A43F00703C8
:10042C00CAF81C30DAF81830194F43F4006343F063
:10043C000C03CAF81830174B00211A6030E000BFCB
:10044C00C4070020281400200010024000200240A5
:10045C0000127A0000100140041001402C00002012
:10046C0024000020E0E000080005FA0500ED00E0A3
:10047C00000C01400000014040420F00041100201C
:10048C00A80E002010E000E0080E0020A4150020AB
:10049C0018090020C4190020000801405019002040
:1004AC000222B84B38461A701822D8F800400DF0CA
:1004BC009BFC0021397039737779142203980DF065
:1004CC0093FC0E2FC4F3801803D007F0EF07082F0E
:1004DC0002D101238DF84630C4F340038DF842302D
:1004EC00C4F340338DF83C30C4F3C0338DF83F3047
:1004FC0014F400638DF8448004D096F818319F1ED4
:10050C007B427B418DF84030C4F30043B6F8D400F5
:10051C008DF84530C4F3C00304F001018DF83E3072
:10052C0004F00802C4F38043E404ADF84A008DF8EB
:10053C00433048BFB6F8DC00B6F8E03048BFADF841
:10054C004A00B3F5FA7FADF84830C8BF002396F8DF
:10055C006801C8BFADF84A308B4B8DF83D10187050
:10056C004FF480432B610023A9F80C309DF84630E2
:10057C00002B14BF0223002301B902B101334FF049
:10058C000008049A02EB83031B6C9A1E143303922B
:10059C000793039A32F8023F03924FF6FF7293428D
:1005AC0040F0758104220024784B794F794E1A70F3
:1005BC00E519A3191034402C0FCB85E80F00F7D1A7
:1005CC00754B76491D68764B88461C6800230A6873
:1005DC00744802F48056002E00F02E82B4F90410F8
:1005EC0020F8131001330C2BF5D150035CBF012202
:1005FC006D4B6E4E58BF1A7099F80030002043F0C6
:10060C00040389F8003006F094FA102200213046D9
:10061C00D8F800400DF0E8FB4FF6FF730025ADF85D
:10062C003830022304F002048DF83A308DF83B5038
:10063C0064B1082320A820F8483D07F0BFFA032333
:10064C000124337007237570B470F370DAF804303A
:10065C00574F43F44043CAF80430DAF814303846A4
:10066C0043F00103CAF81430DAF81830002543F4CB
:10067C000073CAF8183007F0C3FB584607F095FB17
:10068C004C4B594614934C4B384615934FF480738E
:10069C001A934FF480631B9320231C934FF4005345
:1006AC0017941D931695189519951E9507F08AFBAE
:1006BC003B68424A43F001033B60536823F47023C8
:1006CC0023F48073536091683D4B0B4043F46023DB
:1006DC0043F002039360D16A631E21F47001DBB214
:1006EC0041EA03532C460121D36233199A7832B173
:1006FC004D1CEDB2DA78305D07F016FA2946043459
:10070C00102CF2D12D4B9A6842F480729A609A6840
:10071C0042F001029A609A6842F008029A609A6864
:10072C001107FCD49A6842F004029A60234B9A6831
:10073C005207FCD4234C9A68B4F9E80042F4A002A6
:10074C009A60002800F0988100221F4B1A7008F064
:10075C00E5FE1E4908F036FF1490B4F9EA0008F0E3
:10076C00DDFE1A4908F02EFF1590B4F9EC0008F0E4
:10077C00D5FE164908F026FF15491690584607F085
:10078C003DFC83E114090020300C0020B709002047
:10079C00F8060020E0E10008880D00205019002028
:1007AC00840D0020A8190020B80700208812002012
:1007BC00080002404C240140981200200024014003
:1007CC00FDF7F1FF281400203C00002035FA8E3C88
:1007DC00C8130020DAF8002042F00102CAF8002009
:1007EC000A93DAF8003003F002030B930A9B0133EF
:1007FC000A930B9B1BB90A9BB3F5A06FF1D1DAF8E6
:10080C0000309D0701D50123B4E4FEE70D9BB3F541
:10081C00E01F7FF4F4AC4FF40013EFE4DAF804308B
:10082C0043F46013F1E4136819E5DAF80430DAF8EC
:10083C000410C3F38343C80303F1020302D4804AB8
:10084C0053430CE5DAF804101268890348BF5208C8
:10085C00F6E7059B069278202F615C6105F040FC61
:10086C00059B6F6178201C6105F03AFC069A0132F9
:10087C0096F825319A42ECDBD9F8083013F0805306
:10088C007FF4BBAD86F8253107F0CAFCB5E5DCB2C8
:10089C006C4A240115199DF842201B0A4AB1049A8E
:1008AC0005982244516D814203D1B2F85820082A90
:1008BC0005D0022B09D19DF83C30002B4AD1079B67
:1008CC00039A93427FF465AE6CE6012B3FD19DF801
:1008DC003D30002BF3D00026FF225B4B59461E7097
:1008EC005E609E60DE601E6483F8442083F84520C1
:1008FC0083F8466083F84760049B89F810601C44B9
:10090C0094F85D30B4F858208DF852300223606DA5
:10091C00C9F81C508DF85330ADF8502006F0CEF8C5
:10092C00324694F85A10206D03F014FE284607F056
:10093C009BF9464B464AC9F82030464BC9F828600B
:10094C00C9F82430111F284604F014FFB7E7022B16
:10095C00DAB23CD11C275FFA88F107FB01F309EBF3
:10096C000306069301233374049B00271C4494F85C
:10097C005D30B4F858208DF85230022386F811807F
:10098C005946606DB774B776F5618DF85330ADF894
:10099C00502006F093F83A4694F85A10206D03F064
:1009AC00D9FD284607F060F92B4BB76233622B4B0D
:1009BC0028467362069B08F1010803F1140203F147
:1009CC001001274B1A44194404F0D4FE77E7032A8C
:1009DC007FF475AF9DF84330224C63B100234FF682
:1009EC00FF72082199F80D60284603F0E9FE1E4BB2
:1009FC0044F8260013E0BDF8481099F80D60B1F5E5
:100A0C00FA7FBDF84A3011DD184A2846B2FBF1F2E4
:100A1C00082192B203F0D4FE154B44F82600C360B3
:100A2C0099F80D30013389F80D3048E7114AB2FBC3
:100A3C00F1F2012192B2D7E7B5F90410D0E500BF6D
:100A4C0000093D0030E10008600B002075420008F1
:100A5C00E80700204D4300085D4700084F4200089E
:100A6C00D4070020AC0B00205D43000800127A0074
:100A7C007143000840420F00B4F9EA30002B7FF4B8
:100A8C0063AEB4F9EC30002B7FF45EAE0026B4F804
:100A9C00F030BC4FBC4D049394F8EF30314610222B
:100AAC003E607E60BE60B948039385F8F06094F8B0
:100ABC00F7900DF099F9B64BB64A1E605E609E60D9
:100ACC002320A5F8F1600593166005F014FB0DF1D9
:100ADC0026020121752005F0DFFC059B9A46E8B142
:100AEC00AD4A01215A60AD4A30469A6043221A70D1
:100AFC000DF1270205F0D0FC9DF8272002F07E02B4
:100B0C008DF82720002800F0F280682A059B40F021
:100B1C00EE80012285F8F1201D221A70002195F833
:100B2C00F1209F4B042A1970059340F0E084974BF9
:100B3C009C4A9D4E1A609D4A9B465A609C4A4FF0B7
:100B4C00010EDA60326840F2FD1C42F001003060A8
:100B5C0040F202200691039B0A2B28BF00230EFAB9
:100B6C0003F111EA000A40F0CA8411EA0C0F00F0FC
:100B7C00C684904B42F0030283F800A08E4B326087
:100B8C003B608E4B7B6033689B0701D53B68984775
:100B9C004FF0000ADBF8003004989847D346884F92
:100BAC0087F800B0B9F1000F04D0A9F10203022BB1
:100BBC0000F2E18020AB03F830AD012200210C20C3
:100BCC0005F014FC002800F0D6809DF85030482B1E
:100BDC0040F0D1807B4B7C4A1A607C4A5A600623D9
:100BEC003B70336843F00803336094F8E4300BB186
:100BFC00059A137094F8E5300BB16E4A137094F8A3
:100C0C00E63003B13B7094F8F830042B00F2E4802A
:100C1C004FF0010909FA03F212F0160660D112F036
:100C2C00090F00F0D7800A2005F065FA0EAB4A4692
:100C3C00A021772005F0DAFB0746002850D04A4661
:100C4C001E217720DFF888A105F02BFC4FF42F60D4
:100C5C0005F046FAB346D146A6F1600114AB022268
:100C6C00C9B277208DF850B08DF851B005F0BEFBAD
:100C7C009DF850209DF8513043EA022326F80A30A3
:100C8C000236102EE8D100231946BAF80E2002F0D5
:100C9C000F0602F47F42AAF80E20481039F8100013
:100CAC00002818BF002711F0010F1ABFC0B2434033
:100CBC0083EA1023082013F4004F18BF83F4C053A9
:100CCC0001384FEA4303F6D101311029E5D1324303
:100CDC00A9F80E2027B9C3F303339E4200F01A84FF
:100CEC0095F8F03043F0200385F8F03079E09DF86A
:100CFC00263003F07E03682B8DF8263035D1022385
:100D0C00062185F8F1305A46DAF80430084698473F
:100D1C009DF855309DF853209B00520002F00202C2
:100D2C0003F0040313439DF8512002F00102134316
:100D3C00DAB263B1012A03D1002385F8F230EDE673
:100D4C00022A01D10123F8E7022005F0DEF9DAF8D6
:100D5C0004300EAA01210C2098479DF8383013F06E
:100D6C000F03F1D0042BEDD1E6E7702B04BF042365
:100D7C0085F8F130D2E6B9F1010F7FF636AF4FF0BE
:100D8C0000090DE7F0050020C4070020600A0020D0
:100D9C000C1100201C110020A564000861650008DE
:100DAC009C0500203D630008B80800205162000833
:100DBC0090C1793DFC050020E563000895620008B0
:100DCC00940500208C050020D569000831690008C5
:100DDC00F40C0020012B83D0B44A136843F00403B5
:100DEC0013606B68012B02BF95F8F03043F04003A1
:100DFC0085F8F03095F8F0600EB13046A5E72B7809
:100E0C00102743F002032B704FF40053A84D6B6175
:100E1C004FF480432B61013F12D0EB68192083F40F
:100E2C000053EB60EB6883F48043EB60EB6883F476
:100E3C000043EB6005F05FF9192005F05CF9EAE777
:100E4C004FF480434FF400572B614FF400432F6154
:100E5C002B61964B1A68994612F0080F07D0954BE8
:100E6C006F611B6898470122934B2F611A70934B4B
:100E7C00934D1B68187B08F051FB924908F0A2FBBC
:100E8C00914908F097FA07F044F80746288808F0CB
:100E9C0045FB394608F096FB0CF09EF98B4B1880FD
:100EAC00288808F03BFB0146894808F03FFC89493B
:100EBC0008F088FB884B83491860884B884DD868AC
:100ECC0008F080FB874908F07DFB874B1B221860DC
:100EDC00FF2128460CF088FF002201212A70D9F846
:100EEC000020824B12F0020F1970284604D0697052
:100EFC00032119700221A970510704D519784D1CD2
:100F0C001D700325455412F00A0F40F01383D8F8D6
:100F1C000050AA0604D51A78511C19700721815467
:100F2C006279082A01D00E2A04D11A78511C197042
:100F3C000B2181540C271A788754511C6F0748BF1A
:100F4C000232C9B2197044BF1A7010224FF0120746
:100F5C0048BF42541A78511CC9B287546F05197096
:100F6C0004D594F89071002F40F0F282A90504D5B5
:100F7C001A78511C197015218154EA0504D51A7878
:100F8C00511C19701A2383549822002158480CF0D4
:100F9C002BFF012004F0DCFD4FF04C0ADFF85081F0
:100FAC00DFF870B160B3012E2ADC0AFB06F908EBFE
:100FBC00090797F84A5015B10136F6B2F2E7032249
:100FCC00037901210BEB830390F90000D3F8403136
:100FDC00009201952A4604F04CFC039060B14C221F
:100FEC00294638460CF000FF039B48F809300123D2
:100FFC001E4487F84A30F6B2012004F087FDD1E791
:10100C003C4A3D4B3D4D1A6000232E463C493D4821
:10101C000B808B703C4902600F683C4AB4F82A0183
:10102C00DFF8F480DFF8F4E007F1790113700FFAC0
:10103C0080FCD8F8002025F813C002F516724EF883
:10104C0023200133122BF4D1314DC937D5F800E0F0
:10105C001EF4805F08BFB4F930C1A6F806C00B7847
:10106C008BB98A78CB789A420DD2002A58D0013AA3
:10107C0002EB820202EB820202F561734A789BB2A8
:10108C00043226F812300431B942E8D11EF0080FB0
:10109C005BD094F82421062A51D8DFE812F04900DD
:1010AC00B400B700E300FD0017011701B8080020D9
:1010BC00001001408C0500209C190020A40D00207C
:1010CC002800002035FA8E3CDB0FC93F000A0020B7
:1010DC000AE81C410000C8420C0B0020600A0020EA
:1010EC00BD080020BD378635E0090020BC08002073
:1010FC0040060020441500207C05002054190020D7
:10110C005C0D0020200D0020180D0020B5040020DF
:10111C0050190020E0E00008000E0020B804002068
:10112C00013303EB830303EB830303F56173A5E73F
:10113C0045F2F052AE4B1A8006F0B8FC28B90820E4
:10114C0007F05EF8AB4AAC4B1A602B68AB4A13F451
:10115C00804F04D01221AA481170A749086042F2AE
:10116C0001073B4203F0010103F400500FD044F699
:10117C0020679F4B1F8020B10823A24813709E4B01
:10118C00186021B10C23A04913709B4B1960137884
:10119C009E4F043B537004F087FF9D4BDFF8F4A285
:1011AC00186063799B4C052B04BF4FF4C8729A4BA3
:1011BC00DFF8E49208BF1A80984A994B1A60994A52
:1011CC00994B1A60994A9A4B1A604FF47A72994B60
:1011DC001A80002323603B602368002B40F0B18011
:1011EC004FF0230804F060FF04F0B8F90A2004F073
:1011FC0082FFB8F10108F5D1DAF800302360D9F894
:10120C0000303B60E8E742F6F82293E742F6F8221A
:10121C00774B00011A800A2390FBF3F00023864AD7
:10122C00A0F5B06042F823000133122BFAD1724AB8
:10123C00824940201160714A137004F089FC002827
:10124C003FF47DAF01234FF0070E90F900007C4A6C
:10125C008DE808407B4B402104F00BFB003018BF9D
:10126C0001206BE742F6F822614B40201A80764A47
:10127C00614B1A601022614B1A7004F069FC002853
:10128C003FF45DAF0123002790F900006F4A8DE811
:10129C0088004FF4E133DEE742F6F822544B40204D
:1012AC001A806B4A544B1A600822544B1A7004F083
:1012BC004FFC00283FF443AF0023012190F90000BC
:1012CC00644A8DE80A004FF4E133C4E742F6F82192
:1012DC00474BDFF8C89119800C21484BDFF8C081CF
:1012EC0019700023DFF8BCC1062ADFF8BCE15A4FA5
:1012FC005A4889F8003088F800308CF8003019D042
:10130C001B238EF80030052339704FF4E13703703E
:10131C00534A394B40201A6004F01AFC00283FF461
:10132C000EAF0122002390F900008DE80C003B4623
:10133C004C4A90E7212339708EF8003002704A4FE6
:10134C00E6E700234FF00F08DFF848A1DFF84891DB
:10135C0023603B604FF0050B04F0A6FE04F0FEF892
:10136C000A2004F0C8FEBBF1010BF5D12268DAF8B3
:10137C000030B8F1010803EB02013A68D9F80030EB
:10138C0021601A443A60E5D10F2092FBF0F23A60EA
:10139C00364A91FBF0F11378216043F00803137087
:1013AC00334A137823F00203137040F602022B68C1
:1013BC001A420BD02F4A304B1A6003222F4B1A7053
:1013CC002F4BA3F800802F4BA3F8008001222E4B4B
:1013DC009B682B602D4B1A702D4A137863F07F039A
:1013EC0013704FF49663738121B0BDE8F08F00BF8A
:1013FC00DA0600209571000840000020241400201B
:10140C006D710008897100087D710008A40A002024
:10141C000C060020A80A0020C01900209A99193F38
:10142C00200B00208FC2F53D1C0B00206F12033CDB
:10143C00140B0020CA1900201C1200203D7100085A
:10144C00A1750008A086010029710008FD74000830
:10145C0011710008B5740008A91100203B1300207D
:10146C002D7000089D73000890D00300C219002055
:10147C00F2130020361500206C110020EC13002014
:10148C00EE130020F013002028140020B8070020D1
:10149C00C4070020FC0D0020F80D0020AA1100202C
:1014AC0039130020381300203A130020013B092B7C
:1014BC003EF6A3AF4FF4804214236A6108248DF8E2
:1014CC00523002235946254806928DF85330ADF818
:1014DC00504005F0F3FA059B3C201C6104F00BFE18
:1014EC00069A2A613A464FF40047FFF7C1B995F8BE
:1014FC00F03043F0020385F8F030FFF784BB002195
:10150C00012B03913FF627AB154B9DF818201A7051
:10151C00FFF739BB42F21072124B1A805A80124AF2
:10152C005A60124A9A60124ADA60124A1A61124AD6
:10153C005A6151E4042105251A788154511CC9B211
:10154C004554D11C197006210232D2B28154DEE40A
:10155C0002321A701322425408E500BF0008014001
:10156C00FC050020C40D00201B4C00084F4C00084B
:10157C00114C00084D4C0008754A000810B5044683
:10158C0080B204F06DF9200CBDE8104004F068B98D
:10159C0038B5044624200D4604F050F94D2004F0D3
:1015AC004DF9002C14BF21203E2004F047F90022F5
:1015BC00064C284623689A7104F040F9236893F886
:1015CC004900BDE8384004F039B900BFA01900202B
:1015DC0001460020DCE746282DE9F84F00F0418554
:1015EC0000F282802C2800F0A6843CD8052800F05C
:1015FC00E3811ED8022800F0CA8105D8012800F02A
:10160C00B9810020BDE8F88F032800F0CE810428B2
:10161C00F7D10F20FFF7DCFF0B2004F021F9002499
:10162C00C54D285D013404F009F90B2CF9D10020CB
:10163C007EE1262800F05D840AD8222800F07F8302
:10164C002428DED10420FFF7C3FFBC4B986874E05C
:10165C00282800F05D842A28D3D10120FFF7B8FF99
:10166C00B64B587990E13A2800F0B98216D8342854
:10167C0000F0888308D83228C3D10120FFF7A8FFD7
:10168C00AE4B93F826017FE1362800F0D084382841
:10169C00B7D10420FFF79CFFA84CF5E3402800F0DD
:1016AC0097840FD83B2800F043833D28A9D1A34C45
:1016BC000220FFF78DFF94F8740104F0BFF894F842
:1016CC00730161E1422800F09184452899D11320DF
:1016DC00FFF77EFF00249A4D285D013404F0AEF82C
:1016EC000B2CF9D100F0C6BC6E2800F07D824FD8CF
:1016FC00652800F07C8123D84B2800F03B8408D867
:10170C0049287FF47EAF0220FFF762FF8B4B98894C
:10171C000EE14D2800F03D8464287FF472AF072061
:10172C00FFF756FFE72004F089F8844B587904F052
:10173C0085F8002004F082F80420FFF71FFF31E148
:10174C00692800F02B8211D8662800F0FD816828EA
:10175C007FF457AF1020FFF73BFF0024794D285D35
:10176C00013404F06BF8102CF9D11BE16C2800F05B
:10177C0028826D287FF445AF0620FFF729FF6420EF
:10178C00714CA36C5843FFF7F9FEB4F84C00CFE052
:10179C00752800F0C18200F29A80722800F03E8316
:1017AC006FD86F2800F04D8270287FF42AAF674CF9
:1017BC001E20FFF70DFF236800251B78022B40F03D
:1017CC009882DFF89481624F624E236805F108021B
:1017DC0053F82200414607F0F5FE0BF0FDFC80F3B8
:1017EC000800C0B204F02AF82368394603EB8503DD
:1017FC00D86A07F0E7FE0BF0EFFC80F30800C0B2EC
:10180C0004F01CF8236805F10E02314653F822004F
:10181C0007F0D8FE0BF0E0FC80F30800C0B20135F5
:10182C0004F00CF8032DD0D14B4E072D236840F05B
:10183C0053823146586C07F0C5FE0BF0CDFC80F39B
:10184C000800C0B203F0FAFF23683146986C07F029
:10185C00B9FE0BF0C1FC80F30800C0B203F0EEFF40
:10186C00236893F84C0007F055FE0BF0B5FCFF28ED
:10187C00A8BFFF20C0B2013503F0E0FF0A2DD4D180
:10188C0090E0732800F00F8374287FF4BAAE002622
:10189C004FF0010A2C4F4FF0000BDFF8D4903B793E
:1018AC005B4540F396822D4B0C251BF8034000231F
:1018BC0005FB03F202EB090012F80920A24200F02A
:1018CC00EB8301331C2BF3D10BF1010BE7E7F02871
:1018DC0000F0028313D8772800F08582A0287FF4CB
:1018EC0090AE0C20FFF774FE1D4B1868FFF746FEF8
:1018FC001C4B1868FFF742FE1B4B18681DE7FE28AF
:10190C0000F0DC82FF287FF47CAE184A002311889B
:10191C0001220D4C2384114240F0F98001339BB21B
:10192C005200092B92B2F6D10220FFF751FE208C07
:10193C0003F096FF36E000BF79E50008281400207C
:10194C0085E50008E6080020B8080020180D0020E6
:10195C000000C84200007A4400002041BD0800206D
:10196C00E8F7FF1FECF7FF1FF0F7FF1F78190020B7
:10197C0024E400080320FFF72BFE002003F05EFF99
:10198C00022003F05BFF002003F058FF0AE0042064
:10199C00FFF71EFE0024BF4D285D013403F04EFFFF
:1019AC00042CF9D10120BDE8F88FFFF711FE0220BD
:1019BC0003F044FF0020E4E71A20FFF709FE00249F
:1019CC00B54D285D013403F039FF0B2CF9D10024FF
:1019DC00B24D285D013403F031FF082CF9D10024FD
:1019EC000020013403F02AFF072CF9D1DAE70B2091
:1019FC00FFF7EEFDAA4BAB4C188803F031FFAA4B56
:101A0C0001251888053480B203F02AFF54F8050C20
:101A1C00C0F3C003C0F380029B0043EA4203C0F34F
:101A2C0040021343C0F3401243EAC20300F010001B
:101A3C00184303F015FF9D4B14F8016C1A889C4B4E
:101A4C0002F0010019689B4B1B78C3F3800343EA37
:101A5C004003C2F3400043EA800302F00800034352
:101A6C00C2F3800043EA0013C2F3801043EA401330
:101A7C0001F04000034301F08000034301F4807047
:101A8C000343C2F3001043EA4023C2F3401043EA7D
:101A9C008023C2F3002043EAC02301F480500343A7
:101AAC0001F40050034301F48040034301F400406F
:101ABC00034301F48030034301F40030034301F489
:101ACC008020034301F40020034301F480100343FE
:101ADC00C2F3402043EA4053002001F00071C2F3EE
:101AEC0080220B4343EA82630246B24209D2115D63
:101AFC0005FA01F119421CBF05FA02F10843013243
:101B0C00F3E7FFF73BFD6C4B93F8F4043CE7013B28
:101B1C00072B05D8DFE803F007090C0E101214167A
:101B2C000123238400E70223FBE74FF48073F8E7DB
:101B3C008023F6E74023F4E72023F2E71023F0E7B5
:101B4C000823EEE70423ECE71220FFF741FD5B4B83
:101B5C0000251B88534CB3F5806FD4BF0126082693
:101B6C0004F1220737F91500013590FBF6F080B22D
:101B7C0003F076FE032DF5D1208D03F071FE608D00
:101B8C0003F06EFEA08D4E4C03F06AFE208803F02D
:101B9C0067FE608803F064FEA088C9E6494D002406
:101BAC002878494E400000F0FE00FFF711FD2B781D
:101BBC009C42BFF4F7AE36F8140003F051FE01342A
:101BCC00F5E7424C0620FFF703FD208803F048FEA2
:101BDC00608803F045FE334BB3F84600A8E60420BA
:101BEC00FFF7F6FC0020A8E50720FFF7F1FC384BC7
:101BFC004FF6FF7518882B4CFF28A8BFFF20C0B2EA
:101C0C0003F01CFE206DA842A8BF284620EAE07015
:101C1C0080B203F025FEB4F8540003F021FE264BED
:101C2C0093F819314BB10A20A36D5843A842A8BFB1
:101C3C00284620EAE07080B27AE6A06D00F30F002F
:101C4C00F9E7244C0B20FFF7C3FC23680025187818
:101C5C0003F0F4FD2368587803F0F0FD23682B445F
:101C6C001879013503F0EAFD032DF7D12368D879F3
:101C7C0003F0E4FD2368987803F0E0FD2368D8783E
:101C8C0003F0DCFD2368588903F0EAFD2368187A19
:101C9C007AE600BF74E5000885E5000891E50008C8
:101CAC0078190020B8080020181100207A1900209B
:101CBC003C110020F21300202814002028000020E2
:101CCC0084190020241400205419002048110020ED
:101CDC0030130020040D00202B44587803F0AEFD87
:101CEC0023682B44D87A03F0A9FD23682B44587D34
:101CFC00C1E523682B44587803F0A0FD23682B44DE
:101D0C00D87A03F09BFD23682B44587D013503F0F2
:101D1C0095FD0A2DEDD145E62F20FFF759FCD74C48
:101D2C0014F8010F00283FF43DAE03F087FDF7E7F0
:101D3C000120FFF74DFCD24B1B68187824E650208D
:101D4C00FFF746FC00250C27DFF83483CD4ED8F87E
:101D5C00004004EB850494F87930013507FB0363EC
:101D6C00187A03F06BFD94F87A0003F067FD94F891
:101D7C007B0003F063FD94F87C0003F05FFD142DF1
:101D8C00E5D10FE64820FFF723FC00250626BC4FC3
:101D9C003C6806FB054494F8CE0003F04FFD94F824
:101DAC00C90003F04BFD94F8CA0003F047FD94F80A
:101DBC00CB0003F043FD94F8CC0003F03FFD01355C
:101DCC0094F8CD0003F03AFD0C2DE1D1EAE5464440
:101DDC007AE5BAF1000F3FF4E5ADF0B2FFF7F8FB8E
:101DEC004FF0000A57E5A84C00262079FFF7F0FBCE
:101DFC004FF00C08A34D671D23799E42BFF4D2AD62
:101E0C000023F05D08FB03F25119525D824200F091
:101E1C00568101331C2BF5D10136EDE79B4C162076
:101E2C00FFF7D6FBB4F82A0103F01AFDB4F8D00082
:101E3C0003F016FDB4F8D20003F012FDB4F8D40090
:101E4C0003F00EFDB4F86C0103F00AFD002003F062
:101E5C00F5FC002003F0F2FC002003F0EFFC94F8FA
:101E6C00190103F0EBFC94F8260103F0E7FC0020C9
:101E7C0003F0E4FC824B1B68B3F956000A2390FB79
:101E8C00F3F080B203F0ECFC94F80E0103F0D6FCF6
:101E9C0094F8120103F0D2FC94F8110103F0CEFC7B
:101EAC0094F8130170E50820FFF792FB0124E0B2CF
:101EBC00013403F0C3FC092CF9D173E50820FFF7BA
:101ECC0087FB002003F0CCFC002003F0C9FC0020B1
:101EDC0003F0C6FCFFF7ABBB694C0420FFF778FBA3
:101EEC002368B3F85A0003F0BBFC2368B3F858001E
:101EFC001EE5664C0620FFF76BFBB4F8E80003F018
:101F0C00AFFCB4F8EA0003F0ABFCB4F8EC000FE55E
:101F1C005E4C0720FFF75CFBB4F8140103F0A0FC47
:101F2C00B4F8160103F09CFC94F8180103F086FC3D
:101F3C00B4F81A01FCE4554C0C20FFF749FB94F85B
:101F4C00240103F07BFCB4F82E0103F089FCB4F8F7
:101F5C002A0103F085FCB4F82C0103F081FC94F801
:101F6C00250103F06BFCB4F8300103F079FCB4F8F4
:101F7C003201DDE4454C0420FFF72AFB94F86A019A
:101F8C0003F05CFC94F86B0103F058FCB4F86C01A2
:101F9C00CEE43F4D002628783E4C00EB4000C0B20A
:101FAC00FFF716FB2B7802349E42BFF4FBAC14F8FF
:101FBC00020C03F043FC14F8010C013600EB80001A
:101FCC0000EB800000F2EE2080B203F049FCE9E760
:101FDC000820FFF7FDFA00242C4D631993F81C011F
:101FEC00013403F02BFC082CF7D1DBE4274C102038
:101FFC00FFF7EEFA607903F021FCA068FFF7BEFA58
:10200C0094F8240103F01AFCB4F8E80003F028FC5F
:10201C00B4F8EA0003F024FCB4F8EC0003F020FC64
:10202C00B4F8140103F01CFCB4F8160180E4164D4E
:10203C00164C95F85C0004F11006C0EBC000C0B261
:10204C00FFF7C6FA94F97E0195F9603083423AD0D5
:10205C0095F96C30834236D00834A6423FF4A2ACDA
:10206C00F0E70D20FFF7B4FA002003F0E7FB0020A7
:10207C00FFF784FA0020FFF781FAB3E569E2000864
:10208C00180D002024E40008B808002028140020B3
:10209C00241400205C150020456828460BF066FFD0
:1020AC008046BAF1000F7FF492AE2C46631B984524
:1020BC007FF70AAC14F8010B03F0C0FBF6E7087AC3
:1020CC0003F0BCFBA8E6C0B203F0B8FBB4F8800187
:1020DC0003F0C6FB94F8820103F0B0FB94F8830183
:1020EC0003F0ACFB94F8850103F0A8FB94F8840191
:1020FC0003F0A4FBB0E7044B1B68DA79511CD971CF
:10210C001344187A704700BFA019002010B5FFF7D0
:10211C00F2FF84B2FFF7EFFF04EB002080B210BD9A
:10212C002DE9F0472F4E044635682F49284607F015
:10213C0041F905F0EEFE8046284605F0EAFE766889
:10214C0005462949304607F035F905F0E2FE82468E
:10215C00304605F0DEFE21688146504607F032FA23
:10216C006768A66839460446284607F02BFA4946A4
:10217C0007F028FA0146204607F01CF931460446C0
:10218C00484607F01FFA414607F01CFA0146204664
:10219C0007F010F941460446384607F013FA314669
:1021AC000746284607F00EFA0146384607F000F9B4
:1021BC0021460BF09BF80D4907F004FA0C4907F087
:1021CC00B5FA002107F0F6F80A4907F0AFFA0BF060
:1021DC0003F803B2002BBCBF00F5B47003B2184671
:1021EC00BDE8F08730090020DB0FC93F0000E14457
:1021FC00DB0F4940000020412DE9F04F87B00493DC
:10220C00854B07461B8802929C0740F1D78040F211
:10221C00E6328248109BDD89B0F900305B1B03F27B
:10222C00F314944204469CBF83EAE370A0EBE37082
:10223C0040F2E633B4F9022088BF4FF4FA70521B17
:10224C0002F2F3149C4200F2B68082EAE273A3EB32
:10225C00E2738342B8BF03460522C3F5FA7393FBBE
:10226C00F2F30A22643B5A433B7FDB105343642254
:10227C0093FBF2F3134423EAE3735BB200244FF0B5
:10228C006408DFF8BC9100930B1D019309F1100B4E
:10229C00019B610013F8012B022C01930391604BFD
:1022AC0040F08E80B3F90C501B3255436D115D4BD1
:1022BC0062009B5E042293FBF2F307EB040A9AF88C
:1022CC000160ED1A05FB06F314F8096097F851202C
:1022DC005E4396FBF8F6F61172B15349304601EBAA
:1022EC0084010592039107F019F9059A039903F0FB
:1022FC0073FF07F043FB06464C4B9AF80B201888EB
:10230C004B4900FB05F3DB12534319F80420001171
:10231C005A4392FBF8F25BF824304FEA840C1A44CF
:10232C00B2F5001FA8BF4FF40012424B9A42B8BF3F
:10233C001A4653134BF824204FF6FF7292FBF0F021
:10234C00039351F8243001F10C02EB1A434341F88A
:10235C00245001F1180552F824E09B1155F8240083
:10236C0042F8243097F850207044184445F824E083
:10237C005AB1243101EB0C05059207F0CFF8059A00
:10238C00294603F029FF07F0F9FA9AF81530620094
:10239C00434319F804000134584390FBF8F0039BB5
:1023AC00032C1E44244B06EB20269E527FF470AF68
:1023BC0007B0BDE8F08F4FF4FA734DE764235DE787
:1023CC00083333F91450029B69005B42994203DBDA
:1023DC00029B8B42A8BF0B4618496000095E5B1A32
:1023EC00049931F9141019440B4B1B88D8070FD4DE
:1023FC001B3255439B074FEA25157FF558AFBB7C25
:10240C00009A4B43534393FBF8F305EB23154EE72C
:10241C003D7A4D432D114AE77A19002054190020BA
:10242C0030090020E0080020440900200811002099
:10243C005C0900200000E0FF8C09002048110020FE
:10244C00400900202DE9F04F89B00693B04B05915F
:10245C00B3F908100492B3F90A200029B8BF494215
:10246C00002AB8BF52429142B8BF11460026B1F5BE
:10247C00FA7F0A46A8BF4FF4FA720746B1463446B3
:10248C0001920296039603F1200AA24B198811F0CF
:10249C0003003AD0A04B650033F91420049B520082
:1024AC005B429A4203DB049B9342A8BF13469B4AB0
:1024BC006FF00409AA5E64259B1A069A32F914205F
:1024CC0013443A7A5A4392FBF5F23D7F09FB05F926
:1024DC004A4504DB05EB85099145A8BF9146904D13
:1024EC0055F82420134442F210729342A8BF1346AD
:1024FC008C4A9342B8BF1346BA7C45F824305343F8
:10250C0001284FEA2333039333D0834B33F9143030
:10251C000293854B33F9142082EAE273A3EBE27346
:10252C00B3F5206F00F3E38050230298434338192E
:10253C00407893FBF0F3042092FBF0F29B1A5AF8CC
:10254C0024201344B3F57A5FA8BF4FF47A53774A2B
:10255C009342ACBF4AF824304AF824207D235AF821
:10256C0024603A1996FBF3F3D67A5E43402396FB2C
:10257C00F3F68A0740F1BF804FF4FA75019B02997C
:10258C00039803FB01F80199C3F5FA72714309FB37
:10259C00028800FB021298FBF5F392FBF5F5620042
:1025AC000792614A624932F91480042298FBF2F2D4
:1025BC0014F8018008FB02F86FF04F0298FBF2F858
:1025CC0097F8512098446AB1583901EB840B404676
:1025DC00079206F0A3FF079A594603F0FDFD07F09A
:1025EC00CDF980460420504B6200D15E514B4FEA2E
:1025FC00840BD25E03F1040E8A1A92FBF0F203F103
:10260C000C0C6000C1525EF824105CF824004EF8EB
:10261C0024200844104497F850204CF8241052B150
:10262C00203B9B44079206F079FF079A594603F02A
:10263C00D3FD07F0A3F9364A454402F1840111F8A1
:10264C000480610000FB08F04FF0200890FBF8F0CC
:10265C00013402F15C032D1A022CCD527FF415AF1C
:10266C000420059B99790F314B00B2F90C1059439A
:10267C002D4B4911B3F90430002993FBF0F3A1EB76
:10268C000303B8BF494232293CDC906A797B03FBD7
:10269C00010129488142A8BF014628488142ACBFAC
:1026AC0091629062F9784B4392F887109B11032941
:1026BC000ADDB7F84E10B1F5FA7F05DA48428342CD
:1026CC0023DB8B42A8BF0B46916A6FF0FF0041F3EE
:1026DC004F31B1F5807FA8BF4FF480718142ACBF00
:1026EC005B181B18A2F8603009B0BDE8F08F00230E
:1026FC004AF8243032E7CB0759BF3546029B039D7D
:10270C004B464CE700219162CCE70346DCE700BF67
:10271C00300900207A1900203809002048110020C7
:10272C0094090020F0D8FFFFE008002080C1FFFFD3
:10273C009C090020A0090020FEFFFF0F020000F002
:10274C002DE9F04F054690F850008BB0089105929A
:10275C000993002800F0B7803228A8BF322006F079
:10276C00DDFE0146BA4806F0E1FF0446B94B188875
:10277C00002808BF012006F0D1FEB749069006F0EC
:10278C0021FF01460190204606F014FE01460198F7
:10279C0006F0CCFFB14B07901B889B0740F195804E
:1027AC00AF4BB3F90800B3F90A300028B8BF404268
:1027BC00002BB8BF5B429842B8BF1846B0F5E17F1A
:1027CC00A8BF4FF4E17006F0A9FEA64906F0AEFFD3
:1027DC0004904FF000090024CDF80890022CA24E72
:1027EC0000F06F8136F9147063003846039306F0DD
:1027FC0095FE9E4906F0E6FE07F0C0F806F08EFE48
:10280C009B4906F0DFFE9B4B039033F9140006F056
:10281C0085FE924B0646B3F8008018F0030F65D086
:10282C00014606F0C7FD07F0A9F8059B5B429842EC
:10283C0003DB059B8342A8BF03468F4A6100885E79
:10284C00099A1B1A32F91400184406F067FE8246E6
:10285C00287F06F05FFE894906F0B4FE8346287A8D
:10286C0006F058FE514606F0ADFE854906F0AAFE6C
:10287C0007F084F881460BF1004007F07FF88145A2
:10288C0005DB584607F07AF84845A8BF484606F0DD
:10289C0045FEDFF8209251460290019806F092FE18
:1028AC0059F8241006F086FD76494FEA840B8246CF
:1028BC0007F026F860B97449504607F03FF848B164
:1028CC00DFF8C4A106E0714C50E70023049380E7C5
:1028DC00DFF8B0A149F80BA0A87C06F01BFE51460E
:1028EC0006F070FE6A4906F06DFE814618F0010F85
:1028FC0040F0E480002FB8BF7F42B7F5206F4FEA5D
:10290C00840A7BDD0022634B43F824202B19D87AF0
:10291C0006F000FE5F4B53F8241006F053FE5E49A0
:10292C0006F050FE18F0020F074615D002993046FB
:10293C0006F03EFD049906F045FE029906F03AFDBC
:10294C0049460646384606F033FD049906F03AFE31
:10295C00494606F02FFD0746DFF85C8118F80400A5
:10296C0006F0DCFD039906F02DFE4C4906F02AFE1C
:10297C000146304606F01CFD95F85120824632B1D6
:10298C00A8F1580101EB840103F026FC8246444E69
:10299C00039856F8241006F00BFD06F1080B01996C
:1029AC0006F0C4FE039B5BF8248046F824304146B5
:1029BC0006F0FEFC079906F005FE414606F0FAFC0F
:1029CC0039464BF824008046504606F0F3FCA6F13D
:1029DC0018038246185D06F0A1FD414606F0F2FD93
:1029EC00304906F0EFFD0146504606F0E1FC0AF0D6
:1029FC00F3FB403E6300F0520134EFE62A493046C7
:102A0C0006F0E0FD2B190746587806F083FD0146C9
:102A1C00384606F08BFE1F4F039906F0C9FC01994E
:102A2C0006F0D0FD57F8241006F0C4FC1F4983466D
:102A3C0006F066FF38B91E49584606F07FFF20B1F4
:102A4C00DFF86CB001E0DFF864B047F80AB05DE77E
:102A5C0083F9223E08110020BD3786357A190020F3
:102A6C00300900200000E143E00800200000A03EF7
:102A7C00CDCC4C4038090020481100200000A0406B
:102A8C006F12033C0000F0C10000F041AF4C593C08
:102A9C000AD7A33DC00900200AD7233CA69B443B80
:102AAC00CC090020F7CC92380000A043000040C3B2
:102ABC0000004043B80900209C0900204F46029EAC
:102ACC004AE7069806F05AFF20F0030006F026FDB0
:102ADC00734906F02BFE089B95F853908046714C79
:102AEC009B79B9F1000F78D0B4F90C9089EAE97AA6
:102AFC00AAEBE97A0AFB03F06B4B90FBF3F0EB7853
:102B0C0064305843642390FBF3F006F007FD01900A
:102B1C00B6F9040006F002FD4FF07A5106F052FDB2
:102B2C000AF05AFB834606F0F9FC019B194606F0A5
:102B3C0049FD5E4906F0FAFD0646484606F0EEFCF5
:102B4C00314606F035FC8BEAEB73A3EBEB73B3F574
:102B5C00207F064602DCBAF1640F19DD0023A36264
:102B6C0095F8512022B13046514903F035FB064609
:102B7C003946304606F01EFC06F000FF00B206F0A7
:102B8C00CDFC0AF029FBA4F860000BB0BDE8F08F77
:102B9C00502000FB09F9E87899FBF0F0A0EB0B0052
:102BAC0006F0BCFC414606F00DFD06F0E7FEA36AFC
:102BBC001844B0F57A5FA8BF4FF47A503D4B984259
:102BCC00B8BF18467D23A06290FBF3F06B7B584393
:102BDC00801106F0A3FC0746C2E7B4F90C705B0049
:102BEC0028337B43B6F904005F1106F097FC4FF0D5
:102BFC007A5106F0E7FC0AF0EFFA381A06F08EFC70
:102C0C00002FB8BF7F42322F064631DDC4F8289022
:102C1C00A36A6FF0FF005B13B3F5807FA8BF4FF47E
:102C2C0080739842B8BF184606F078FC07463046C9
:102C3C0006F0A4FEEB785843801106F06FFC94F874
:102C4C0087300646032B8BDDB5F84E80B8F5FA7F3E
:102C5C0086DA06F093FEC8F10003984203DB804548
:102C6C004346A8BF0346184606F058FC064677E7CD
:102C7C00687B06F04FFC314606F0A4FC414606F09A
:102C8C00A1FC06F07BFEA36A18440B4B9842A8BF2C
:102C9C0018460A4B9842ACBFA062A362B8E700BFCB
:102CAC0000803B45300900200CFEFFFF0000A042D5
:102CBC004C09002080C1FFFFFEFFFF0F020000F057
:102CCC002DE9F74F0024284E284D294F3378E0B2D8
:102CDC0013F0040F4FEA44033FD0032C94BFE95A7E
:102CEC00F95A013401F060FD082CEFD1214B1B681F
:102CFC005B0335D500254FF0500A29464FF0280BC1
:102D0C00A8461D4B1D4F93F887901D4AEEB24E45B9
:102D1C0026DA57F826305C688C4216D02046019291
:102D2C0002F00CFDEFF312838AF31288019AA18C46
:102D3C000BFB002089B201314162A18ADBB289B25E
:102D4C0041F00101A18283F3118857F82630013537
:102D5C001B682146A3F80080D8E735F81410C0E7AB
:102D6C0003B0BDE8F08F00BFF2130020E60800208E
:102D7C00A81900205019002030090020AC0B0020AD
:102D8C00080E00202DE9F04F91B003F08DF94FF0B3
:102D9C0000080546564C574FD4F8AC30564EC31A63
:102DAC001846009306F0B6FBD4F8B01006F00AFCF7
:102DBC00C4F8AC5045463B68DFF850A11B78039033
:102DCC0001934E4B0DF11C091B8804F1B40B0293BB
:102DDC006B0004934A4B33F9150006F09FFB0399E3
:102DEC0006F0F0FB019B49F82500002B4FD018464C
:102DFC0006F094FB01464FF07E5006F097FC01461E
:102E0C0005904FF07E5006F0D3FA5BF8251006F0D3
:102E1C00D9FB04903AF9150006F080FB059B194686
:102E2C0006F0D0FB049A0146104606F0C3FA4BF8A4
:102E3C00250006F0A3FD26F815006B009B5F029A97
:102E4C005B4393FBF2F30135032D9844C0D1642509
:102E5C0005FB08F898FBF2F5C4F8C050493D07A9EA
:102E6C002848ADB205F048F93B2D15D9B4F9D0007E
:102E7C0006F054FBD4F8CC500146284606F05EFD13
:102E8C00214B002844D11A7822F0080243E03AF88A
:102E9C00153026F81530D0E73B684FF07E51D3F84B
:102EAC0004804FF0000B404606F084FA01464FF0C8
:102EBC007E5006F03BFC8246124D0F4B33F91B0043
:102ECC0006F02CFB55F82B100190404606F07AFBCF
:102EDC00019B0146184606F06DFA514606F072FB4E
:102EEC0045F82B000BF1010BBBF1030FE5D1BDE74E
:102EFC0030090020A40D0020DA0800202800002052
:102F0C00E0080020F4090020C21900200C14002055
:102F1C001A7842F008022946D4F8C8001A700AF050
:102F2C00E5F9D4F8C81082462060D4F8C400D4F86F
:102F3C00CCB000F10045084606F044FB59468046EB
:102F4C00584606F03FFB0146404606F033FA0AF0BD
:102F5C0045FA014628460AF0C9F983498046606063
:102F6C00504606F02FFB0AF037F9804D7E49288039
:102F7C00404606F027FB0AF02FF97D4B68801B6852
:102F8C001A0740F1B68007A97A4805F0B5F83B68F6
:102F9C004FF07E51D3F808900025484606F00AFA07
:102FAC0001464FF07E5006F0C1FB8246DFF8C4812B
:102FBC00714B33F91500019306F0B0FA58F825104F
:102FCC008346484606F0FEFA0146584606F0F2F9EA
:102FDC00514606F0F7FA48F825000135032D019B00
:102FEC00E7D16448FFF79CF8644B1880236803F121
:102FFC0000430A93636803F100430B935F4BB3F9EF
:10300C00000006F08BFA5E4900F1004006F0DAFA97
:10301C000C90B6F9000006F081FA0D90B6F902009A
:10302C0006F07CFA0E90B6F9040006F077FA0AA9BD
:10303C000F900DA805F060F83B685B78012B40F011
:10304C008F80504B1B785B0714D4D4F8E0508DB1B3
:10305C000823D4F8E400013D90FBF3F3C01A06F00A
:10306C005DFA0F9906F0A6F906F088FCC4F8E0505A
:10307C00C4F8E4000823D4F8E40090FBF3F006F065
:10308C004DFA01460F9806F093F93F4D0F900D98AD
:10309C000AF0A2F82B68197804F02CFFD4F8E83069
:1030AC001844C4F8E8000E980AF096F82B681978C2
:1030BC0004F020FFD4F8EC301844C4F8EC000F985E
:1030CC000AF08AF82B68597804F014FFD4F8F03021
:1030DC00009A1844D4F8F430C4F8F0001344C4F83F
:1030EC00F430D4F8F8300133C4F8F83011B0BDE83E
:1030FC00F08F264D4946284604F0FEFF2968D5F886
:10310C0004A0084606F05EFA51468046504606F08A
:10311C0059FA0146404606F04DF9D5F8089080461C
:10312C004946484606F04EFA0146404606F042F93A
:10313C000AF054F90021804606F0D8FB70B94146DC
:10314C00286806F0F3FA41462860686806F0EEFA43
:10315C0041466860A86806F0E9FAA8600B4841E7A8
:10316C000B4B18888BE700BF4C3D0F4448110020D7
:10317C00B8080020040A002084190020FE08002052
:10318C0035FA8E3CF2130020A80D00201000002010
:10319C00280000200022064BC3F8E820C3F8EC20DE
:1031AC00C3F8F020C3F8F820C3F8F420704700BF30
:1031BC003009002001380A4B042804D8DFE800F05D
:1031CC0006080A0C0E00074ADA607047064AFBE74D
:1031DC00064AF9E7064AF7E7064AF5E7064AF3E72F
:1031EC0010000020B534000805220008353700080F
:1031FC0009320008512400084D2700082DE9F04F32
:10320C0087B00393974B07461E88029116F002066F
:10321C00019212D0944BB3F90060B3F90230002E36
:10322C00B8BF7642002BB8BF5B429E42B8BF1E4669
:10323C00B6F5007FA8BF4FF400760025DFF854B236
:10324C0007F1010A0421884B4FEA450933F915208F
:10325C00864B520033F91530002B93FBF1F1B8BFBC
:10326C005B42B3F5206F00F3F3805BF82500531A33
:10327C000344B3F57A5FA8BF4FF47A537C4883427A
:10328C00ACBF4BF825304BF825005BF825009AF8BD
:10329C000A40C0114443A0119AF80040714B5443AA
:1032AC001B884FEA85089B0700900AF1010A4FEA38
:1032BC00A4143BD0019B5B429A4203DB019B9342DB
:1032CC00A8BF134642F2107E6A4A6B4839F90220B5
:1032DC009B1A039A32F91520134458F800201A440B
:1032EC007245A8BF7246DFF8BCE17245B8BF7246A2
:1032FC0048F80020387A4343387FDB1100EB80001C
:10330C00C0F1000E734503DB8342A8BF03469E4603
:10331C00BB7CA4EB0E045A43009B1213981A704307
:10332C00744302EB602300930EEB6424534B97F829
:10333C0051205B5D5943A4EBA1146AB1504920465E
:10334C0041440592049106F0E9F8059A049902F0BB
:10335C0043FF06F013FB04460420444B39F90310D9
:10336C00484B39F9032029F803108A1A92FBF0F222
:10337C0019180C3358F801E058F8030048F80120EC
:10338C007044104497F8502048F803E052B13E497D
:10339C000492884406F0C2F8049A414602F01CFFDD
:1033AC0006F0ECFA394B3A4A5B5D01355843009B09
:1033BC00022D1C44A4EB601029F802007FF442AFEC
:1033CC000420029B99790F314B002749B1F9041065
:1033DC005943264B4911B3F90430002993FBF0F300
:1033EC00A1EB0303B8BF494232292A4834DC846874
:1033FC00797B03FB0141284CA142A8BF2146274CF5
:10340C00A142ACBF81608460F9784B4324499B1185
:10341C00097803290ADDB7F84E10B1F5FA7F05DA01
:10342C004C42A3421BDB8B42A8BF0B4681686FF05A
:10343C00FF0041F34F31B1F5807FA8BF4FF480718D
:10344C008142ACBF5B181B18938007B0BDE8F08FAE
:10345C0000234BF8253018E700218160D4E7234680
:10346C00E4E700BF7A19002038090020E0080020AA
:10347C0080C1FFFF48110020940900209C09002006
:10348C00440900202C0A002080090020B4090020E7
:10349C008C09002050090020FEFFFF0F020000F0F5
:1034AC00B7090020F0D8FFFF2DE9F04F87B0039348
:1034BC008F4B0292B3F90020B3F90230002AB8BF47
:1034CC005242002BB8BF5B429A42B8BF1A46002644
:1034DC00B2F5FA7F1346A8BF4FF4FA738146B24691
:1034EC00B346344600930196824B67001A8812F05B
:1034FC0003003FD0022C39D07D4BD95F029B490091
:10350C005B42994203DB029B8B42A8BF0B466425AE
:10351C0079496FF0040EC95F5B1A039931F91410E5
:10352C000B4499F80810594391FBF5F199F81C508C
:10353C000EFB05FB594505DB05EB85058D42A8BF48
:10354C000D46AB466D4D55F824100B4442F21071EC
:10355C008B42A8BF0B466A498B42B8BF0B4699F801
:10356C00121045F824304B431B130193012801D151
:10357C00022C36D15E4BA00033F907A0614B624E92
:10358C00D95F81EAE173A3EBE173B3F5206F00F32C
:10359C00A180022C00F09780502505FB0AF509EB61
:1035AC0004035B7895FBF3F5042391FBF3F3EB1A1F
:1035BC0035581D44B5F57A5FA8BF4FF47A55534B77
:1035CC009D42ACBF355033504F4B09EB040153F8BF
:1035DC0024607D2396FBF3F3CE7A5E43402396FB67
:1035EC00F3F6910779D5022C77D04FF4FA75009B3E
:1035FC00009903FB0AF871430198C3F5FA720BFBAF
:10360C00028800FB021298FBF5F392FBF5F53D4A9C
:10361C003F4932F90780042298FBF2F214F801803A
:10362C0008FB02F86FF04F0298FBF2F899F8512062
:10363C00984472B13749404601EB840105920491DC
:10364C0005F06CFF059A049902F0C6FD06F096F998
:10365C00804604202B4BD95F2F4BDA5F03F1080E09
:10366C008A1A92FBF0F2D95314335EF824C053F843
:10367C0024004EF824206044104499F85020A100F6
:10368C0043F824C05AB1254B05921944049105F016
:10369C0045FF059A049902F09FFD06F06FF9204B47
:1036AC00454413F804801F4B00FB08F04FF0200832
:1036BC0090FBF8F00134281A032CD8537FF414AF84
:1036CC0007B0BDE8F08F8AEAEA73A3EBEA73642BC8
:1036DC007FF762AF0023335076E7D30704D5022C73
:1036EC0002D0019D5B4692E7354653468FE700BFFB
:1036FC00380900207A190020481100209409002074
:10370C00F0D8FFFFE00800205009002080C1FFFF27
:10371C009C09002044090020400A00208009002058
:10372C00B40900208C0900202DE9F04F89B00593D5
:10373C00AA4B804618880C46049205F0EBFEA8496B
:10374C0005F040FFA74B02901B889B074CD5129BA2
:10375C00A54ADD8940F2E633B2F90000401B00F2C5
:10376C00F31199421146B1F9023040F2E63198BF9B
:10377C0080EAE072A3EB050398BFA2EBE07203F2C0
:10378C00F31088BF4FF4FA72884230D883EAE370A2
:10379C00A0EBE3709042B8BF104698F84C504DB374
:1037AC00C0F5FA7005F0BAFE904905F0BFFF4FF076
:1037BC007E5105F0FDFD0646642090FBF5F005F00A
:1037CC00ADFE0146304605F0FDFE4FF07E5105F092
:1037DC00F1FD0021074606F093F858B94FF07E51E1
:1037EC00384606F0ABF830B14FF07E5703E04FF49B
:1037FC00FA70D2E70027231D0024039308F120035D
:10380C000193039B620013F8015B022C0393069255
:10381C00774B55D1B3F904000A35684305F07EFEA9
:10382C00744905F083FF0546734B6200985E05F002
:10383C0075FE724B196C05F0C5FE0146284605F065
:10384C00B7FD019B834653F8046B01936C4B185DD9
:10385C0005F064FE31460546584605F0B3FE0146B8
:10386C00284605F0AFFE674905F060FF98F8512037
:10387C0082462AB1644901EB840102F0ADFC824618
:10388C005946029805F09EFE019B604E996805F022
:10389C0099FE5F4905F096FE56F8241005F08AFD56
:1038AC005C49A500814606F02BF8002844D15A4902
:1038BC00484606F043F8002840D0DFF85C913DE024
:1038CC0033F91460049B5842864203DBB342A8BF11
:1038DC0033461846514B62009B5EC01A059B33F968
:1038EC001430184405F01AFE494905F01FFF3D4BF2
:1038FC008246B3F8009019F0010F04D0D8F84410A8
:10390C0005F060FE8FE705F11400704305F006FE2C
:10391C00384905F00BFF19F0020F054684D0D8F892
:10392C004810504605F04EFE394605F04BFE014658
:10393C00284605F03FFD76E7DFF8D89046F805906D
:10394C00374E5846A95905F033FD45F806B0069098
:10395C0002994FF07E5005F0E9FE069B194605F0E2
:10396C0031FE834606F10C03EA581836A959104665
:10397C000793069205F01EFD594605F01BFD069AAD
:10398C00079BAA5198F85020864645F803B022B1FF
:10399C002449294402F020FC86467046224905F051
:1039AC00C5FE019B596905F00DFE154B0546185DCA
:1039BC0005F0B4FD0146284605F004FE114905F05A
:1039CC00B5FE1A49054605F09BFF98BB18492846D9
:1039DC0005F0B4FF78B3164D2DE000BF08110020A0
:1039EC00BD3786357A190020541900200000FA439F
:1039FC003809002000004842E00800202C0A002072
:103A0C00400900200000C84244090020C0090020E1
:103A1C000000204100007AC300007A4348110020C6
:103A2C00700A00208009002000004040000096C36E
:103A3C00000096430E4D4946504605F0BBFC294606
:103A4C0005F0B8FC09F0C8FBB0F57A7FA8BF4FF4BD
:103A5C007A70084B62009842B8BF18460134064B86
:103A6C00032C98527FF4CDAE09B0BDE8F08F00BFA7
:103A7C00000096C318FCFFFF8C0900200022044BA9
:103A8C001A605A600022034B1A605A60704700BFDC
:103A9C0094090020B809002042F20F732DE9F04779
:103AAC00BF4CA56E451B9D4240F2298244F6206313
:103ABC009D42A06601D9FFF76DFB94F86C3053B1B1
:103ACC00B84B1B7813F0040605D100232367FFF7CE
:103ADC0061FB84F86C60B44BD4F874801F68B845F3
:103AEC005ED0E06F05F01AFDB04B8146186805F00A
:103AFC0015FD0146484605F019FEA66F09F0F8FBC6
:103B0C008146A7EB080005F005FDA94905F05AFD13
:103B1C004FF07C5105F012FF002840D1642006F5CF
:103B2C00D546333696FBF0F005F0F8FC494605F027
:103B3C0049FDA04905F046FD9F4905F043FDD4F829
:103B4C00803006460A2B0DDC0023C4F88400C4F830
:103B5C008830C4F88C00FFF71DFBD4F8803001339B
:103B6C00C4F88030D4F890300F2B3ED1D4F8943078
:103B7C0004EB830201330F2B08BF0023C4F89430ED
:103B8C000E23D2F89800C4F89030D4F8881005F0C1
:103B9C0011FC0146304605F00BFCC4F8D4006767F5
:103BAC00864B1E6826B3864B986805F0B7FC074613
:103BBC00304605F0B3FC0146384605F0B7FDC4F8B5
:103BCC00D800D4F8D800D4F8E010C4F8DC0005F024
:103BDC00F9FC7C49064605F093FE68B97A493046F3
:103BEC0005F0ACFE48B1784E07E0D4F88400CCE781
:103BFC000023C4F8D830E4E7724EC4F8D860FFF75D
:103C0C00C9FAD4F8E430052B04DC0133C4F8E430F1
:103C1C00BDE8F087284605F07DFC6C4905F086FD73
:103C2C000546D4F8D470D4F8E810384605F0CAFC30
:103C3C00294605F0C7FCD4F8EC1005F0BBFBD4F812
:103C4C00F0108046C4F8EC00384605F0BBFC294661
:103C5C0005F0B8FC216F05F0ADFBD4F8F410064666
:103C6C00384605F0AFFC294605F0ACFCD4F88810BA
:103C7C0005F0A0FBD4F8D8100746C4F888004046DD
:103C8C0005F098FB294605F09DFC824605F0D6F818
:103C9C0000224F4B05F026F980463046894605F048
:103CAC00CDF802460B464046494604F069FF804673
:103CBC002846894605F0C2F802460B46404649465E
:103CCC0005F010F98046D4F88400894605F0B6F862
:103CDC0002460B464046494604F052FF05F014FBE1
:103CEC000146C4F884000546384605F063FB51468E
:103CFC000746C4F88C00304605F05CFB206709F0E1
:103D0C006BFA344E3060384609F066FAD4F89030CD
:103D1C0031490E2B0860314A21DC10680133013027
:103D2C000E28C8BF002010601268C4F8903004EB55
:103D3C008202C2F8985040F23E62294836680388E5
:103D4C00D4F8DC7003F21F339BB2934205D843883E
:103D5C0003F21F339BB2934244D90020BBE013689B
:103D6C0001330F2B136009D100231360D4F8943066
:103D7C00C4F898500133C4F89430DCE704EB8303A7
:103D8C00C3F89850D4F8943001330F2B08BF00239C
:103D9C00F1E7D4F8FC0056E0C4F800916EE000BFE7
:103DAC002C0A0020F2130020040E0020FC0D002031
:103DBC006F12833A8E2BEA410000C842280A002079
:103DCC00180A0020000048C400004844002474492C
:103DDC000000E03F401100200009002020000020DE
:103DEC0048110020474BD4F8088193F8009019F043
:103DFC00040903D10B681433C4F8F830424B434D1B
:103E0C001B78002BC5D10868D4F8F83005211B1A93
:103E1C00B3F5FA7FA8BF4FF4FA733D489842B8BF88
:103E2C00184604F067F82B681B795843802390FBE5
:103E3C00F3F0B0F5967FA8BF4FF49670A3F5D67348
:103E4C009842B8BF184620232A68801B957A4543B0
:103E5C0095FBF3F5B5F5967FA8BF4FF49675A3F5D2
:103E6C00A6739D42B8BF1D46B9F1000F94D0D4F88B
:103E7C000031117D00FB0130C4F80001D4F8003191
:103E8C002449B3F5161FA8BF4FF416138B42B8BFC5
:103E9C000B464FF40050C4F8003193FBF0F3907FC5
:103EAC001D4405F03BFB41468146384605F082FA3D
:103EBC000146484605F086FB4FF06C5105F082FB3D
:103ECC0005F05CFD9628A8BF96206FF095039842EC
:103EDC00ACBF281AE81AC4F8040105213046C4F80E
:103EEC00087104F007F8002E0B4BB8BF7642C82EB1
:103EFC00186004DD012384F86C30BDE8F087BDE860
:103F0C00F08700BFF21300202A000020B00D002023
:103F1C000CFEFFFF0080DAFF04090020F0B54A4BCD
:103F2C004A4D1E684A49F2784A4B002A42D0B5F9EC
:103F3C000640B3F90C01B578221A82EAE277A7EBB6
:103F4C00E277AF421ADD012083F80E0140F24B40BC
:103F5C0084420FDD062092FBF0F2502AA8BF5022BB
:103F6C006FF04F00B3F810318242ACBF9A181A1898
:103F7C00CA80F0BD40F27E43CB80F0BD93F80E2199
:103F8C0032B1354A1268C3F8F820002283F80E21AA
:103F9C00D3F804211044314A146822886488904272
:103FAC0003DB84422246A8BF024612B2CA80A3F8A1
:103FBC001021F0BD2A480278012A1FDC40F2DC54A3
:103FCC00B5F90620B678A242CCBFA2F2DC54A41AF2
:103FDC00B4422CDD0424A2F2DC5292FBF4F2782AD7
:103FEC00A8BF78226FF04F04A242ACBFC3F8FC20EC
:103FFC00C3F8FC400122027083F80E21B3F90C21A6
:10400C00D3F804311344154A10680288408893424F
:10401C0003DB98420246A8BF1A4640F27D43CA8091
:10402C00B5F906209A42A8DC40F21453A4E700220A
:10403C00027093F80E01C3F8FC200028DED006486D
:10404C000068C3F8F800D7E7B40D0020541900201D
:10405C00380900202C0A002000090020B80D00208F
:10406C002A0000200A4B1A782AB100221A70012269
:10407C00084B1A707047084A92F8123183F001030A
:10408C0082F8123113B10C2001F0F4BD0D20FBE7C6
:10409C0013140020141400202C0A002010B4194A08
:1040AC00137813F0010F03F0040003D116490968CB
:1040BC00012920DC154991F81341E4B100BB144CE3
:1040CC00246864011CD49C0715D44FF47A7043F017
:1040DC00040313700F4B10BC1B88A1F814310E4B4A
:1040EC001A680E4B93F8743100FB03230520C1F8BA
:1040FC00183101F0BFBD18B9012010BC01F0E6BDAC
:10410C0010BC7047F2130020F00900202C0A00208C
:10411C003C110020FE080020000E00202814002076
:10412C0008B5074A1378590705D523F00503042071
:10413C00137001F09FFDBDE80840032004F02FB878
:10414C00F213002010B5046B0346C168406944B1FA
:10415C001A6C8C1A013A08BF0A46005D1A64C0B288
:10416C0010BD1A6A805C01328A4228BF2246C0B256
:10417C001A6210BD436B13B190F844007047836A08
:10418C00406A1B1A584258417047416A826A036957
:10419C00914238BFC9188A1A416B21B149680A4447
:1041AC00591E8A4203D2581E801AC0B27047002092
:1041BC007047036B5BB15B68026C9342A3EB020329
:1041CC0001D3D8B27047C0681844C0B27047C369F5
:1041DC00026A934237BFC068981AC018801AF4E775
:1041EC00836A8169426B1944D160416A8B4229BF51
:1041FC000169CB1ACB1A53602ABF00235360836228
:10420C004FF0000380F84430136838BF816243F0EC
:10421C00010313607047436A8269D154436A02698F
:10422C000133934228BF00234362436B1BB11B68CD
:10423C00DB0705D4D4E7026DD36843F08003D36069
:10424C00704710F80A3C0133DBB20A2B00F80A3C29
:10425C0007D9002310F8131C024A22F8113000F879
:10426C000A3C7047480B0020324A30B5936D106AF7
:10427C00194440F68C23081A984211625062D1619D
:10428C00134638D9117E92F95D2091421ED10A1F36
:10429C00082A1BD893F85E20182A03DC013283F815
:1042AC005E2001E083F85C1093F95C2091421AD1F6
:1042BC0093F85F00B8B100201F4C824208DC00204C
:1042CC000B2A0BDC23F812000132F9E70022E6E797
:1042DC0054F8045F23F810500130EEE793F8602097
:1042EC00013283F86020012283F85F20002283F8DA
:1042FC005D101A7630BD92F85F10C9B140F2DA51F8
:10430C00A0F2EF248C4208D8117E0B2905DC02EBBD
:10431C00810301311176986230BD002283F85F2051
:10432C00114613460548C2180433302B1161FAD1DB
:10433C0030BD00BF480B00206C0B0020600B002030
:10434C00024A936D01330B4493657047480B002070
:10435C00034B03EB8000436E1B681980704700BF52
:10436C00480B0020074B03EB8000436EA1F57A70DD
:10437C001A6819894FF47A73414391FBF3F189B2AE
:10438C0011807047480B002070B5214CD4F8E42004
:10439C001588ADB2A90608D5D4F8C4302BB9D4F819
:1043AC00C030DBB1908880B298472B062FD5D4F85B
:1043BC00BC30D4F8B820934223D05A1CD4F8AC00AB
:1043CC00C4F8BC20C35CD4F8E4108B80D4F8A430BF
:1043DC009A421CD30023C4F8BC3070BDD4F8B01082
:1043EC009288D4F8A8004E1CD2B2C4F8B0604254E3
:1043FC00D4F8B010D4F8A020914228BFC4F8B03043
:10440C00D3E7D4F8E420D36823F08003D36070BDE5
:10441C00480B00204FF400520B480C4B5A60D0F85C
:10442C00C820136823F001031B041B0C1360D0F885
:10443C00B820D0F8BC309A4201D09430D0E6012399
:10444C0080F8D830704700BF480B002000000240B5
:10445C0070B50546046D8668A38986B023F40053B5
:10446C001B041B0CA3818379697913F0020F14BF11
:10447C004FF40052002213F0040F14BF4FF480606D
:10448C00002011F0010F14BF042300238907218A97
:10449C0048BF43F0080389B221F4405111432182F3
:1044AC00A28922F4B05222F00C021204120C024324
:1044BC001343A381A28A01A822F440721204120CA5
:1044CC00A28202F0E5F9204A039B0499944218BF9A
:1044DC0019461922A3894A4313F4004F14BF7100E3
:1044EC00B100B2FBF1F16426B1FBF6F3A28918011D
:1044FC00120406FB13131FD5DA003232B2FBF6F2AC
:10450C0002F0070242EA00039BB22381AB792A6DC9
:10451C0013F0080F938A0BBF23F008039BB21B0404
:10452C0043F0080308BF1B0C938293899BB243F49E
:10453C000053938106B070BD1B013233B3FBF6F30D
:10454C0003F00F030343DFE70038014041717FE7BD
:10455C0081607DE710B57C4B93F8E830012B14BFDC
:10456C0000240324038C002938D123F001031B04FD
:10457C001B0C0384018B038C89B221F0F30141F0F5
:10458C00010141EA0411714C9BB2A04242F00102BC
:10459C0012D004F50064A0420ED0B0F1804F0BD0C5
:1045AC00A4F59834A04207D004F58064A04203D04F
:1045BC0004F58064A0420ED123F00203134301835F
:1045CC000384038B23F00C031B041B0C0383038B4E
:1045DC009BB2038310BD23F00A03EFE7042938D103
:1045EC0023F010031B041B0C0384018B038C21F49C
:1045FC0040710905090D41F4807141EA0431534CB5
:10460C009BB2A04212D004F50064A0420ED0B0F1CF
:10461C00804F0BD0A4F59834A04207D004F58064E9
:10462C00A04203D004F58064A0420CD123F02003F7
:10463C0043EA021292B242F0100201830284038B0D
:10464C0023F44063C0E723F0A00342F010021A43A6
:10465C00F3E708293DD123F480731B041B0C03845E
:10466C00818B038C89B221F0F30141F0010141EA05
:10467C000411364C9BB2A04212D004F50064A04247
:10468C000ED0B0F1804F0BD0A4F59834A04207D0D7
:10469C0004F58064A04203D004F58064A04212D1DA
:1046AC0023F4007343EA022292B242F480728183B3
:1046BC000284838B23F00C031B041B0C8383838BDE
:1046CC009BB2838310BD23F4206342F480721A439F
:1046DC00EDE723F480531B041B0C0384818B038CA8
:1046EC0021F440710905090D41F4807141EA04314E
:1046FC00164C9BB2A04212D004F50064A0420ED01E
:10470C00B0F1804F0BD0A4F59834A04207D004F53B
:10471C008064A04203D004F58064A0420CD123F441
:10472C00005343EA023292B242F4805281830284F3
:10473C00838B23F44063BFE723F400735B045B0CAF
:10474C0042F480521A43F1E7480B0020002C014040
:10475C0038B510F80E2C044650F8043C52B901221E
:10476C0020F80C1C00F80E2C997A18680222BDE86F
:10477C003840EFE6002530F80C2C20F80A1C891A7A
:10478C0089B220F8081C074A10F80F0C22F81010F8
:10479C0004F80E5C2A46997A1868FFF7DBFE04F8D9
:1047AC00065C38BD480B0020044B03EB80035B6EAA
:1047BC001BB10B2801DCDB6818477047480B002045
:1047CC002DE9F74316460546DFF894920A4699F808
:1047DC00E940314600689846631C89F8E93000F0DE
:1047EC0059FF2B8901A9ADF8043018238DF8063038
:1047FC00022368688DF8073002F060F995F80AE03A
:10480C0009F1EC07240127442A684946BEF10C0F34
:10481C0043D8DFE80EF00742424268424242A042CF
:10482C004242D900138CDFF83C9223F001031B04A5
:10483C001B0C1384138CB2F804C0108B4A4520F067
:10484C0073004FEA00404FEA10409BB21FFA8CFCF9
:10485C0040F070003ED009F500694A453AD009F5A0
:10486C0040694A4536D009F580694A4532D009F588
:10487C0080694A452ED023F0020343F00303A2F8CB
:10488C0004C01083A2F834801384138B23F0080324
:10489C001B041B0C43F0080313832B7B43B1B2F8AE
:1048AC0044306FEA43436FEA53439BB2A2F844305F
:1048BC0013889BB243F001031380BEF10C0F00F27E
:1048CC00BA80DFE80EF0B3B8B8B8C1B8B8B8C5B89C
:1048DC00B8B8C90023F00E032CF4407C43F003035A
:1048EC004CF4807CCBE7138CDFF8789123F0100329
:1048FC001B041B0C1384138CB2F804C0108B4A4598
:10490C0020F4E6404FEA00404FEA10409BB21FFAF9
:10491C008CFC40F4E04015D009F500694A4511D0F3
:10492C0023F0200343F03003A2F804C01083A2F854
:10493C0038801384138B23F400631B041B0C43F487
:10494C000063A9E723F0E0032CF4406C43F0300340
:10495C004CF4806CE8E7138CDFF8089123F4807337
:10496C001B041B0C1384138CB2F804C0908B4A45A7
:10497C0020F073004FEA00404FEA10409BB21FFA40
:10498C008CFC40F0700016D009F500694A4512D035
:10499C0023F4007343F44073A2F804C09083A2F88C
:1049AC003C801384938B23F008031B041B0C43F0F3
:1049BC000803938371E723F460632CF4405C43F4A5
:1049CC0040734CF4805CE7E7138CDFF8989023F489
:1049DC0080531B041B0C1384108CB2F804C0938BF3
:1049EC0020F4005023F4E6431B0400041B0C000CC1
:1049FC004A451FFA8CFC43F4E04340F4405003D08A
:104A0C0009F500694A4503D12CF4804C4CF4804CD8
:104A1C00A2F804C09383A2F840801084938B23F4F3
:104A2C0000631B041B0C43F40063C2E70B1902F177
:104A3C003400C3F8EC0038462144A1F8F460C1F806
:104A4C00F02003B0BDE8F0830B1902F13800F0E759
:104A5C000B1902F13C00ECE70B1902F14000E8E7FE
:104A6C00480B0020002C01402DE9F04F1E4600277A
:104A7C00864600208C46614987B04B890C894FEAE9
:104A8C00032AB6EB0A0A67EB000BA4FB0A6704FBCC
:104A9C000B77B1F80480F40944EA47644FEA0846FE
:104AAC000592A219CC884FEAE715A4FB0A6704FB10
:104ABC000B77B1F802804FEA162444EA07644FEAF8
:104ACC00C83645EB000314EB06084FEA272545EBE7
:104ADC0000098889CDE90223A0FB0A4500FB0B5590
:104AEC00E00D40EA452010F5FA634FEAE55141F13B
:104AFC000004B3F5FA6FCDE9003474F100035DDA0C
:104B0C000523A0FB034503FB015504FB01F300FB4C
:104B1C000533A4FB00451D446F104FEA3406DDE954
:104B2C000223921B4FEA940663EB070346EA857651
:104B3C00AF104FF0FF35324CB8EB0608CDE902232D
:104B4C00DDE9002369EB0709A242AB4123DA40F609
:104B5C00AC5400250019694100FB01F3A0FB0001D6
:104B6C0001EB4301CD00C400041B45EA507561EB19
:104B7C000505DDE9022312196B41CDE902230B2354
:104B8C00A0FB034503FB01556D104FEA3404B8EB51
:104B9C00040869EB05090AFB0BF3AAFB0AAB0BEB48
:104BAC00430B4FEADA7040EA4B00DDE900344FEA80
:104BBC00EB711B1A64EB0104CDE90034059BA3FBDC
:104BCC00080103FB0911DDE90234460D46EAC12652
:104BDC00F31A4FEA615767EB0404DB0B43EA4443D7
:104BEC00BEF1000F01D0CEF80030BCF1000F02D0A6
:104BFC00009BCCF8003007B0BDE8F08FF40C00201F
:104C0C0024FAFFFF01224821772001F04ABC01223F
:104C1C005821772001F045BC07B5032201AB0021D8
:104C2C00772001F0E3FB9DF805309DF804001B0292
:104C3C0043EA00439DF80600184303B05DF804FBFB
:104C4C00EAE7E9E738B50F4C1925206900F0C6FFF3
:104C5C00002220691434072A0ED002FB02F3A3F1C0
:104C6C001901037A4B4303F6C413534393FBF5F337
:104C7C0024F812300132EEE70349BDE8384000F069
:104C8C006FBF00BFF40C0020F814002010B5104BBF
:104C9C001A786A2A1AD140F21C525988914215D1BD
:104CAC001A79BE2A12D193F81A25EF2A0ED10022B6
:104CBC00084C13F8010B80EA0201A342C9B203D1DC
:104CCC00831A5842584110BD0A46F2E7002010BD25
:104CDC0000F801081CFD01082DE9F74302F09AFECB
:104CEC006A234A4E40F21C513370BE233371EF23BA
:104CFC0086F81A3500231846718086F81B35F25C4D
:104D0C0001338B4280EA0200F9D186F81B05042797
:104D1C0000203F4C3F4BDFF80491636003F1883374
:104D2C006360013F17F0FF0739D034233A4DE3603D
:104D3C0005F17848A8F5FC38C8F30903002B3BD0E3
:104D4C0000234FF4005056F80880019303F01CF830
:104D5C000428E6D123694FF4005043F0010323618A
:104D6C001FFA88F32B8003F00FF8042842D1AB1CF8
:104D7C000193019B4FEA1848A3F800804FF40050B0
:104D8C0003F002F82369042823F001034FEAC3431C
:104D9C004FEAD3432361C4D104354D45C8D11C4AD5
:104DAC000428136943F08003136102D1FFF76EFFEF
:104DBC0038BB042001F0A9F94FF4302002F0E4FFD5
:104DCC000428AED123694FF4302043F00203236151
:104DDC006561236943F04003236102F0D5FF236929
:104DEC00042823F002034FEAC3434FEAD343236161
:104DFC00A6D096E7236923F00103DB04DB0C2361C7
:104E0C008FE702F0EFFD03B0BDE8F083281400201B
:104E1C00002002402301674500F801081CFD010831
:104E2C002DE9F041FFF732FF10B9032001F06DF9C5
:104E3C00914D02F0EFFD40F21C529049284603F0D0
:104E4C0015FE95F8F4344FF48E71022BC4BF002379
:104E5C0085F8F43495F8F424894C01FB02F303F53E
:104E6C00D07028442B44606293F8F40101FB025289
:104E7C000228C4BF002083F8F40192F8F4310C220C
:104E8C0084F8283002FB035346F2090203F2F6437E
:104E9C002361AB681A4200F0E780AB68D80703D5F2
:104EAC004FF4005003F0ACF9AB68590409D5082055
:104EBC0003F0A6F94FF4005003F0A2F9012003F01F
:104ECC009FF9AB681A0706D54FF4005003F098F918
:104EDC00012003F095F9AB689B0412D54FF4004008
:104EEC0003F08EF995F81831012B03D14FF40060C3
:104EFC0003F086F94FF4803003F082F9402003F080
:104F0C007FF995F872312BB195F8763113B10023F6
:104F1C0085F876310020FF2702465A4EE6622B18A0
:104F2C00B3F880114B1003F077334FEAA10C0CF05F
:104F3C00333CCB1AA3EB0C034FEAE10C0CF0113C05
:104F4C00A3EB0C0303EB231303F00F3393FBF7FCDE
:104F5C0011F0010ECCEB0C2C18BF0132A3EB0C039F
:104F6C0018BFD2B2012B08DD022B40F08280BEF1BB
:104F7C00000F7ED011F0BC0F7BD008301028CED1A2
:104F8C00013A012A75D8FFF75DFE302200213E4818
:104F9C0008F02AFF616A3D4F01F1790002F090FEA2
:104FAC00636A27661878FEF705F907F174036366E0
:104FBC00642395F86A21A7F126085343C833E366A6
:104FCC00002323676367A367E367C4F88030C4F8E2
:104FDC00843084F8883084F88930BB1DC4F88C3058
:104FEC00A7F11E038037C4F89030C4F89C60C4F855
:104FFC009480C4F89870B5F8F20004F08BFAC4F8F9
:10500C00A400B5F8F40004F085FA666AC4F8A800A8
:10501C0096F85C30B6F8160184F8A03096F8783023
:10502C0084F8A13095F8753184F8AC30184BC4F87D
:10503C00B03006F16403C4F8B43004F06FFA0146E2
:10504C00144804F073FB144904F0BCFAC4F8BC60B7
:10505C0006F21116C4F8B800C4F8C060C4F8C480D5
:10506C00BDE8F04102F0BEBC4FF4005003F0D0F8A4
:10507C0013E702F043FE86E72814002000F801082D
:10508C00F40C002044150020240D00201E150020D7
:10509C00940D0020000061444C3D0F442DE9F74F66
:1050AC000025F14C002140F21C52204608F09CFED9
:1050BC00EE4B04F5D0725A6204F2F6421A6183F890
:1050CC0028506A23237003234FF48040637103F04C
:1050DC009FF84FF4006003F09BF8022003F098F85F
:1050EC004FF4807003F094F84FF41673A4F8F23078
:1050FC00FA23A4F8F4302A23A4F8F030C823A4F837
:10510C00FA30012384F8EE3084F810312B2384F824
:10511C001131232384F81231242384F81331102302
:10512C002022A4F816311E2384F8F620A4F814319A
:10513C000E224FF4AF7384F80E21A4F81A310A2210
:10514C00022384F80F2184F818310022052384F8F7
:10515C00F454A4F8FE50A4F8FC50A4F8005184F8C0
:10516C00E45084F8E55084F8E650A4F8E850A4F82C
:10517C00EA50A4F8EC5084F8EF5084F8F75084F817
:10518C00F85084F8915184F89051C4F89421C4F8E3
:10519C00982184F89F3140F2DC53A4F82A3140F274
:1051AC004C43A4F82C3140F26C73A4F82E3140F22D
:1051BC007533A4F8303140F6430384F89C5184F8DD
:1051CC009D5184F89E5184F8245184F82551A4F8FB
:1051DC0032312B4625460092032BCCBF01220022F4
:1051EC0084F8342114BF1E2205220133122B84F8BB
:1051FC00352104F10204EFD14FF47A73A5F858313C
:10520C00A5F85C31A5F86031A5F86431A5F8D43067
:10521C0040F27E53A5F8D83040F2EA53C820A5F8E6
:10522C00DA3040F2B45301274FF4FA614FF03209EF
:10523C0040F2DC5AA5F8780140F24C4000264FF0C1
:10524C001E0B4FF005081922A5F8DC3044F2506310
:10525C00A5F85A11A5F85E11A5F86211A5F866110A
:10526C0085F8767185F87771A5F8D000A5F8D2107D
:10527C00A5F8D6A0A5F8DE9085F827B185F8297198
:10528C0085F8737185F8748185F87521019285F81C
:10529C007A71A5F8E030A5F8E29085F8266185F8DA
:1052AC00286185F8686185F8726102F027FD40F687
:1052BC00AC532620AB816D4BAE735C6A019A607067
:1052CC00A0700F204FF0640E6071E2712220212239
:1052DC00232184F804E0A07162740E20532284F818
:1052EC001CE04FF0780EE1722173207450213520B0
:1052FC00E27684F80AE00A224FF02D0EE170A076D7
:10530C0046215A20A27484F814E028224FF4FA7E25
:10531C0084F815B084F816B0617384F8178084F89B
:10532C0018B0207262722670A673E6736676A77741
:10533C00A4F84EE0DFF844E1DFF844C1C4F838E0EB
:10534C00C4F83CE0DFF83CE1C4F82CC0C4F828E019
:10535C004FF07E5EC4F830C0DFF82CC14FF07F5B9D
:10536C00C4F848C04FF04B0CC4F834E0DDF800E052
:10537C0084F84CC0C4F840E0DFF810E184F85060C9
:10538C0084F8516084F85260C4F820B0C4F824B09A
:10539C00C4F844E084F853604FF0030C85F8F6042D
:1053AC0085F8FB144120102185F8F70485F8F89452
:1053BC00A5F800A585F8F96485F8FD6485F8FE6408
:1053CC0085F8FA6485F8FC6484F87AC0A4F858600F
:1053DC00A4F85A6084F8796084F87B1084F87EC055
:1053EC0084F881C04FF0020C84F8642084F86520A6
:1053FC0015224FF03009202084F882C04FF0040CA5
:10540C0084F87D7084F878701F4684F86820184AF8
:10541C0084F88980E266174ADFF874802267164A9E
:10542C0084F88090DFF86C9084F87C0084F87F60BE
:10543C0084F8831084F8840084F885C084F886602E
:10544C0084F8876084F8881084F88A6084F88B105C
:10545C0084F88C00A4F8566084F85CC0C4F860E052
:10546C00626708F1080A17E028140020F40C0020E9
:10547C009A99193FF6287C3F1F856B3F8FC2F53CEC
:10548C00CDCCCC3E00002040000040400000A040AD
:10549C009AE200089AE5000816F80910002948D18C
:1054AC00502384F81231282384F813314FF44873B5
:1054BC00A4F816310A2384F8111184F8141184F815
:1054CC00181140F2145285F86A31C823A5F86C21E2
:1054DC0085F86B3185F86E11A5F870316B18009A50
:1054EC001031C0291A61F9D121464FF48E72174838
:1054FC0003F0BCFA21464FF48E72154803F0B6FA4D
:10550C003A69144B1168C5F80215516859609168D5
:10551C0099601168C5F80E15516819619168596147
:10552C00012385F81033022385F82C3403B0BDE831
:10553C00F08F094808F0A6FC30B150453EBFA0EBF7
:10554C000800401980F81C610136A5E7E41600201C
:10555C00001800202A1900209AE2000838B54B4C9C
:10556C00D4F8C830C01A00280EDB0023C4F8C830A9
:10557C0094F8CC304BB1012B30D000F095FDD4F821
:10558C00C8301844C4F8C80038BDD4F8D83098478F
:10559C0088B1D4F8E8301844D4F8EC30C4F8E800FA
:1055AC000133202BC4F8EC3001BF10234008C4F8A1
:1055BC00E800C4F8EC30D4F8F0300133C4F8F03023
:1055CC00D4F8DC309847012384F8CC30B4F8D230CE
:1055DC00D4F8C8201344C4F8C830CEE7D4F8E0306F
:1055EC00984788B1D4F8F4301844D4F8F830C4F89B
:1055FC00F4000133802BC4F8F83001BF402340087D
:10560C00C4F8F400C4F8F830D4F8F0300133052BAA
:10561C00C4F8F03035D1D4F8D43098470023D4F8FE
:10562C00EC20C4F8F03084F8CC30D4F8E830D4F85E
:10563C00F410B3FBF2F3D4F8F820B1FBF2F10A4604
:10564C00CBB9D4F8FC30C9B9D4F800210021C4F886
:10565C00F410C4F8E810C4F8F810C4F8EC100C49B5
:10566C00D4F8E450081DA847D4F80C31C4F8103114
:10567C00B4F8D030ACE7C4F8FC30E4E7C4F800115F
:10568C00E4E7D4F8DC309847F2E700BFF40C0020D4
:10569C00F80D0020254B10B55343254A254C1268B4
:1056AC000139B2FBF3F20388013AA04289B292B2FB
:1056BC009BB212D004F50064A0420ED0B0F1804F22
:1056CC000BD0A4F59834A04207D004F58064A04216
:1056DC0003D004F58064A04202D123F070039BB286
:1056EC00154CA04206D004F58064A0421CBF23F4E4
:1056FC0040739BB203800F4B8185984202850FD07B
:10570C0003F5006398420BD003F54063984207D031
:10571C0003F58063984203D003F58063984201D16E
:10572C00002303860123838210BD00BF40420F007B
:10573C0024000020002C0140001000400B4B800A7C
:10574C0098420FD004D8B0F5801F09D0FE207047C6
:10575C00074B984208D049339842F7D10020704744
:10576C000120704702207047032070470100100091
:10577C0002001000F8B5046805462046FFF7DEFF6E
:10578C00032843DCAB7A4FEAA30E39B90227A5896B
:10579C009E08ADB2B74025EA0705A5810A2606FB8F
:1057AC0000E61E4D05EB8607C7F81411C7F8242137
:1057BC0031B19A080223A18993400B439BB2A38178
:1057CC0028214143164A01F120031344EFF31286BA
:1057DC00502787F3128810310A440421176817B137
:1057EC001F6013680433013902F10402F6D1196009
:1057FC00F3B283F31188282303FB0050D0F8343123
:10580C002BB1A3899BB243F00103A381F8BDA389FB
:10581C0023F001031B041B0CF7E700BFF40C002062
:10582C00080E0020044A536823B192F900208242EA
:10583C0000D11847704700BFA80E002010B50446D1
:10584C00054B2146986803681B689847034B1B68F7
:10585C009A7954409C7110BDA80E0020A01900200C
:10586C0010B50446C0B2FFF7E9FF200ABDE81040AE
:10587C00E4E72DE9F04F1F469E4B91B0039293F94C
:10588C000020029182429DF868509DF86C802DD0CA
:10589C0093F90C30834200F02B81002025E1019B11
:1058AC0033B1182204A994488DF8122001F006F99E
:1058BC00BAF1000F64D04FF48062ADF8102048228A
:1058CC0004A98DF812208C4858E04FF6DF71DBF8F4
:1058DC0050201180D16841F02001D160BBE0DBF891
:1058EC005010CA6842F08002CA60EAE000240C231F
:1058FC00804A03FB04231B7A002BCED10028CCD189
:10590C007E4B7F4A9F601A607E4A9B465A6102F525
:10591C0080729A614FF48072DA601A617A4A18F0D8
:10592C00080F1A6502F5484202F144025A63A2F5C7
:10593C004842A2F140029A6402F5574202F1FC027D
:10594C00916905F0020341F480419161516905F0C0
:10595C00010A41F0010151614FF002028DF8132050
:10596C004FF400720193ADF8102098D01C2200F176
:10597C0080408DF8122004A900F5843001F09EF8C7
:10598C0000264FF001090E2205A88DF814208DF881
:10599C0015908DF816608DF8179002F06AF8252096
:1059AC008DF8140005A88DF815908DF816608DF8FB
:1059BC00179002F05EF8039B50488BF84490CBF89C
:1059CC002060CBF81C60CBF82860CBF82460CBF8B7
:1059DC002C308BF80550CBF808708BF80680FEF74E
:1059EC0037FDBAF1000F36D0DBF8301000293FF448
:1059FC006CAF05A802F0D9F9DBF84C102022059108
:105A0C004FF480510E9180210D920A91DBF81420F5
:105A1C00DBF80C10DBF83000069208910F96099613
:105A2C000B960C96079602F0EBF905A9DBF8300003
:105A3C0002F0C8F9DBF83010DBF850000A6842EAD3
:105A4C0009020A60828A92B242F0400282824A685B
:105A5C0092B2CBF84020019B002B32D0DBF83420E3
:105A6C00002A3FF43CAF05A802F09FF9DBF8482070
:105A7C00002505924FF480520E9280220A92DBF898
:105A8C001020DBF83400089210220F95079209952C
:105A9C000B950C950D9502F0B3F905A9DBF83400C4
:105AAC0002F090F9DBF83420116841F0020111602A
:105ABC00DBF85010556055608A8A92B242F0800231
:105ACC008A82DBF850100B4B8A890C4892B242F454
:105ADC0000528A8100228BF804200C2202FB043431
:105AEC009DF80830C4F804B0237211B0BDE8F08FF3
:105AFC000124FCE61809002000080140DC0B002002
:105B0C00B0E20008B40E00200038014070B500254A
:105B1C000D490E4A91F80C321268012B06DD0DB1BD
:105B2C0081F80C32002070BD2346F6E75C1CDB00CC
:105B3C00D618B688E4B206424FF00105F4D0023311
:105B4C0081F80C42D01870BDA80E0020C41900209A
:105B5C000022024B83F80C22D8E700BFA80E0020CD
:105B6C002DE9F04100240A274FF47A761A4D8278F9
:105B7C001FFA82FEA4EB0E031BB2002B29DDC2F12F
:105B8C006402D2B203FB03FC90F80380524308FB7F
:105B9C000CFC9CFBF2F2C8F164084244534393FBA7
:105BAC00F7F30EEB8E0E03EB4E031BB26B800A88E1
:105BBC00B1F802E00A34AEEB020E03FB0EF393FBDA
:105BCC00F6F3A4B21344782C25F8023FCFD1BDE8EC
:105BDC00F08108BF0122D5E7B410002030B50023B6
:105BEC0040F6C4150A4C072B10D003FB03F2A2F1AC
:105BFC00190142784A4302F6C4125A4301784A43C7
:105C0C0092FBF5F224F813200133ECE730BD00BF12
:105C1C00CE1000200F4B043033F9102040F6330324
:105C2C009A42A8BF1A461923B2F5617FB8BF4FF448
:105C3C0061720878584300F28330904208DA487851
:105C4C00584300F283309042B4BF002001207047CB
:105C5C0000207047541900200022054B83F8342291
:105C6C00C3F83822A3F83C22C3F84022704700BF87
:105C7C00A80E0020F0B408B9F0BCEDE7114A0023DF
:105C8C0002F11C050C26294606FB03F4675D8742CE
:105C9C000AD10D4BD3F8400250B12244557F4278C3
:105CAC00954205DBF0BC70470133102BECD1F9E7C2
:105CBC0000222144C3F84012A3F83C22C3F8382236
:105CCC00F0E700BFB0E20008A80E00204000142846
:105CDC0070B4A8BF1420002302261425084A02F52C
:105CEC0011715E540233CC18984204F8015CF8DC54
:105CFC001344FF2283F844220F2070BCBAE700BF84
:105D0C00A80E0020F8B50E46141E0546CCBF022086
:105D1C000120FFF7DBFF731E132B00F2BE81DFE8BF
:105D2C0013F014002000290037004B005100A10093
:105D3C00F100410171019701BC0137004200510093
:105D4C00A100F1007B00CB001B012A781444FA2C33
:105D5C00A8BFFA2424EAE4742C702846BDE8F84065
:105D6C003CE76A781444642CA8BF642424EAE474E5
:105D7C006C70F2E7EA789E4B1444642CA8BF642440
:105D8C0024EAE474EC7019682846BDE8F840E7E6AC
:105D9C006B792344642BA8BF64230D2E23EAE37391
:105DAC006B7100F07A812A791444642CA8BF6424A6
:105DBC0024EAE4742C71F8BDAA79144484F3080421
:105DCC00AC71F8BD8B4B1D682B78022B19D120467A
:105DDC0003F0A4FB884903F0A9FC696A03F0EAFA12
:105DEC000021074603F08CFD48B98449384603F07E
:105DFC00A5FD00B1814F0F2E6F6212D1F8BD0027A7
:105E0C00F9E7AB782344C82BA8BFC8230F2E23EA8D
:105E1C00E373AB701DD1F8BD764B1D682B78022B4C
:105E2C0017D1204603F07AFB734903F07FFC296AF3
:105E3C0003F0C0FA0021044603F062FD38B96F4943
:105E4C00204603F07BFD00B16C4C2C62F8BD0024A5
:105E5C00FBE76A781444C82CA8BFC82424EAE4746D
:105E6C006C70F8BD634B1D682B78022B19D1204642
:105E7C0003F054FB614903F059FC296B03F09AFAC7
:105E8C000021074603F03CFD48B95C49384603F055
:105E9C0055FD00B1594F102E2F6312D1F8BD0027BC
:105EAC00F9E72B7B2344C82BA8BFC823102E23EA69
:105EBC00E3732B731DD1F8BD4E4B1D682B78022B51
:105ECC0017D1204603F02AFB4C4903F02FFCE96A5A
:105EDC0003F070FA0021044603F012FD38B947496B
:105EEC00204603F02BFD00B1444CEC62F8BD0024BD
:105EFC00FBE7EA7A1444C82CA8BFC82424EAE4744B
:105F0C00EC72F8BD3B4B1D682B78022B19D1204647
:105F1C0003F004FB3A4903F009FCE96B03F04AFA7D
:105F2C000021074603F0ECFC48B93449384603F02D
:105F3C0005FD00B1314F112EEF6312D1F8BD0027D2
:105F4C00F9E7AB7D2344C82BA8BFC823112E23EA45
:105F5C00E373AB751DD1F8BD264B1D682B78022B56
:105F6C0017D1204603F0DAFA254903F0DFFBA96BC1
:105F7C0003F020FA0021044603F0C2FC38B91F4993
:105F8C00204603F0DBFC00B11C4CAC63F8BD0024D4
:105F9C00FBE76A7D1444C82CA8BFC82424EAE47427
:105FAC006C75F8BD134B1D682B78022B17D120464E
:105FBC0003F0B4FA104903F0B9FBA96A03F0FAF93B
:105FCC000021044603F09CFC38B90C49204603F030
:105FDC00B5FC00B1094CAC62F8BD0024FBE7EA78D3
:105FEC001444C82CA8BFC82424EAE474EC70F8BD8F
:105FFC00481900204C190020000020410000C84224
:10600C0000007A44254B1D682B78022B17D12046B3
:10601C0003F084FA224903F089FB696B03F0CAF997
:10602C000021044603F06CFC38B91D49204603F0EE
:10603C0085FC00B11A4C6C63F8BD0024FBE76A7B4D
:10604C001444C82CA8BFC82424EAE4746C73F8BDAB
:10605C00124B1D682B78022B17D1204603F05EFAE9
:10606C00104903F063FB296C03F0A4F900210446EA
:10607C0003F046FC38B90A49204603F05FFC00B136
:10608C00074C2C64F8BD0024FBE7EA7D1444C82CB3
:10609C00A8BFC82424EAE474EC75F8BD4C190020A0
:1060AC000000C84200007A4410B50A490A480A6840
:1060BC00846800BF0B689A42F9D14FF47A70074B91
:1060CC00D3F85C1200FB01F31B1BB3FBF1F300FBD9
:1060DC00023010BD000E002010E000E0A80E0020E1
:1060EC0038B50446FFF7E0FF0546FFF7DDFF401B20
:1060FC00A042FAD338BD10B5044604B910BD4FF414
:10610C007A70FFF7EDFF013CF7E706462DE987486B
:10611C00294C0B27013FFCD04FF01E0905254FF0F1
:10612C00020806F0400A06F0200B00E00025BAF148
:10613C00000F03D0E36883F40043E360BBF1000F6E
:10614C0003D0E36883F48043E36016F0020218BFC7
:10615C00E36848461CBF83F40053E3600192FFF7E9
:10616C00CAFF019ABAF1000F03D0E36883F400432D
:10617C00E360BBF1000F03D0E36883F48043E3607A
:10618C001AB1E36883F40053E3604846FFF7B3FFAA
:10619C007DB1013DCBD14FF4FA70FFF7ACFF4FF05E
:1061AC009609B8F1000FC1D14FF47A70FFF7A3FF35
:1061BC00B0E708F1FF38F4E700100140024A136819
:1061CC0001331360704700BF000E00200920FFF759
:1061DC0029BB2820FFF726BB174B2DE9F0410746BA
:1061EC00B3F8600290460C4603F094F9134903F09F
:1061FC00E9F90646404603F091F9114903F0E2F93A
:10620C0001464FF07E5003F091FA314603F0D2F87C
:10621C000146304603F08AFA256806462946384678
:10622C0003F0C6F80146304603F0CCF9294603F0DA
:10623C00C1F82060BDE8F081A80E0020BD3786357E
:10624C00DB0FC94037B50F4B04465D686A46062123
:10625C001878A847A0B19DF800209DF8013043EABA
:10626C00022323809DF802209DF8033043EA022389
:10627C0063809DF804209DF8053043EA0223A38037
:10628C0003B030BD0C11002013B50F4B04465B68F6
:10629C006A4606213B209847A0B19DF800209DF846
:1062AC00013043EA022323809DF802209DF803303D
:1062BC0043EA022363809DF804209DF8053043EAED
:1062CC000223A38002B010BD0C110020054A08B5B2
:1062DC00938901339BB29381034B187800F029FC0E
:1062EC00002008BD0C1100205011002013B50E4CDD
:1062FC00A37BBBB92369ABB11A681AB10B49886986
:10630C0002438A619A889868ADF8042002228DF8BD
:10631C00072004220DEB02018DF8062000F0CEFBC5
:10632C000123A37302B010BD0C1100200010024019
:10633C0070B50446FFF7DAFFB4F5807F3DD0BB2C77
:10634C003DDC612C3DDC292C3DDC132C3DDC092C87
:10635C003DDC002C0CBF002506251E4C8021A368BB
:10636C006B2098476420FFF7C6FEA36807216820BE
:10637C0098476420FFF7BFFEA36800216B20984765
:10638C006420FFF7B8FEA36818211B209847A36868
:10639C0010211C209847A36829461A209847A36807
:1063AC0004211D209847A368002119209847A36851
:1063BC001221BDE87040372018470025CDE7012594
:1063CC00CBE70225C9E70325C7E70425C5E7052563
:1063DC00C3E700BF0C11002008B5FFF787FF4FF48F
:1063EC008052014B1A8008BD2800002010B44000D8
:1063FC001F4CC0B220701F481F4C017000211F4859
:10640C000170012020701E4C23601E4C23601E4B1B
:10641C001A701E4A1E4B107019701E4908681146DE
:10642C001A4610B383889C0515D40388DB050DD45C
:10643C0047F230530488A40503D5013BFAD110BCB4
:10644C0044E703889BB243F48073038083889BB238
:10645C0043F44073838047F23053087810B1013B0A
:10646C00FBD1ECE7107880F0010010BC704700BF46
:10647C005511002064110020521100205C110020E5
:10648C0058110020601100205411002065110020CB
:10649C00661100204C11002013460A460146682064
:1064AC00A4E713B502AB03F8012D40001F4AC0B29C
:1064BC0010701F4A0020117001221E490A701E49DB
:1064CC0008701E490B601E490B601E4B1E491A704A
:1064DC000A701E4B1E4A187010681A4670B18388D9
:1064EC009C0517D40388DB050FD447F2305304887E
:1064FC00A40505D5013BFAD1FFF7E8FE02B010BDAB
:10650C0003889BB243F48073038083889BB243F46B
:10651C004073838047F23053087810B1013BFBD1B4
:10652C00EAE7107880F00100E8E700BF5511002081
:10653C00641100205C110020521100206011002019
:10654C005811002054110020651100206611002004
:10655C004C1100200A4601466820A2E700F0E4BB7B
:10656C0000F0E2BB00F0FABC00F0F8BC70B5002102
:10657C008CB01022394807F037FC394B394E5A6829
:10658C00304642F440425A605A69002442F00102FB
:10659C005A619A69344D42F400729A6101F030FCF0
:1065AC0001A801F002FC314B01A901934FF4807357
:1065BC0007934FF480630893202309934FF40053FF
:1065CC00304602950A9303940494059406940B9414
:1065DC0001F0F8FB3368264A43F00103336053683B
:1065EC00103D23F4702323F4807353609168214B86
:1065FC000B40012143F4602343F002039360D36A00
:10660C0043F07F63D3622B199A7832B14E1CF6B2E9
:10661C00DA78285D01F088FA31460434102CF2D176
:10662C00134B9A6842F480729A609A6842F00102A5
:10663C009A609A6842F008029A609A681107FCD432
:10664C009A6842F004029A60094B9A685207FCD48B
:10665C009A6842F4A0029A600CB070BD2011002020
:10666C000010024008000240301100204C24014070
:10667C0000240140FDF7F1FF2DE9F0417E4CE36A67
:10668C00013B062B00F2A280DFE813F00700390073
:10669C006300A200C900A000DB004FF40042774B5E
:1066AC00774D5A614FF480421A614FF40052012029
:1066BC001A612B6801F092FD4B22724F724E3B68AF
:1066CC001A715A71236B83F008032363636B6D2B70
:1066DC0004DC4FF4FA63F380BDE8F08101206B4BCE
:1066EC00987001F069FD55223B685A714FF47A732A
:1066FC0073800223E3622B68A363BDE8F0814FF43F
:10670C0000425E4B01205A614FF480425A614FF4B3
:10671C0000521A61236B83F00803236301F04CFDD4
:10672C0040F20142584B5A80B4F93E30B3F5E17F48
:10673C00534B03DD03221B68E262DDE702221B6878
:10674C00E262A26B9B1AB3F5FA6F3FD30023E362AC
:10675C00D2E74FF40042494B1A614FF480425A6120
:10676C004FF400525A61B4F93E30B3F5E17F13DDBA
:10677C00236B012083F00803236301F01DFD40F21D
:10678C007E42414B5A803E4BA26B1B689B1AB3F561
:10679C00FA6FDBD2BDE8F0819BB2B3F5E17F15D87F
:1067AC00A38FFA339BB2B3F5FA7F0FD8236B01207A
:1067BC0043F00803236301F011FD40F20142324B18
:1067CC005A802F4B1B68A3630423E362BDE8F0815E
:1067DC004FF400484FF480474FF40056274D0120EA
:1067EC00C5F810802F616E61236B43F0080323639F
:1067FC0001F0F4FC4FF4FA62234BDA804B22214B6C
:10680C001B685A711A711E4BA26B1B689B1AB3F54D
:10681C00FA6FD9D9C5F814806F616E6196E70120C3
:10682C0001F0CAFC4FF4FA62174B1A800523E3629D
:10683C00134BA26B1B689B1AB3F5FA6F86D2BDE89B
:10684C00F081236B012043F00803236301F0C6FCA5
:10685C0040F2DC520C4B1A804B220A4B1B681A710B
:10686C005A71074BA26B1B689B1AB3F57A7F94BFC6
:10687C0007230023A9E700BF0C11002000100140E2
:10688C00000E0020040D00205419002028000020C8
:10689C001F4A10B5536803F00C03042B21D0082BAE
:1068AC0022D01C4B036053681B49C3F30313CC5C0D
:1068BC000368E34043605468C4F302240C5D23FA7C
:1068CC0004F484605468C4F3C2240C5DE340C360D8
:1068DC005268C2F3813211440A7CB3FBF2F30361B8
:1068EC0010BD0E4B5B68DDE753685168C3F38343FF
:1068FC00C90303F1020302D409494B43D2E751689F
:10690C0011F4003F0549496818BF4908F5E700BF75
:10691C000010024000127A00E7E300082800002073
:10692C0000093D0037B504466B46012202210C20BC
:10693C00FFF75CFD10B9002003B030BD9DF80030AE
:10694C00DA07F8D56B46072203210C20FFF74EFD22
:10695C000028F0D09DF806309B07ECD19DF8013053
:10696C009DF80000174D40EA032000B202F0D6FD5E
:10697C00296802F027FE03F001F89DF8033020800F
:10698C009DF8020040EA032000B202F0C7FD6968DE
:10699C0002F018FE02F0F2FF9DF8053060809DF8C1
:1069AC00040040EA032000B202F0B8FDA96802F02E
:1069BC0009FE02F0E3FF0122A0800A210C20FFF760
:1069CC0070FDB9E73000002013B500220A210C201D
:1069DC00FFF767FD1420FFF78EFB0F220A210C2016
:1069EC00FFF75FFD0A20FFF786FB01AB03221021A6
:1069FC000C20FFF7FBFC0A20FFF77DFB9DF9040040
:106A0C0002F08CFD4FF0864102F0D2FC4FF06E513B
:106A1C0002F0D8FD4FF07E5102F0CCFC254902F07B
:106A2C00D1FD254C20609DF9050002F077FD4FF05B
:106A3C00864102F0BDFC4FF06E5102F0C3FD4FF0E9
:106A4C007E5102F0B7FC1B4902F0BCFD60609DF961
:106A5C00060002F063FD4FF0864102F0A9FC4FF0F6
:106A6C006E5102F0AFFD4FF07E5102F0A3FC1149C4
:106A7C0002F0A8FD0022A0600A210C20FFF711FDF6
:106A8C000A20FFF738FB0DF10303012202210C2031
:106A9C00FFF7ACFC0DF10303012209210C20FFF7D9
:106AAC00A5FC01220A210C20FFF7FBFC012002B0FF
:106ABC0010BD00BF0000F041300000202DE9F04374
:106ACC0000234FF00F0E01260F8847FA03F2D2076E
:106ADC0023D58C784FEAD30814F0100F18BF91F817
:106AEC00039003F0070504F00F024FEA850550F8F8
:106AFC0028C018BF42EA09020EFA05F92CEA090C63
:106B0C00AA4042EA0C02282C40F828200AD1C2687C
:106B1C0006FA03F422EA0402C2600133102BD4D12A
:106B2C00BDE8F083482CF8D1C46806FA03F222437E
:106B3C00F2E7012828BF01202DE9F04F4FF0140E89
:106B4C0006460EFB00F3714FDFF8D881F918F858A0
:106B5C006F4B88F80460DC690A69C8F800002243AE
:106B6C00DA6182880D8922F440721204120C828040
:106B7C000222B1F80AA04C6889B045EA0A09C4F8A7
:106B8C00109003A920460193ADF80C908DF80F20BE
:106B9C008DF80EE0FFF792FF019B00974FF0080B6A
:106BAC001F46A268154200F0A2800A206561FFF71B
:106BBC0097FA25610A20FFF793FABBF1010BF0D18C
:106BCC00C4F814A00A20FFF78BFA65610A20FFF7BE
:106BDC0087FA25610A20FFF783FA0222C4F810A075
:106BEC008DF80F201C2203A920468DF80E20ADF83D
:106BFC000C90FFF763FFD8F80040464A03A8944274
:106C0C003A690BBF42F4001242F480023A613A61D5
:106C1C000BBF3A693A6922F4001222F480023A61FD
:106C2C00A38823F440731B041B0CA38023889BB202
:106C3C0043F001032380A588FFF72AFE059B364A03
:106C4C00364825F03F05B3FBF0F0B3FBF2F3002B15
:106C5C0008BF01232D042D0C0543ADB2A58021885E
:106C6C004FF4967221F001010904090C21804FF4B4
:106C7C007A716FEA4343424392FBF1F26FEA53435A
:106C8C0001329BB292B22284A383238800259BB24B
:106C9C0043F0010323802388009A23F4816323F0BB
:106CAC0002031B041B0C23804FF480432381142309
:106CBC00012403FB0626737B03A88DF80C308DF89A
:106CCC000D508DF80E508DF80F4000F0D2FE337B36
:106CDC009DF80F208DF80C308DF80D508DF80E505E
:106CEC004AB103A800F0C5FE09B0BDE8F08F0A2038
:106CFC00FFF7F6F955E75A09094903F01F0304FA9F
:106D0C0003F3203241F82230EEE700BFFCE3000829
:106D1C000010024000540040804F120040420F000F
:106D2C0000E100E04C1100208B4B70B51A68908A82
:106D3C0080B2C1B2CE0739D5118821F400610904A3
:106D4C00090C1180118889B241F4806111800021F5
:106D5C005971997919B3D97909B30121D971197A72
:106D6C00022901BF118889B241F400611180597A5E
:106D7C0041F0010111821A7A93F905100132914206
:106D8C000CD10022DA719A7A32B119688A8822F40D
:106D9C0040721204120C8A8000225A7670BD597A05
:106DAC0001F0FE011182FF225A71E4E78D073ED5F6
:106DBC00BFF35F8F187AC0B2012818D19979B1B19D
:106DCC00D979A1B1118821F480610904090C1180D1
:106DDC00BFF35F8F118B1188987289B241F40071E7
:106DEC001180918889B241F480619180C3E7118B45
:106DFC00BFF35F8F197A02290FD1997969B1D979CB
:106E0C0059B1118821F480610904090C1180918811
:106E1C0021F480610904090CE7E7197A0329E0D110
:106E2C0099790029DDD0D9790029DAD0EFE74C0720
:106E3C0055D501219972997900293BD0D97900292E
:106E4C0038D0197A93F905000229118821D921F437
:106E5C0080610904090C1180148ADD68E4B22C5499
:106E6C00C1B21088DC6880B240F4007010801868E1
:106E7C008A1C5A71028A0131D2B249B26254828898
:106E8C0092B242F48062828019680A88D605FCD4DA
:106E9C0071E789B241F400711180148ADD68E4B2A3
:106EAC002C54C1B2128A481C40B2D2B203312A54BB
:106EBC005971E9E7D97909B9197C41B1118889B2BD
:106ECC0041F4007111805A7901325A71DCE7118852
:106EDC0089B241F4807111800122DA71D4E711F08A
:106EEC0040011AD093F90560118ADD68C9B2F4B279
:106EFC00A955601C40B21D7AC11C8D42587105D138
:106F0C00918821F480610904090C91801A7A9042CD
:106F1C007FF431AF02345C712DE705067FF52BAFA2
:106F2C0093F90500441C0AD05C69411C205C49B2F1
:106F3C001082187A597188427FF41DAF67E7597136
:106F4C00197E1182997900297FF461AF197A002991
:106F5C007FF411AF5BE700BF4C11002010B5204C43
:106F6C002368998A89B211F4706F1CBF0122A27632
:106F7C0011F4E06F1ED01A8B9A88890522F4806276
:106F8C004FEA02424FEA12429A8013D41A889205B1
:106F9C0010D41A88D00517D51A88D105FCD41A88B4
:106FAC0092B242F400721A801A889205FCD42079AD
:106FBC00FFF7BFFD2268938A23F470631B041B0C3C
:106FCC0093820023637610BD1A8892B242F4007249
:106FDC001A809A8822F440721204120C9A80E9E703
:106FEC004C11002040F2AD1340F6FF714343B3FB4C
:106FFC00F1F30A4A13801E23526811784B4344F66E
:10700C00FB7100FB03105378C3EB0333B0FBF3F0BD
:10701C009378B0FBF3F080B2704700BF681100208A
:10702C0003789942BDBF034B03EB41010889002053
:10703C00704700BF681100200021F0B5254D0B46AC
:10704C002C4641F2210642182A4492F8202083EA69
:10705C0002230922013A07D013F4004F4FEA4303ED
:10706C0018BF73409BB2F5E701311929EBD100F140
:10707C00190100F11A052144254491F8206095F876
:10708C00201001EB062189B2994221D14FF4AF6552
:10709C0094F841600138D7B2B74202F1010214DA18
:1070AC0000EB4201C9B263180131214493F820E08E
:1070BC0091F8203004EB470703EB0E239BB26B4394
:1070CC001B1303F548733B81E5E7012384F8423039
:1070DC00F0BD00BF6811002003788B420BD9074B21
:1070EC0089001A78064B0B44586C02B1400800F525
:1070FC00777080B270470020704700BF461900209F
:10710C006811002007298FBF0020034B03EB81017E
:10711C00486F80B2704700BF68110020034B03EB2F
:10712C004101B1F89400C008704700BF68110020FD
:10713C0008B5084B03EB8101D1F8B40002F0EAF971
:10714C00054902F03FFA054902F034F902F03CFC23
:10715C0080B208BD681100200000203F00005C4494
:10716C00024B03EB4101B1F8FC00704768110020A1
:10717C00014B33F811007047480B0020014B33F8DA
:10718C0011007047480B0020002070472DE9F74F85
:10719C00794C94F8213104EB4303B3F83081B4F902
:1071AC0042311FFA88F80A2B1CBF002384F84031A7
:1071BC0094F84031A4F83881002B61D16F4B4FF01B
:1071CC009749C4F84431C4F84C314FF07E53C4F89D
:1071DC0050316B4B4FF0000AC4F85431694B4FF0EF
:1071EC007C57C4F8583140F2DC53C4F89431102366
:1071FC00A4F892311823644D644AA4F89031C4F871
:10720C004821EE1805F1300B4946286902F0DAF9ED
:10721C005146019002F074FB019B3946002800F0A6
:10722C00A380184602F0C4F802F03EFCC6E908013F
:10723C00494655F8040F02F0C5F95146019002F089
:10724C005FFB019B3946002800F09280184602F043
:10725C00AFF802F029FCE6E902015E45D4D10A231D
:10726C00A4F84231A8F2DC531B04C4F8B031C4F8C2
:10727C00BC31C4F8B431C4F8C031012384F84031B6
:10728C00414BD4F894A1B4F99251A8EB0A005A6A74
:10729C0000FA05F14A43186A4FEAE179D4F8B07163
:1072AC0000FB0922C4F8B011A0FB0101D4F8BC61A9
:1072BC0011445A6CD3F8408072434FEAE67908FBCC
:1072CC000922A8FB06899144DA6AD4F8C0C17A4332
:1072DC00B0EB0800C4F8C0619E6A61EB09014FEA8B
:1072EC00E779D4F8B4E106FB0922C4F8B471A6FB23
:1072FC0007671744DA6C36180CFB02F2986C4FEAED
:10730C00EC794F4100FB0922A0FB0C01301A7646A8
:10731C00114467EB0101F7171E6B5B6BC4F8B8E106
:10732C000EFB03F306FB0733A6FB0E671F44801905
:10733C00C4F8C4C1B4F99021794101F00DFC0123CA
:10734C006A1E9340C4F8BC01C01841EBE3712A4695
:10735C0001F002FC10EB0A0080B2FFF743FEA4F828
:10736C00C80103B0BDE8F08F184602F023F85BE7C4
:10737C00184602F01FF86CE76811002056157D398D
:10738C006350FABF0CE0743FA81200205615FD396B
:10739C0070B50546FEF788FE304CD4F8CC31C4F8F5
:1073AC00CC01C31AB3F5FA5F82BF002384F8D03145
:1073BC0084F8D13194F8D03123B9A12D04BF012226
:1073CC0084F8D12194F8D12132B1E218EDB2013315
:1073DC0082F8205084F8D03194F8D05194F8D231FE
:1073EC00AB420AD194F8D331052B07D0062B08D029
:1073FC00002384F8D13184F8D03170BD0020FFF720
:10740C001BFE94F821301E2BF2D100200246013DC8
:10741C00C3B2AB4219DA0921234493F82030DBB212
:10742C00013911F0FF010DD082EA0306F60745BFC2
:10743C0083F01803C3F347035B0843F08003C2F3E4
:10744C004702EDE701301A46E2E7254495F8203073
:10745C009A42CDD10320FFF7EFFDC9E76811002058
:10746C0010B50446FEF720FE41F288310D4BE4B214
:10747C00D3F8D421C3F8D401821A8A4284BF0022E3
:10748C0083F8D82193F8D8210F2A03EB02010CBF03
:10749C000122013281F8D94114BF83F8D82183F835
:1074AC00E92110BD6811002010B50446FEF7FCFD63
:1074BC0041F288310D4BD3F8EC21C3F8EC01821A60
:1074CC008A4284BF002283F8F02193F8F021142A19
:1074DC0003EB02010CBF0122013281F8F14114BF10
:1074EC0083F8F02183F8062210BD00BF681100203C
:1074FC0010B50446FEF7D8FD254BD3F80822C3F887
:10750C000802821AB2F57A6F84BF002283F80C222B
:10751C0093F80C224AB9A82C38D183F80D22A3F881
:10752C000E22991881F8114206E0022A02D183F842
:10753C001042F6E7242AF4D993F8101201320231E2
:10754C00D2B249008A4283F80C2216DA082241F2A0
:10755C002101B3F80E02E4B280EA042010F4004FCB
:10756C0002F1FF324FEA400018BF484012F0FF0210
:10757C0080B2F3D1A3F80E0210BD01318A4201BFD3
:10758C00002283F80C22012283F80D2210BD00BFCB
:10759C006811002010B50446FEF786FD40F6AC518C
:1075AC000E4BD3F83822821A8A42C4BF002283F8C9
:1075BC003C2293F83C22991881F83D421AB90F2CC1
:1075CC000BD1C3F838020132D2B2192A83F83C220B
:1075DC000CBF0122002283F8562210BD6811002036
:1075EC000F4B1A6842F001021A6059680D4A0A40A2
:1075FC005A601A6822F0847222F480321A601A6877
:10760C0022F480221A605A6822F4FE025A604FF467
:10761C001F029A604FF00062034B9A60704700BFE4
:10762C00001002400000FFF800ED00E02DE9F843E7
:10763C005B4C0368023AC4F8583283880D46A4F8B0
:10764C005C32062A05D8DFE802F0767D848B969CA6
:10765C00A300B4F858320B80B4F85A326B80B4F8EB
:10766C005C32AB804F4B1B78002B62D1B5F900001C
:10767C0001F054FF8046B5F9020001F04FFF0746B8
:10768C00B5F9040001F04AFFD4F8601206464046F2
:10769C0001F098FFD4F86C128146384601F092FF45
:1076AC000146484601F086FED4F8781281463046F1
:1076BC0001F088FF0146484601F07CFE05F08CFD88
:1076CC00D4F864122880404601F07CFFD4F8701284
:1076DC008146384601F076FF0146484601F06AFEC5
:1076EC00D4F87C128146304601F06CFF01464846C6
:1076FC0001F060FE05F070FDD4F868126880404619
:10770C0001F060FFD4F874128046384601F05AFF3D
:10771C000146404601F04EFED4F880120746304632
:10772C0001F050FF0146384601F044FE05F054FDCF
:10773C00A880BDE8F883B4F85A320B80B4F85832FC
:10774C005B428BE7B4F858325B420B80B4F85A3288
:10775C00F6E7B4F85A325B420B80B4F858327DE746
:10776C00B4F858325B420B80B4F85A326B80B4F8E0
:10777C005C325B4275E7B4F85A320B80B4F858327D
:10778C00F4E7B4F858320B80B4F85A325B42EDE7A8
:10779C00B4F85A325B420B80B4F85832F6E700BFAB
:1077AC00681100203C00002010B5364CFFF7EEFCB1
:1077BC0094F88432032BB4F8C83126D10A2B1CDD83
:1077CC000023282084F88432FEF795FCFFF7DEFCBA
:1077DC00B4F83801FFF706FC6268D37890FBF3F03D
:1077EC0001300828A8BF0820537980B24343A4F87D
:1077FC00863213795843A4F8880294F88432012B0A
:10780C001CD00DD3022B33D010BD0A2BF5DC032377
:10781C0084F884320023A4F88632A4F88832ECE78A
:10782C00B4F88622B4F8C8319A4229DD012384F8D1
:10783C0084320820BDE81040FEF71CBA94F88A3256
:10784C00B4F8C82123F0020384F88A32B4F88832E1
:10785C00934204DD022384F884320720EAE7B4F86B
:10786C00863201339A42E4DD002384F8843210BD61
:10787C00B4F88832B4F8C82101339A42EDDDD5E76B
:10788C0010BD00BF681100202DE9F0413D4C0546AC
:10789C00B4F88C32322B50D13B4B1B681A88A4F8AD
:1078AC008E225A889B88A4F89022A4F892320388DE
:1078BC00A4F894324388A4F8963200231946324A2D
:1078CC00D2F800E09046314A02F10C06B4F88C0272
:1078DC009F00322808BF42F8231036F913C0D05944
:1078EC0026F813106044D0512EF813100133032BDB
:1078FC00ECD1B4F88C32012B19D14FF000020C20D2
:10790C0084F8AA2284F8AB32FEF7B4F9D8F8003028
:10791C00B4F88E221A80B4F890225A80B4F89222CD
:10792C009A80B4F894322B80B4F896326B80B4F809
:10793C008C32013BA4F88C3201E0002BBDD194F8C1
:10794C00AC32EBB13221104B00201A68D4F89832CB
:10795C0084F8AC0293FBF1F31380D4F89C3293FBC4
:10796C00F1F35380D4F8A03293FBF1F30849098862
:10797C005B1A938028806880BDE8F04100F050BC11
:10798C00BDE8F08168110020800D0020001400205B
:10799C0028000020104B1B6803EB4002117E29B11C
:1079AC0002290DD00D4B33F810007047022805D971
:1079BC000328F7D10A4A1268D2040AD5D88970472D
:1079CC00507E00EB800000EB800000F2EE2080B2D5
:1079DC0070474FF496607047200D0020541900201A
:1079EC005019002008B5FEF75FFB0222064B83F806
:1079FC00B422C3F8B002054B1A68054B9A600122F9
:107A0C0083F8212008BD00BF68110020000E002063
:107A1C005C0D002008B5FEF747FB0222074B00F572
:107A2C00B71083F8B422064A00F55870C3F8B002B8
:107A3C00936803F2DC53936008BD00BF681100200B
:107A4C005C0D0020084BDA68D10709D4DA685207BC
:107A5C0008D4DB6813F0100F14BF03200420704708
:107A6C0001207047022070470020024000231B6851
:107A7C00FFDE0C4B0C49DB68DB43C3F30223C3F181
:107A8C0004024378934002781B018818DBB280F81B
:107A9C0000330123500902F01F0203FA02F241F8ED
:107AAC002020704700ED00E000E100E007B51A4B24
:107ABC001A1D1A6093F82C2122B3012A09D1032133
:107ACC0083F82415072183F826250C2283F8251525
:107ADC001A71124A124B40201A60FEF739F870B135
:107AEC000122002390F9000040218DE80C004FF496
:107AFC00E1330C4AFDF7BDFE003018BF012003B086
:107B0C005DF804FB022183F82415032183F8262554
:107B1C0083F825150722DBE720140020E570000808
:107B2C00400000206D740008092870B5224C1CD947
:107B3C000726A0F10A03E56803EB43039E4025EA00
:107B4C00060502FA03F32B43E36006291A4B18D8F7
:107B5C001F2401395A6B01EB81018C4022EA04028B
:107B6C0000FA01F11143596370BD0723256900EB3D
:107B7C004006B34025EA030502FA06F32B432361C2
:107B8C00E3E70C290CD81F2407391A6B01EB810190
:107B9C008C4022EA040200FA01F11143196370BD12
:107BAC001F240D39DA6A01EB81018C4022EA0402B0
:107BBC0088401043D86270BD002401402DE9F0418B
:107BCC00C2780688D30648BF837802F00F0548BFF9
:107BDC001D4316F0FF0F1BD000204FF0010E4FF08D
:107BEC000F0C204B19680EFA00F737EA06040BD17C
:107BFC0084000CFA04F821EA080105FA04F4282A96
:107C0C0041EA040126D15F6101300828EBD11960EB
:107C1C00FF2E1DD900204FF0010E4FF00F0C114B11
:107C2C00596800F108040EFA04F434EA06070BD183
:107C3C0087000CFA07F821EA080105FA07F7282A49
:107C4C0041EA07010AD15C6101300828E9D1596089
:107C5C00BDE8F081482A08BF1F61D5E7482A08BF54
:107C6C001C61F1E70008014073B5054601240026AC
:107C7C00012200210068FDF70DFD2A6801A8138878
:107C8C009BB243F001031380EB7A8DF805408DF81D
:107C9C0004308DF806608DF80740FFF7EAFEEB7AAA
:107CAC001B2B0BD1192301A88DF804308DF805403E
:107CBC008DF806608DF80740FFF7DBFE02B070BD53
:107CCC000C4B03F1D802C3F82825C3F82C1500F18E
:107CDC00500302781AB98178C278914208D30430E3
:107CEC009842F6D10023044A83F0010313717047C4
:107CFC000123F8E7201400204000002010B5124C9E
:107D0C001222002104F5C27006F06EF8052384F8E7
:107D1C008A3184F88C3184F8923184F894310123BF
:107D2C0000220421A4F88831522384F8862184F897
:107D3C008B1184F88D2184F88E2184F8931184F8AA
:107D4C00952184F8843110BD2014002000210120DD
:107D5C00F9F71EBC0B4AD2F8303513F4805FB2F938
:107D6C003A350AD0B2F83221111A8B4208DD104490
:107D7C008342B4BF002001207047B2F83401F7E70A
:107D8C00012070472014002010B50446FFF75AFE5E
:107D9C00012806D10CB9052010BDFFF753FE013C9C
:107DAC00F6E7002C08BF052010BD002303604360DC
:107DBC008360C360036143618361C3610362436297
:107DCC00836270478B6810B50C6A026823430C6998
:107DDC0022F4FF4223434C6922F0700223438C6946
:107DEC002343CC6923434C6A23438C6A23431343B8
:107DFC000360CB6843600B6883604B68C36010BD45
:107E0C00036823F001031B041B0C036000230360B5
:107E1C0043608360C360294B984204D1284A53685D
:107E2C0043F00F0326E0274B984204D1244A5368B1
:107E3C0043F0F0031EE0244B984204D1204A5368CF
:107E4C0043F4706316E0214B984204D11C4A5368EA
:107E5C0043F470430EE01E4B984204D1184A536809
:107E6C0043F4702306E01B4B984205D1144A536827
:107E7C0043F4700353607047174B984204D1104A77
:107E8C00536843F07063F5E7144B984201D1144AE0
:107E9C00C5E7144B984201D1114AC8E7124B9842DE
:107EAC0001D10F4ACBE7114B984201D10C4ACEE7D6
:107EBC000F4B9842DFD10A4AD1E700BF08000240BD
:107ECC00000002401C00024030000240440002400E
:107EDC00580002406C00024080000240080402403E
:107EEC00000402401C0402403004024044040240DE
:107EFC005804024080EAE073A3EBE0738B4206DB8C
:107F0C00002801DD401A704702D008447047002059
:107F1C00704770B5044601F031FD2030402859D827
:107F2C002D4E2E4D3146204601F008FD60B92C4EE9
:107F3C002A4D3146204601F0E3FC58B12046294633
:107F4C0001F038FA0446F4E72046294601F030FAED
:107F5C000446E7E72349204601F0F0FC00282CD02A
:107F6C002049204601F024FA01461E4801F020FA6F
:107F7C0004462146204601F025FB05461A4901F02E
:107F8C0021FB1A4901F014FA294601F01BFB184990
:107F9C0001F010FA294601F015FB164901F008FA18
:107FAC0029460646204601F00DFB0146304601F0FD
:107FBC0009FB214601F0FEF970BD0F49204601F086
:107FCC009FFC0028D5D00749204601F0F3F9014663
:107FDC000948CBE7002070BDDB0F4940DB0FC940DF
:107FEC00DB0F49C0DB0FC93F9A7C2E36FAAF4F39F5
:107FFC003587083CA4AA2A3EDB0FC9BF2DE9F04FF8
:10800C00056885B00C4681463A49284601F0D2F9FC
:10801C00FFF77FFF80462846FFF77BFFD9F8045017
:10802C0006463449284601F0C5F9FFF772FF0746AA
:10803C002846FFF76EFFD9F8089005462D494846AB
:10804C0001F0B8F9FFF765FF82464846FFF761FF7C
:10805C0041468146504601F0B5FA414601904846EA
:10806C0001F0B0FA51460290304601F0ABFA4946A5
:10807C000390304601F0A6FA39468346504601F08B
:10808C00A1FA4946206007F1004001F09BFA0399E0
:10809C006060A560284601F095FA029901F08AF912
:1080AC005946E060284601F08DFA0146019801F02E
:1080BC007FF93946206106F1004001F083FA0199FD
:1080CC006061284601F07EFA0146584601F070F9CD
:1080DC000299A061284601F075FA039901F06AF93A
:1080EC004146E061384601F06DFA206205B0BDE80A
:1080FC00F08F00BFDB0FC93F2DE9F04104468AB079
:10810C002768084601A96668A568FFF777FF0199FB
:10811C00384601F057FA04998046304601F052FA7D
:10812C000146404601F046F907998046284601F081
:10813C0049FA0146404601F03DF902992060384663
:10814C0001F040FA05998046304601F03BFA0146B1
:10815C00404601F02FF908998046284601F032FA82
:10816C000146404601F026F903996060384601F05B
:10817C0029FA06990746304601F024FA014638469A
:10818C0001F018F909990646284601F01BFA014638
:10819C00304601F00FF9A0600AB0BDE8F081012370
:1081AC00044A03FA00F0B2F8583523EA0000A2F8AA
:1081BC00580570472014002010B5074CB4F85A2508
:1081CC0022EA00008242A4F85A0502D00120FDF7F1
:1081DC007DFDB4F85A0510BD2014002010B5074CD5
:1081EC00B4F85A2510438242A4F85A0502D0012053
:1081FC00FDF76CFDB4F85A0510BD00BF201400202B
:10820C00024A136923EA0000106170472014002011
:10821C00024A136918431061704700BF20140020F4
:10822C0008B5FCF759FDFCF7FBFDBDE80840012043
:10823C00FDF74CBD2DE9F041424CD4F85C25F2B170
:10824C00D4F8603504F26A569B1A3F4A04F5AE65C1
:10825C0093424FF000033FD804F2645030F91320DE
:10826C0036F91370590097426F5EC8BF26F8132079
:10827C00974203F10103B8BF6A52032BEED194F875
:10828C007C353BB3B4F86635B4F80C21B4F80A115C
:10829C009B1AB4F812215343B4F80E2118B2B4F857
:1082AC0068359B1AB4F814215343B4F864251BB2F7
:1082BC00521AB4F810114A430A2112B292FBF1F28D
:1082CC0093FBF1F3A4F8642590FBF1F2A4F8683564
:1082DC00A4F86625BDE8F08104F276574FF0020849
:1082EC003846C4F85C3504F5847C36F913E035F96E
:1082FC0013200EEB020191FBF8F1A2EB0E0202EB44
:10830C00820227F813200133032B2CF8021FECD127
:10831C00B4F97825B4F976350A211344B4F97A25E1
:10832C000A4E134400225943835EB51803EB4303F2
:10833C0091FBF3F30232062AA5F80831F4D1FFF7CA
:10834C006FFF9CE7201400207FC3C9012814002074
:10835C002DE9F047D04C8AB02268264692F8493075
:10836C004C2B00F0DA8200F29780372B00F0F4826D
:10837C0051D8292B00F0BF8221D8252B00F0A082E8
:10838C00272B00F0AA82232B40F01181F9F7B3FEC2
:10839C001328064610D8C14D0C272C68F9F7ABFEF4
:1083AC000023BF4907FB031292F808E0864500F052
:1083BC00238301331C2BF5D1FFF7C8FC26E1332BAB
:1083CC0000F0B982352B00F0F2812D2B40F0EF80BC
:1083DC00F9F791FEB34D85F82401F9F797FEA5F84E
:1083EC002E01F9F793FEA5F82A01F9F78FFEA5F8EF
:1083FC002C01F9F780FE236885F825015B79082BA1
:10840C0040F30481F9F782FEA5F83001F9F77EFEFE
:10841C00A5F83201FAE0412B00F093820CD83C2BEA
:10842C0000F048813E2B00F02781392B40F0BF80B3
:10843C00F9F761FE9B4CA1E0442B00F0C5824A2B5E
:10844C0000F02481432B40F0B280F9F754FE002356
:10845C00944CA360F9F75AFE0546F9F757FE05EB65
:10846C000040FFF7D5FEF9F746FE84F82401F9F732
:10847C004DFEA4F8E800F9F749FEA4F8EA00F9F774
:10848C0045FEA4F8EC00F9F741FEA4F81401F9F745
:10849C003DFEA4F81601B9E0D02B00F0F4817CD895
:1084AC00CC2B00F0AB812ED8C82B00F0B380CA2B9C
:1084BC0000F00A814E2B7AD103235579B5FBF3F5E5
:1084CC00122D3FF679AF002640F6CA0940F2EE288D
:1084DC001927754CAE4204F1020480F09780F9F72D
:1084EC000AFE04F8020CF9F711FE4845A8BF4846ED
:1084FC004045B8BF4046A0F2EE2090FBF7F00136A5
:10850C0004F8010CE6E7CE2B00F0CE8140F2C381DB
:10851C00F9F7FCFD6FF4AF6403199BB2614CC62BE9
:10852C0098BFA4F82A01F9F7F1FDA4F8D000F9F7E7
:10853C00EDFDA4F8D200F9F7E9FDA4F8D400F9F7A1
:10854C00E5FDA4F86C01F9F7D6FDF9F7D4FDF9F7C0
:10855C00D2FDF9F7D0FD84F81901F9F7CCFD84F8B8
:10856C002601F9F7C8FD4D4B1D68F9F7CFFD00EB5F
:10857C0080004000A5F85600F9F7BDFD84F80E0107
:10858C00F9F7B9FD84F81201F9F7B5FD84F811017A
:10859C00F9F7B1FD84F8130138E0D62B00F06981AE
:1085AC0007D8D32B2FD0D42B30D0D22B17D00020E0
:1085BC0012E0EF2B54D004D8DD2BF8D1F9F7A6FD3F
:1085CC0024E0F22B22D0FA2BF1D1384B1B785B072D
:1085DC0014D5FFF7BBFB01200AB0BDE8F087334B85
:1085EC001B785D0712D4F9F786FD0228C8BF00225C
:1085FC002C4BD4BF83F8F40483F8F424FCF76CFB05
:10860C00FCF70EFC02E0F9F781FDA0800020F8F7E2
:10861C00DFFFE0E754796408122C3FF6CDAE00255D
:10862C0001AFA5420CD322460023214901A89C424C
:10863C000CDC00211E4B122A0ED10123B371E5E78D
:10864C00F9F764FD27F815000135EAE730F8135007
:10865C0021F813500133EAE723F812100132EAE74C
:10866C000E4C2568F9F752FDA5F85A002468F9F765
:10867C004DFDA4F85800C9E7F9F73DFD094C84F805
:10868C007401F9F738FD84F87301BFE7F9F73EFD83
:10869C00044B9881BAE700BFA0190020180D0020E8
:1086AC0024E40008281400205C150020F21300209C
:1086BC0064120020C84C2568F9F71DFD287023684A
:1086CC001878FAF777FDA1E7C34C002523681B78CF
:1086DC00022B59D1DFF80893DFF81883BF4F2668B7
:1086EC00F9F709FD00F016FF494601F01FF805F1F6
:1086FC00080A46F82A002668F9F7FDFC05F10A037A
:10870C0006EB830600F006FF414601F00FF870609F
:10871C002668F9F7F0FC00F0FDFE394601F006F88A
:10872C0005F10E0A0135032D46F82A00D7D1AC4FBE
:10873C00072D266819D1F9F7DEFC00F0EBFE39465F
:10874C0000F0F4FF70642668F9F7D5FC00F0E2FE47
:10875C00394600F0EBFFB0642668F9F7CCFC86F8DC
:10876C004C0001350A2DE3D150E7F9F7C4FC2E4437
:10877C0070702668F9F7BFFC2E44F0722668F9F782
:10878C00BAFC2E447075ECE72668F9F7B4FC2E445D
:10879C0070702668F9F7AFFC2E44F0722668F9F772
:1087AC00AAFC2E4401350A2D7075EDD12EE7F9F790
:1087BC00A2FC0B2804463FF6FFAD874B1D68F9F76A
:1087CC009AFC03283FF6F8AD062303FB045484F807
:1087DC00CE00F9F790FC84F8C900F9F78CFC84F80A
:1087EC00CA00F9F788FC84F8CB00F9F784FC84F80C
:1087FC00CC00F9F780FC84F8CD0007E75379092BFE
:10880C007FF7DAAD774D2E68F9F775FC30702E686E
:10881C00F9F771FC7070F9F76EFC6428A8BF64203E
:10882C002B681871F9F767FC6428A8BF64202B68C3
:10883C005871F9F760FC2B689871F9F75CFC6428A7
:10884C0028BF64202E68F071F9F755FCB0702E68C3
:10885C00F9F751FCF0702E68F9F758FC2368708119
:10886C005B790A2B7FF7D2AE2C68F9F744FC2072A7
:10887C00CCE600250834F9F749FC24F8150001353D
:10888C00082DF8D1C2E6584B1B7858073FF5BEAE01
:10889C00FCF704FCB2E6544B1B7859073FF5B6AE17
:1088AC004FF4C8732384B1E64F4B1B785A073FF53E
:1088BC00ADAE94F8223043F0040384F82230A5E6E0
:1088CC0000224A4B9A60F9F721FC0446F9F71EFC8A
:1088DC0004EB0040FFF79CFC98E6F9F717FC434CBF
:1088EC00A4F8E800F9F712FCA4F8EA00F9F70EFC7A
:1088FC00A4F8EC008AE6F9F709FC3C4CA4F8140146
:10890C00F9F704FCA4F81601F9F7F5FB84F8180143
:10891C00F9F7FCFBA4F81A0178E6F9F7ECFB334CF9
:10892C0084F86A01F9F7E7FB84F86B01F9F7EEFBC1
:10893C00A4F86C016AE6F9F7DEFB2C4B83F82601F0
:10894C0064E60024294DF9F7D6FB63190134082C91
:10895C0083F81C01F7D159E607255379B3FBF5F5DC
:10896C00C5EBC5029B1A13F0FF0F7FF425ADEDB2DA
:10897C00013DEDB2FF2D3FF449AEF9F7BCFB746A33
:10898C0040B294F9023083421CD094F90A308342ED
:10899C007FF412AD0123DB009A1CD4423FF40CADE2
:1089AC001C44A070F9F7B2FBA080F9F7A4FBA071EE
:1089BC00F9F7A1FBE071F9F79EFB6072F9F79BFBED
:1089CC002072D5E70023E6E74FF48042084B5A614A
:1089DC00012384F8283019E6180D002000007A4491
:1089EC0000002041040D0020F21300202814002068
:1089FC00001001400000C842137804EB860484F890
:108A0C007930F9F778FB84F87A00F9F774FB84F87D
:108A1C007B00F9F770FB296884F87C0001F1790080
:108A2C00FFF74EF9F2E500BF0C4B10B51B880C4C50
:108A3C0013B90C4B188870B1238843F001032380C1
:108A4C002388DB0705D4084B1868003018BF0120B9
:108A5C0010BD012010BDFFF7A2FBF1E7C0190020EB
:108A6C0078190020CA190020100A0020844641EA17
:108A7C00000313F0030349D1403A23D30B6803607E
:108A8C004B6843608B688360CB68C3600B69036180
:108A9C004B6943618B698361CB69C3610B6A036268
:108AAC004B6A43628B6A8362CB6AC3620B6B036350
:108ABC004B6B43638B6B8363CB6BC3634030403135
:108ACC00403ADBD230320BD30B6803604B68436007
:108ADC008B688360CB68C36010301031103AF3D2CE
:108AEC000C3205D351F8043B40F8043B043AF9D25C
:108AFC00043208D0D2071CBF11F8013B00F8013B2F
:108B0C0001D30B8803806046704700BF082A13D33B
:108B1C008B07B1D010F00303AED0C3F10403D21A0B
:108B2C00DB071CBF11F8013B00F8013BA4D331F863
:108B3C00023B20F8023B9FE7043AD9D3013A11F8E3
:108B4C00013B00F8013BF9D20B7803704B78437072
:108B5C008B78837060467047D0400B1C1141203AD3
:108B6C0003D49C4613411843634652429340184326
:108B7C00704700BF81F0004102E000BF83F000436A
:108B8C0030B54FEA41044FEA430594EA050F08BF9C
:108B9C0090EA020F1FBF54EA000C55EA020C7FEA60
:108BAC00645C7FEA655C00F0E2804FEA5454D4EBDD
:108BBC005555B8BF6D420CDD2C4480EA020281EAA7
:108BCC00030382EA000083EA010180EA020281EADF
:108BDC000303362D88BF30BD11F0004F4FEA013131
:108BEC004FF4801C4CEA113102D0404261EB410140
:108BFC0013F0004F4FEA03334CEA133302D05242C6
:108C0C0063EB430394EA050F00F0A780A4F1010481
:108C1C00D5F1200E0DDB02FA0EFC22FA05F28018BB
:108C2C0041F1000103FA0EF2801843FA05F35941A1
:108C3C000EE0A5F120050EF1200E012A03FA0EFC20
:108C4C0028BF4CF0020C43FA05F3C01851EBE3714A
:108C5C0001F0004507D54FF0000EDCF1000C7EEB67
:108C6C0000006EEB0101B1F5801F1BD3B1F5001FA5
:108C7C000CD349085FEA30004FEA3C0C04F10104C4
:108C8C004FEA445212F5800F80F09A80BCF1004FED
:108C9C0008BF5FEA500C50F1000041EB045141EA6F
:108CAC00050130BD5FEA4C0C404141EB010111F470
:108CBC00801FA4F10104E9D191F0000F04BF01461B
:108CCC000020B1FA81F308BF2033A3F10B03B3F1F9
:108CDC0020020CDA0C3208DD02F1140CC2F10C0289
:108CEC0001FA0CF021FA02F10CE002F11402D8BFE7
:108CFC00C2F1200C01FA02F120FA0CFCDCBF41EAB3
:108D0C000C019040E41AA2BF01EB0451294330BD81
:108D1C006FEA04041F3C1CDA0C340EDC04F114045E
:108D2C00C4F1200220FA04F001FA02F340EA030035
:108D3C0021FA04F345EA030130BDC4F10C04C4F17B
:108D4C00200220FA02F001FA04F340EA030029465B
:108D5C0030BD21FA04F0294630BD94F0000F83F4A5
:108D6C00801306BF81F480110134013D4EE77FEA88
:108D7C00645C18BF7FEA655C29D094EA050F08BFD4
:108D8C0090EA020F05D054EA000C04BF19461046B5
:108D9C0030BD91EA030F1EBF0021002030BD5FEAF9
:108DAC00545C05D14000494128BF41F0004130BD21
:108DBC0014F580043CBF01F5801130BD01F0004575
:108DCC0045F0FE4141F470014FF0000030BD7FEAE8
:108DDC00645C1ABF194610467FEA655C1CBF0B46E3
:108DEC00024650EA013406BF52EA033591EA030FFA
:108DFC0041F4002130BD00BF90F0000F04BF0021F2
:108E0C00704730B54FF4806404F132044FF0000524
:108E1C004FF0000150E700BF90F0000F04BF00219D
:108E2C00704730B54FF4806404F1320410F0004503
:108E3C0048BF40424FF000013EE700BF42004FEAFE
:108E4C00E2014FEA31014FEA02701FBF12F07F437B
:108E5C0093F07F4F81F06051704792F0000F14BF78
:108E6C0093F07F4F704730B54FF4607401F00045BC
:108E7C0021F0004120E700BF50EA010208BF704713
:108E8C0030B54FF000050AE050EA010208BF704708
:108E9C0030B511F0004502D5404261EB41014FF471
:108EAC00806404F132045FEA915C3FF4DCAE4FF075
:108EBC0003025FEADC0C18BF03325FEADC0C18BF5C
:108ECC00033202EBDC02C2F1200300FA03FC20FAAD
:108EDC0002F001FA03FE40EA0E0021FA02F11444FA
:108EEC00C1E600BF70B54FF0FF0C4CF4E06C1CEA0F
:108EFC0011541DBF1CEA135594EA0C0F95EA0C0F84
:108F0C0000F0DEF82C4481EA030621EA4C5123EAF6
:108F1C004C5350EA013518BF52EA033541F4801125
:108F2C0043F4801338D0A0FB02CE4FF00005E1FBD8
:108F3C0002E506F00042E0FB03E54FF00006E1FB22
:108F4C0003569CF0000F18BF4EF0010EA4F1FF0465
:108F5C00B6F5007F64F5407404D25FEA4E0E6D41A5
:108F6C0046EB060642EAC62141EA55514FEAC520B6
:108F7C0040EA5E504FEACE2EB4F1FD0C88BFBCF532
:108F8C00E06F1ED8BEF1004F08BF5FEA500E50F1E3
:108F9C00000041EB045170BD06F0004646EA0101A9
:108FAC0040EA020081EA0301B4EB5C04C2BFD4EBDB
:108FBC000C0541EA045170BD41F480114FF0000ED4
:108FCC00013C00F3AB8014F1360FDEBF002001F042
:108FDC00004170BDC4F10004203C35DA0C341BDCBC
:108FEC0004F11404C4F1200500FA05F320FA04F08E
:108FFC0001FA05F240EA020001F0004221F00041C2
:10900C0010EBD37021FA04F642EB06015EEA430E34
:10901C0008BF20EAD37070BDC4F10C04C4F1200564
:10902C0000FA04F320FA05F001FA04F240EA020017
:10903C0001F0004110EBD37041F100015EEA430EE8
:10904C0008BF20EAD37070BDC4F1200500FA05F208
:10905C004EEA020E20FA04F301FA05F243EA020387
:10906C0021FA04F001F0004121FA04F220EA020096
:10907C0000EBD3705EEA430E08BF20EAD37070BDDC
:10908C0094F0000F0FD101F00046400041EB0101BC
:10909C0011F4801F08BF013CF7D041EA060195F09E
:1090AC00000F18BF704703F00046520043EB030358
:1090BC0013F4801F08BF013DF7D043EA0603704745
:1090CC0094EA0C0F0CEA135518BF95EA0C0F0CD050
:1090DC0050EA410618BF52EA4306D1D181EA030196
:1090EC0001F000414FF0000070BD50EA410606BF90
:1090FC001046194652EA430619D094EA0C0F02D1D5
:10910C0050EA013613D195EA0C0F05D152EA033619
:10911C001CBF104619460AD181EA030101F0004137
:10912C0041F0FE4141F470014FF0000070BD41F080
:10913C00FE4141F4780170BD70B54FF0FF0C4CF45A
:10914C00E06C1CEA11541DBF1CEA135594EA0C0F79
:10915C0095EA0C0F00F0A7F8A4EB050481EA030EC6
:10916C0052EA03354FEA013100F088804FEA0333AD
:10917C004FF0805545EA131343EA12634FEA02227B
:10918C0045EA111545EA10654FEA00260EF000413C
:10919C009D4208BF964244F1FD0404F5407402D28E
:1091AC005B084FEA3202B61A65EB03055B084FEA1F
:1091BC0032024FF480104FF4002CB6EB020E75EB1C
:1091CC00030E22BFB61A754640EA0C005B084FEA44
:1091DC003202B6EB020E75EB030E22BFB61A7546C1
:1091EC0040EA5C005B084FEA3202B6EB020E75EB0C
:1091FC00030E22BFB61A754640EA9C005B084FEA84
:10920C003202B6EB020E75EB030E22BFB61A754690
:10921C0040EADC0055EA060E18D04FEA051545EA7F
:10922C0016754FEA06164FEAC30343EA52734FEA28
:10923C00C2025FEA1C1CC0D111F4801F0BD141EAA1
:10924C0000014FF000004FF0004CB6E711F4801F06
:10925C0004BF01430020B4F1FD0C88BFBCF5E06FE6
:10926C003FF6AFAEB5EB030C04BFB6EB020C5FEAF6
:10927C00500C50F1000041EB045170BD0EF0004E4B
:10928C004EEA113114EB5C04C2BFD4EB0C0541EA7D
:10929C00045170BD41F480114FF0000E013C90E67A
:1092AC0045EA060E8DE60CEA135594EA0C0F08BF3E
:1092BC0095EA0C0F3FF43BAF94EA0C0F0AD150EA3D
:1092CC0001347FF434AF95EA0C0F7FF425AF1046D0
:1092DC0019462CE795EA0C0F06D152EA03353FF4F8
:1092EC00FDAE1046194622E750EA410618BF52EA75
:1092FC0043067FF4C5AE50EA41047FF40DAF52EA49
:10930C0043057FF4EBAE12E74FEA4102B2F1E043C2
:10931C0024BFB3F5001CDCF1FE5C0DD901F0004C50
:10932C004FEAC0024CEA5070B2F1004F40EB8300A0
:10933C0008BF20F00100704711F0804F21D113F1CC
:10934C003872BCBF01F00040704741F480114FEA05
:10935C005252C2F11802C2F1200C10FA0CF320FA8E
:10936C0002F018BF40F001004FEAC1234FEAD323AB
:10937C0003FA0CFC40EA0C0023FA02F34FEA430315
:10938C00CCE77FEA625307D150EA01331EBF4FF09E
:10939C00FE4040F44000704701F0004040F0FE40B9
:1093AC0040F40000704700BF80F0004002E000BFB6
:1093BC0081F0004142001FBF5FEA410392EA030FB4
:1093CC007FEA226C7FEA236C6AD04FEA1262D2EBFE
:1093DC001363C1BFD218414048404140B8BF5B4203
:1093EC00192B88BF704710F0004F40F4000020F09C
:1093FC007F4018BF404211F0004F41F4000121F0B2
:10940C007F4118BF494292EA030F3FD0A2F10102FB
:10941C0041FA03FC10EB0C00C3F1200301FA03F139
:10942C0000F0004302D5494260EB4000B0F5000F5C
:10943C0013D3B0F1807F06D340084FEA310102F11B
:10944C000102FE2A51D2B1F1004F40EBC25008BFCD
:10945C0020F0010040EA03007047490040EB000097
:10946C0010F4000FA2F10102EDD1B0FA80FCACF1C6
:10947C00080CB2EB0C0200FA0CF0AABF00EBC250C5
:10948C0052421843BCBFD0401843704792F0000FB3
:10949C0081F4000106BF80F400000132013BB5E706
:1094AC004FEA41037FEA226C18BF7FEA236C21D07C
:1094BC0092EA030F04D092F0000F08BF08467047E1
:1094CC0090EA010F1CBF0020704712F07F4F04D1AF
:1094DC00400028BF40F00040704712F100723CBFC2
:1094EC0000F50000704700F0004343F0FE4040F4EC
:1094FC00000070477FEA226216BF08467FEA2363AA
:10950C000146420206BF5FEA412390EA010F40F494
:10951C00800070474FF0000304E000BF10F00043E0
:10952C0048BF40425FEA000C08BF704743F09643C7
:10953C0001464FF000001CE050EA010208BF7047E2
:10954C004FF000030AE000BF50EA010208BF704769
:10955C0011F0004302D5404261EB41015FEA010C7E
:10956C0002BF84460146002043F0B64308BFA3F176
:10957C008053A3F50003BCFA8CF2083AA3EBC25358
:10958C0010DB01FA02FC634400FA02FCC2F1200277
:10959C00BCF1004F20FA02F243EB020008BF20F0AE
:1095AC000100704702F1200201FA02FCC2F1200214
:1095BC0050EA4C0021FA02F243EB020008BF20EA09
:1095CC00DC7070474FF0FF0C1CEAD0521EBF1CEA37
:1095DC00D15392EA0C0F93EA0C0F6FD01A4480EA25
:1095EC00010C400218BF5FEA41211ED04FF000630E
:1095FC0043EA501043EA5111A0FB01310CF000403A
:10960C00B1F5000F3EBF490041EAD3715B0040EA5F
:10961C00010062F17F02FD2A1DD8B3F1004F40EB2F
:10962C00C25008BF20F00100704790F0000F0CF002
:10963C00004C08BF49024CEA502040EA51207F3AC6
:10964C00C2BFD2F1FF0340EAC250704740F40000A1
:10965C004FF00003013A5DDC12F1190FDCBF00F092
:10966C0000407047C2F10002410021FA02F1C2F140
:10967C00200200FA02FC5FEA310040F1000053EADC
:10968C004C0308BF20EADC70704792F0000F00F02A
:10969C00004C02BF400010F4000F013AF9D040EA30
:1096AC000C0093F0000F01F0004C02BF490011F4C4
:1096BC00000F013BF9D041EA0C018FE70CEAD153C2
:1096CC0092EA0C0F18BF93EA0C0F0AD030F0004C42
:1096DC0018BF31F0004CD8D180EA010000F00040F6
:1096EC00704790F0000F17BF90F0004F084691F0B4
:1096FC00000F91F0004F14D092EA0C0F01D14202EE
:10970C000FD193EA0C0F03D14B0218BF084608D1B6
:10971C0080EA010000F0004040F0FE4040F4000000
:10972C00704740F0FE4040F4400070474FF0FF0C93
:10973C001CEAD0521EBF1CEAD15392EA0C0F93EADA
:10974C000C0F69D0A2EB030280EA010C49024FEA2C
:10975C00402037D04FF0805343EA111143EA1013E5
:10976C000CF000408B4238BF5B0042F17D024FF49D
:10977C00000C8B4224BF5B1A40EA0C00B3EB510F78
:10978C0024BFA3EB510340EA5C00B3EB910F24BF61
:10979C00A3EB910340EA9C00B3EBD10F24BFA3EBE6
:1097AC00D10340EADC001B0118BF5FEA1C1CE0D1AE
:1097BC00FD2A3FF650AF8B4240EBC25008BF20F061
:1097CC00010070470CF0004C4CEA50207F32C2BFB5
:1097DC00D2F1FF0340EAC250704740F400004FF052
:1097EC000003013A37E792F0000F00F0004C02BF83
:1097FC00400010F4000F013AF9D040EA0C0093F04D
:10980C00000F01F0004C02BF490011F4000F013BA6
:10981C00F9D041EA0C0195E70CEAD15392EA0C0F0E
:10982C0008D142027FF47DAF93EA0C0F7FF470AF46
:10983C00084676E793EA0C0F04D14B023FF44CAF89
:10984C0008466EE730F0004C18BF31F0004CCAD11E
:10985C0030F000427FF45CAF31F000437FF43CAF5A
:10986C005FE700BF4FF0FF3C06E000BF4FF0010C7C
:10987C0002E000BF4FF0010C4DF804CD4FEA40025E
:10988C004FEA41037FEA226C18BF7FEA236C11D0A8
:10989C0001B052EA530C18BF90EA010F58BFB2EB5B
:1098AC00030088BFC81738BF6FEAE17018BF40F0DB
:1098BC00010070477FEA226C02D15FEA402C05D18F
:1098CC007FEA236CE4D15FEA412CE1D05DF8040B14
:1098DC00704700BF844608466146FFE70FB5FFF7A7
:1098EC00C9FF002848BF10F1000F0FBD4DF808ED5F
:1098FC00FFF7F4FF0CBF012000205DF808FB00BF50
:10990C004DF808EDFFF7EAFF34BF012000205DF8A9
:10991C0008FB00BF4DF808EDFFF7E0FF94BF0120F6
:10992C0000205DF808FB00BF4DF808EDFFF7D2FFF3
:10993C0094BF012000205DF808FB00BF4DF808ED36
:10994C00FFF7C8FF34BF012000205DF808FB00BF03
:10995C004FEA40024FEA41037FEA226C02D15FEAF0
:10996C00402C08D17FEA236C02D15FEA412C02D152
:10997C004FF0000070474FF0010070474FEA400273
:10998C00B2F1FE4F0FD34FF09E03B3EB12620DD921
:10999C004FEA002343F0004310F0004F23FA02F08B
:1099AC0018BF404270474FF00000704712F1610F32
:1099BC0001D1420205D110F0004008BF6FF0004009
:1099CC0070474FF00000704742000ED2B2F1FE4FCC
:1099DC000BD34FF09E03B3EB126209D44FEA002372
:1099EC0043F0004323FA02F070474FF00000704739
:1099FC0012F1610F01D1420202D14FF0FF307047DA
:109A0C004FF00000704700BF7BB972B90029BEBF90
:109A1C0000204FF0004106E008BF00281CBF6FF08B
:109A2C0000414FF0FF3001F06DB9ADF1080C6DE95C
:109A3C0004CE002909DB002B1ADB00F06FF8DDF8EF
:109A4C0004E0DDE9022304B07047404261EB4101C0
:109A5C00002B1BDB00F062F8DDF804E0DDE90223EB
:109A6C0004B0404261EB4101524263EB4303704747
:109A7C00524263EB430300F051F8DDF804E0DDE9FA
:109A8C00022304B0404261EB41017047524263EB48
:109A9C00430300F043F8DDF804E0DDE9022304B0F1
:109AAC00524263EB4303704710B500210446FFF7A5
:109ABC0027FF20B92046BDE8104000F009B804F19A
:109ACC00004000F005F8404261EB410110BD00BFC1
:109ADC00D0B5FFF7B3F900220E4B06460F46FFF741
:109AEC0001FA01F011F90446FFF786F900220A4B3E
:109AFC00FFF7F8F902460B4630463946FFF73EF8B9
:109B0C0001F002F92346002242EA000210461946EF
:109B1C00D0BD00BF0000F03D0000F0412DE9F04742
:109B2C008C460E460446089D002B50D18A4217469F
:109B3C006CD9B2FA82FEBEF1000F0BD0CEF1200C24
:109B4C0001FA0EF620FA0CFC02FA0EF74CEA060C9F
:109B5C0000FA0EF43A0CBCFBF2F9BBB202FB19CCC6
:109B6C0009FB03FA4FEA144848EA0C46B2450AD9F5
:109B7C00F61909F1FF3180F02581B24540F22281BE
:109B8C00A9F102093E44A6EB0A06B6FBF2F002FB71
:109B9C00106600FB03F3A4B244EA0644A34209D9BD
:109BAC00E41900F1FF3280F00B81A34240F20881EE
:109BBC0002383C440021E41A40EA0940002D62D0EE
:109BCC00002324FA0EF42C606B60BDE8F0878B4206
:109BDC0007D9002D55D0002185E841000846BDE885
:109BEC00F087B3FA83F1002940F08F80B34202D39F
:109BFC00824200F2FC80841A66EB03060120B44614
:109C0C00002D40D085E81010BDE8F08712B901276F
:109C1C00B7FBF2F7B7FA87FEBEF1000F35D1012181
:109C2C00F61B4FEA174C1FFA87F8B6FBFCF20CFB3D
:109C3C00126608FB02F0230C43EA0646B04207D931
:109C4C00F61902F1FF3302D2B04200F2D2801A466A
:109C5C00361AB6FBFCF00CFB106608FB00F8A3B23E
:109C6C0043EA0644A04507D9E41900F1FF3302D2B8
:109C7C00A04500F2B9801846A4EB080440EA024063
:109C8C009CE729462846BDE8F08707FA0EF7CEF187
:109C9C00200326FA03F24FEA174CB2FBFCF11FFA31
:109CAC0087F80CFB112206FA0EF620FA03F301FBDF
:109CBC0008F933431E0C46EA0246B14500FA0EF48D
:109CCC0009D9F61901F1FF3280F08C80B14540F2D0
:109CDC00898002393E44A6EB0906B6FBFCF00CFB6E
:109CEC00106200FB08F99EB246EA0246B14507D95C
:109CFC00F61900F1FF3371D2B1456FD902383E44E9
:109D0C00A6EB090640EA01418FE7C1F1200722FAD0
:109D1C0007F88B4048EA030326FA07F44FEA134E80
:109D2C00B4FBFEF91FFA83FC0EFB19448E4020FA9B
:109D3C0007F809FB0CFA48EA06084FEA184646EA07
:109D4C000444A24502FA01F200FA01F608D9E4181B
:109D5C0009F1FF3044D2A24542D9A9F102091C44B1
:109D6C00A4EB0A04B4FBFEF00EFB104400FB0CFC4D
:109D7C001FFA88F848EA0444A44507D9E41800F10E
:109D8C00FF3E29D2A44527D902381C4440EA094099
:109D9C00A0FB0289A4EB0C0CCC45C246CE4615D3D5
:109DAC0012D055B1B6EB0A036CEB0E0606FA07F7A8
:109DBC00CB401F43CE402F606E600021BDE8F08782
:109DCC001046F7E68946DEE64645EAD2B8EB020ACB
:109DDC0069EB030E0138E4E77046D7E718468FE7C6
:109DEC008146BDE7114676E702383C4444E7084615
:109DFC0006E7023A3E442BE703685A004CBF43F097
:109E0C00004323F000431844704700BF61B32DE9B1
:109E1C00F84F01F1FF3A90460646D146002707EB72
:109E2C00090404EBD4746410E50071190846FFF7BB
:109E3C00E3FFA245834605F10800304409D0FFF743
:109E4C00DBFFC34500F1FF3005D8404509D2671C44
:109E5C00E5E7C34505D9A74202D004F1FF39DEE797
:109E6C0000210846BDE8F88F08467047012807D046
:109E7C00022807D0044B00280CBF1846002070475E
:109E8C00024870470248704789A500088DA5000854
:109E9C0091A5000830B5254B83B004468D1E73B3D5
:109EAC0001A92846AFF3008018B301992A46FFF7A1
:109EBC00ADFF0146E8B1FFF79FFF4B68A064012B93
:109ECC0011D0002B22DB081DFFF796FF0023E06466
:109EDC0023650368002B1EDBFFF78EFF0023206138
:109EEC00184603B030BD052300221846226103B08A
:109EFC0030BD092300221846226103B030BD0C4B43
:109F0C000C491846C91AC9100191CFE70123081D45
:109F1C00E0642365DDE7C3F30360FFF7A7FF0028C8
:109F2C00206114BF00230923DAE700BF0000000002
:109F3C0080E70008F0E80008036810B5DA0704466B
:109F4C0006D49B0700F1480009D500F057FC2368A4
:109F5C00590709D51A070ED5DB0613D510BD00F02D
:109F6C0045FC23685907F5D404F1D00000F04EFCF1
:109F7C0023681A07F0D404F5A87000F04FFC23688E
:109F8C00DB06EBD404F5E870BDE8104000F08ABCA9
:109F9C00036803B103441846704700BF092070479B
:109FAC00704700BF70B504460D4608E02A6C236963
:109FBC00626121462A4601209847082808D1296C5D
:109FCC002046FFF767FF06460028EFD003F0FCFFA2
:109FDC000728FBD13046296CFFF7E2FF281D00F063
:109FEC00F9FB00BF2DE9F04705460027ADF5727D62
:109FFC0003AC0E1D92460FCE0FC40FCE0FC40FCE66
:10A00C000FC496E80F00D5F80C80D5F8189084E8AA
:10A01C000F0002AC2846216C2760FFF73BFFBAF11A
:10A02C00000F074614BF0A2609267FB1A36B46F022
:10A03C0010018DE810022A46636401202B46C047AC
:10A04C0078BB38460DF5727DBDE8F087236C4FF474
:10A05C00F0726B6121467AA8FEF708FD2B697AAA8B
:10A06C00294630469847889B82468DE81002314637
:10A07C0063642A462B460120C04790B94FF4F07216
:10A08C007AA92046FEF7F2FCBAF1080F06D1216C32
:10A09C002846FFF7FFFE09260746C6E7BAF1070F69
:10A0AC0005D0092738460DF5727DBDE8F087384696
:10A0BC00216CFFF775FF03A800F08CFB406C704718
:10A0CC00F0B54FF0FF3ECB6BF9B00B640E1D01AD3C
:10A0DC000F4604460FCE0FC50FCE0FC50FCE0FC5C2
:10A0EC0096E80F0085E80F00CDF800E006E0236944
:10A0FC006A46214698470828054608D110992046FB
:10A10C00FFF7C8FE0028F2D0092079B0F0BD6846F0
:10A11C00FFF712FF062DF7D139462046FFF742FF15
:10A12C0030B4DD6BC160826119461D64002230BC05
:10A13C0058E700BF70B54369C6680B6426B10122AD
:10A14C00FFF750FF03F040FF03690A4604460D4633
:10A15C00014602209847072807D0082803D1294632
:10A16C002046FFF71FFF03F02FFF3046296CFFF747
:10A17C0017FF281D00F02EFBC2682AB110B4CC6B5F
:10A18C0000220C6410BC2DE79AE700BF704700BF9B
:10A19C00836813B1014601201847704700B50429A4
:10A1AC0007D8DFE801F00309060909000BB90F2AEB
:10A1BC0005D902205DF804FB01205DF804FB00EBDF
:10A1CC00820252681846019B1A605DF804FB00BFBE
:10A1DC00002310B584B003AC0A4600941946FFF76F
:10A1EC00DDFF039804B010BD00B5042907D8DFE8E3
:10A1FC0001F00309060909000BB90F2A05D9022041
:10A20C005DF804FB01205DF804FB019900EB820270
:10A21C000968184651605DF804FB00BF002310B5B7
:10A22C0084B004AC44F8042D00940A461946FFF798
:10A23C00DBFF04B010BD00BFF0B54FF0FF3ED36B99
:10A24C00ADF50F7D1364151D17AC07460E460FCDEB
:10A25C000FC40FCD0FC40FCD0FC495E80F0084E8C9
:10A26C000F00CDF858E012E00C2116A86A46FFF753
:10A27C00D5FF314616A8B84778B9049B16AA69468B
:10A28C00082098470528044608D0092805D02699A7
:10A29C006846FFF7FFFD0028E6D0092416A8FFF753
:10A2AC004BFE20460DF50F7DF0BD00BF2DE9F04FA4
:10A2BC00CC6C914622688BB004340D4607920894FE
:10A2CC0000F0030B1E46002B60D1032312020792F1
:10A2DC008DF825608DF824302B6DBBF1020F08BF73
:10A2EC00AC6B13F0010340D1019300F0080303930E
:10A2FC00D4F80080B8F1000F39D0022E43D0B4F856
:10A30C00008067880434AB6C27F0010A0F214846A3
:10A31C009A44FFF75DFF824533D828F001039A4435
:10A32C0050452CBF002001207F0007F0020708F0E9
:10A33C00010847EA0807012F3ED035D3022F1CD164
:10A34C00236823F000420292BBF1000F76D128B1B2
:10A35C00039900297ED0002A00F0A680002B77DB21
:10A36C00029B013304EB8304C2E700230193022E0A
:10A37C003EDDFFF713FE002840D009200BB0BDE8EE
:10A38C00F08F0020D0E767680834BCE7022BA3DC11
:10A39C000221130C8DF825301204DBB204EB83047C
:10A3AC0007928DF8241097E7BBF1000F02D000281C
:10A3BC0040F0BD8004349BE7BBF1000F25D1A8B160
:10A3CC0094E80C00991C4FEAD272D6D005F15801D2
:10A3DC000133069100F0A380201DFFF7D9FD06ABD9
:10A3EC0001462846AFF30080002877D108347FE778
:10A3FC0007A9484600F0F0FA0028BED1019B002BBB
:10A40C005CD108200BB0BDE8F08F0D2148462F6AB7
:10A41C00FFF7DEFE8742E9D1AB6A9C42E6D12046CB
:10A42C00FFF7EAFC0F2102464846FFF7F7FE4846C5
:10A43C002A460021FFF7F2FE07209FE70D21484630
:10A44C002F6AFFF7C5FE874258D02368002B87DAA6
:10A45C00043485E7029B3BB305F15803271DCDF867
:10A46C0010B0DDF80C80A346DDF808A01C4605965C
:10A47C0002E0B245B04616D038460694FFF788FD88
:10A48C0006AB014600222846AFF3008008F1010616
:10A49C0004370028EDD0029B5C464345DDF810B034
:10A4AC00059ED2D100E05C4648460D21FFF790FE98
:10A4BC00069B2862AC626B6206205FE70F21484660
:10A4CC00FFF786FE0E2102464846FFF7A7FE4846D8
:10A4DC00294A0F21FFF7A2FE07204FE707460D215F
:10A4EC004846FFF775FE022F28621DD12B46069AAF
:10A4FC0043F82C2F6B62AC6206203FE7AB6A9C42A0
:10A50C00A3D1042200270299A318A962EF622A633F
:10A51C006B632368BB421DDB0123019320E7484694
:10A52C000D21FFF755FE2862069B6B62E3E7204680
:10A53C00FFF762FC04340646AC632846AFF3008098
:10A54C0000283FF41AAF484632460F21FFF766FE4B
:10A55C00072013E70846013004EB8000FFF74CFCA2
:10A56C000F2102464846FFF759FE48462A4639460F
:10A57C00FFF754FE072001E700000000002395E6DA
:10A58C00012393E6022391E6F0B50446C5B00429F5
:10A59C000DD8DFE801F055030C310F00012B4FEA09
:10A5AC00124695B264D17219102A40F29D80022095
:10A5BC0045B0F0BD002BFAD1102AF8D82368D80684
:10A5CC0000F1C88022AE30460192012500F074F9EA
:10A5DC000023A06B019A05FA03F1114203D0016824
:10A5EC00043046F823100133042BF4D1A063304619
:10A5FC0000F058F90020DBE7032BD8D1150C97B2EB
:10A60C00EB19102BD3D823681E0700F1B78022AEAC
:10A61C00304600F025F9ED00A06B5FB1043D034618
:10A62C00711900EBC70053F8042B834241F8042F37
:10A63C00F9D11846A063304600F0F0F80020B7E7D7
:10A64C00002BB4D10127A56B96B2201D07FA03F19C
:10A65C00314203F1010302D0296804350160102B4B
:10A66C0000F10400F2D112F400503BD1A5639FE736
:10A67C00052B9CD17719202F99D80F2E66D92F46F0
:10A68C00002D3AD12A460027002AA06B72DD00EB80
:10A69C00C202014644A800EBC6008C3851F8045B9A
:10A6AC00914240F8045FF9D1084697B1102E32461A
:10A6BC0038BF102244A901EBC202A2F5C472790082
:10A6CC00043A00EB810150F8045B884242F8045FC5
:10A6DC00F9D1012B48D00F2EA16333D917B102A8A1
:10A6EC0000F094F8002063E70F2E3FF660AF0027D0
:10A6FC002268D10717D4002F60D02268510745D4A7
:10A70C00012B4DD00F2E06D822A8019300F07AF819
:10A71C00019B002FB6D002A8019300F07BF8019B9F
:10A72C00C6F11002B0E722F00101052B2160019364
:10A73C0020463BD022F0030240F8482B00F05AF898
:10A74C00019BD8E722A800F059F8C7E7102FCED903
:10A75C00103FCDE723F01003236004F5E87001925D
:10A76C0000F0AAF8019A2DE70431A16322A800F0A9
:10A77C003DF8B7E7002F99D10146AAE723F008036B
:10A78C00236004F5A87000F06BF840E7204622F037
:10A79C00040240F8D02B019300F03CF8019BAFE78A
:10A7AC0022A8019300F026F8019BB9E741F00201C1
:10A7BC0040F8481B00F026F8019B9CE7012B03D0C6
:10A7CC000F2E3FF65FAF9FE722A8019300F012F81F
:10A7DC00019B57E700F1340191E838009C46A646EE
:10A7EC004CF8045D90E8FF0FE54600BD90EC210BA2
:10A7FC00704700BF80EC210B704700BF90EC200B22
:10A80C00704700BF80EC200B704700BFD0EC200BD2
:10A81C00704700BFC0EC200B704700BFF0EC02018A
:10A82C00F0EC0211F0EC0221F0EC0231F0EC024100
:10A83C00F0EC0251F0EC0261F0EC0271F0EC0281F0
:10A84C00F0EC0291F0EC02A1F0EC02B1F0EC02C1E0
:10A85C00F0EC02D1F0EC02E1F0EC02F1704700BF39
:10A86C00E0EC0201E0EC0211E0EC0221E0EC023140
:10A87C00E0EC0241E0EC0251E0EC0261E0EC027130
:10A88C00E0EC0281E0EC0291E0EC02A1E0EC02B120
:10A89C00E0EC02C1E0EC02D1E0EC02E1E0EC02F110
:10A8AC00704700BFB0FC0181B0FC0191B0FC01A16C
:10A8BC00B0FC01B1704700BFA0FC0181A0FC01916C
:10A8CC00A0FC01A1A0FC01B1704700BFEC4600B593
:10A8DC002DE900502DE9FF1F4FF000032DE90C006E
:10A8EC0001A9FFF7EDFBDDF840E012B0704700BFA7
:10A8FC00EC4600B52DE900502DE9FF1F4FF0000389
:10A90C002DE90C0001A9FFF715FCDDF840E012B0B1
:10A91C00704700BFEC4600B52DE900502DE9FF1F34
:10A92C004FF000032DE90C0001A9FFF725FCDDF821
:10A93C0040E012B0704700BFEC4600B52DE9005066
:10A94C002DE9FF1F4FF000032DE90C0001ABFFF7C1
:10A95C00E7FBDDF840E012B0704700BFEC4600B5F5
:10A96C002DE900502DE9FF1F4FF000032DE90C00DD
:10A97C0001AAFFF761FCDDF840E012B0704700BFA0
:10A98C00027A1AB9437A43B9B02070470368013A86
:10A99C0002721A020260180E704703214268013BD2
:10A9AC0010B443721368141D01721A0244600260E1
:10A9BC0010BC180E704700BF002300B585B003AA69
:10A9CC00009219460C22FFF7E9FB039805B05DF8DD
:10A9DC0004FB00BFF0E700BF2DE9F04306460F462D
:10A9EC004FF0000885B03846FFF7CAFFB028044680
:10A9FC0023D0050627D400230DF10C091946850038
:10AA0C000D22CDF800903046FFF7C8FBEDB2039B4A
:10AA1C00600605F104054CBF5D1BED1800230D22EB
:10AA2C001946CDF8009030460395FFF7DDFB38460C
:10AA3C00FFF7A6FFB0280446DBD1B8F1000F00F0F9
:10AA4C00948000201CE000F0F003802B5CD0902B55
:10AA5C0019D0A02B2CD0B02B3ED0C02B6BD000F03B
:10AA6C00F803D02B0BD100F00702013242F4002284
:10AA7C00052301213046FFF787FD0028B3D00920BC
:10AA8C0005B0BDE8F08300F00D030D2BF7D00023CB
:10AA9C0003AD00F00F02194600953046FFF77EFB20
:10AAAC000023009519460D223046FFF79DFB9AE7CF
:10AABC00C3434FF47F6203F007031A4100230107DD
:10AACC0002F47F6248BF42F4804219463046FFF7D9
:10AADC005BFD0028D3D186E7B12857D0B22868D0C7
:10AAEC00B32800F0958000F0FC03B42BC7D00123F1
:10AAFC0000F007021A4442F4002219463046FFF7D0
:10AB0C0043FD0028BBD16EE73846FFF739FF24021E
:10AB1C000443B4F5004FB2D000232401A2B219466D
:10AB2C003046FFF731FD0028A9D114F4004F18BFAF
:10AB3C004FF0010857E7C6287DD0C72800F0868063
:10AB4C0000F0F803C02B00F09480C82800F09F8020
:10AB5C00C92894D13846FFF713FF020300F00F0009
:10AB6C0002F470220130024382E703AC43460E220A
:10AB7C00414600943046FFF711FB009430464346A3
:10AB8C000F224146FFF730FB404679E73846FFF786
:10AB9C00F7FE00283FF473AF10F0F0037FF46FAFB3
:10ABAC00024619463046FFF7EFFC00287FF467AFEA
:10ABBC0019E700230DF10C090D221946CDF8009070
:10ABCC003046FFF7EBFA3846FFF7DAFE02064FF095
:10ABDC0002040CD5039B00F07F00A04003443846D0
:10ABEC000393FFF7CDFE030604F10704F2D4002310
:10ABFC00039900F07F02A24001F501718C18CDF889
:10AC0C00009019460D2230460394FFF7EDFAEAE660
:10AC1C003846FFF7B5FE0123010300F00F0001F4E5
:10AC2C007021C2180A4330461946FFF7ADFC0028C4
:10AC3C007FF425AFD7E63846FFF7A2FE010300F0FC
:10AC4C000F00032301F47021421CEBE73846FFF799
:10AC5C0097FE00283FF413AF10F0F0037FF40FAF12
:10AC6C00024604213046FFF78FFC00287FF407AF23
:10AC7C00B9E6032300F00F02013242F420221946F8
:10AC8C003046FFF781FC00287FF4F9AEABE638467E
:10AC9C00FFF776FE00F0F00200F00F0310320133E4
:10ACAC0043EA0232E4E600BF30B503240D46C36C20
:10ACBC0085B05A688DF80C40DC791202083301A972
:10ACCC00284601928DF80D400293FFF785FE05B0E2
:10ACDC0030BD00BF08B5FFF77DFE806C08BD00BF1E
:10ACEC0008B5FFF777FEC06CC37900EB8300083022
:10ACFC0008BD00BF08B503F067F900BF08B5FFF742
:10AD0C00F9FF00BF704700BF4A0011D212F50012C4
:10AD1C0011D20DD56FF47873B3EB62520ED44FEAA7
:10AD2C00C12343F0004343EA505323FA02F0704727
:10AD3C004FF00000704750EA013002D14FF0FF3065
:10AD4C0070474FF0000070472DE9F04F8DB0F5F7CC
:10AD5C00D7F9FBF70BFC724C2379256833B1A36848
:10AD6C00EB1A002BA2BF0023237123736D4B1E68BB
:10AD7C0042F20103334008BF63732379A373330793
:10AD8C0040F12781684B1B681B7A062B0BD8DFE838
:10AD9C0013F0070007003300DF0053027E027E022F
:10ADAC00624B1A780AB90023FFE000221A700222C3
:10ADBC005F4B604993F800E05F4BDFF890911B68A4
:10ADCC0093F800C05D4B93F800808B5C501C43FAE9
:10ADDC000EF303F00F03634509D20B2B07D88F5CDE
:10ADEC00085C07EA080700EB072049F82300023249
:10ADFC00102AEAD10123D8E0514B1A78002AD2D07C
:10AE0C0000221A704F4B504A9978587801F0070776
:10AE1C0040EA0720DF78106007F03F00400140EA6D
:10AE2C00D10019795060890041EA97115F7993F844
:10AE3C0009E007F0010041EA80219160997901F065
:10AE4C000F00C00140EA5700DF79D06007F07F00A7
:10AE5C00000140EA1110197A106149000EF003004C
:10AE6C0041EAD71141EA40219F7A5161D97A07F022
:10AE7C001F00C90041EA5711800140EA9E00D161D0
:10AE8C00597B9061187B01F0070740EA07209F7BF4
:10AE9C00106207F03F00400140EAD100D97B5062BC
:10AEAC00890041EA97111F7C07F0010041EA8021DB
:10AEBC009162597C01F00F00C00140EA57009F7C61
:10AECC00D06207F07F00000140EA11101063D97CBA
:10AEDC0093F814E0490041EAD7110EF0030041EA5F
:10AEEC0040215163997D5F7DDB7DC90041EA57119B
:10AEFC0007F01F00DF07D1634CBF40F21471AD2186
:10AF0C00800140EA9E009063980711644CBF40F2A8
:10AF1C001471AD21516419077FF56CAF032344E024
:10AF2C007804002050190020200D0020511300201F
:10AF3C004419002041130020201400204519002042
:10AF4C00BE130020A51300201C120020AC11002001
:10AF5C00A04A1378002B3FF426AF002313709E4AAF
:10AF6C009E4910789E4FB1F800E007EB400191F834
:10AF7C0003C0097941EA0C218E457FF414AF79782E
:10AF8C00012900F01A8181290FD10323102884BFD5
:10AF9C0010211170177800229249DFF890E2D0B29C
:10AFAC00874201F1020100F20A81DA0711D5012270
:10AFBC0003F00203002B14BF1346002362738A4A6A
:10AFCC0013700CBF01230023237105F5C333A03389
:10AFDC00A360730410D5854A13780BB1002111704E
:10AFEC0063734BB10123237100237F4A137005F562
:10AFFC00F42303F59073A360F7070ED57C4B1A78F6
:10B00C00E37B934209D00123237300237649E27337
:10B01C004B7005F5C333A033A360B00409D50023EE
:10B02C00744A32F81310002941F0EE8701330C2BCF
:10B03C00F7D1714BDFF8EC811B7813F0040F2DD096
:10B04C006E4AB2F90030002BB8BF5B42B3F52F7FCC
:10B05C0018DCB2F90230002BB8BF5B42B3F52F7F7E
:10B06C0010DC41F288326649B1F90030002BB8BFD0
:10B07C005B42934206DCB1F90230002BB8BF5B4255
:10B08C0093420BDD5F4B1B68012B41F2C88740F2EA
:10B09C00DC53D8F800209A4201F2C187524B524A35
:10B0AC00D8F800005B689268C31A934215DB564BC4
:10B0BC0001211D880023227C0132D2B222740D4260
:10B0CC0040F0ED8001339BB24900092B89B2F6D1D7
:10B0DC00454B9B681844444B5860667B206826B9E6
:10B0EC006369C31A002BC1F26F8000F59C432033B7
:10B0FC006361464B1E78002E40F06281444FDFF8AE
:10B10C001891DFF82CA13B78F5B29D420293C0F068
:10B11C00EB8142F201023F4BD8F800101B680391FF
:10B12C001340059305D0237B2F4A23712E4B5B785C
:10B13C00137026791EB12C4B1E7886F001060F2356
:10B14C0084F83C30344B94F83D901B6800250493F4
:10B15C000323B9FBF3F303EB4303A9EB0303DBB2C8
:10B16C005B0006932D4B039A03F1280B012302F588
:10B17C001672DFF8C0A007920BF1480202998D42BB
:10B18C00C0F2E78194F83C30254A0F2B254B40F058
:10B19C00358225490968490100F130821B68D16864
:10B1AC0093605B1AC82B02D9012382F8213094F8E2
:10B1BC003D30013384F83D3008E10B46E6E611F8EA
:10B1CC0002CC11F8010C40EA0C202EF812000132CE
:10B1DC00E5E600BF751300207813002076130020DD
:10B1EC00791300207C13002000000020A6190020F9
:10B1FC00A80B0020480B0020F2130020481100205F
:10B20C00DA08002038110020781900201C140020C6
:10B21C002414002050190020200D00209004002040
:10B22C005C0D0020000E00203C110020FC110020C1
:10B23C004000002054190020964B1A78002A3FF445
:10B24C00B2AD00221A70944B1A789A46A82A7FF451
:10B25C00AAADDF7C002F7FF4A6ADDFF87C92DFF87F
:10B26C007C820AEB0703D8781B7903EB0020FEF7EE
:10B27C0051F98A49FEF75AFA4146FEF799F8FEF75A
:10B28C00A3FB49F817000237102FEAD1B2E5844B23
:10B29C001A78002A3FF487AD00221A70AAE5591ECD
:10B2AC00804B072928D8DFE801F00467587C712708
:10B2BC00182F64217C4D12F0010FA9604FF48042CD
:10B2CC004FF4004104D119611A614FF4005211E09E
:10B2DC0059615A614FF4005223E0A17B19B36422E7
:10B2EC0071498A604FF480425A614FF400521A61DE
:10B2FC004FF400421A61EBE664226B498A60DA680B
:10B30C0082F48042DA60F0E7A17B61B16422664985
:10B31C008A604FF480425A614FF400525A614FF4E4
:10B32C0000425A61D4E678215F4D02F00302022AF2
:10B33C00A9604FF4004108D0032A0AD0012A5961B0
:10B34C004FF48042C0D15A61BFE759614FF480423B
:10B35C00BFE719614FF48042B6E7642252498A6014
:10B36C004FF480421A61DA6882F40052DA60DA68CB
:10B37C0082F40042DA60ABE664224B498A604FF4F7
:10B38C0080421A614FF400521A61F0E76422464978
:10B39C008A604FF480421A61DA6882F40052DA60F3
:10B3AC00A6E73C21404D12F0010FA9604FF48042FA
:10B3BC004FF4004101D11961C5E759611A6189E760
:10B3CC003A4A1268904201D9013E1E70384B1B68F4
:10B3DC00DA0405D5374B1B68DB0701D4F8F7A0FE60
:10B3EC00354B25681968887A002800F02381334A88
:10B3FC000B7B013832F910001BB1C0F53B600830F3
:10B40C0000B2A0F57A70B0F57A7FA8BF4FF47A70CD
:10B41C0020EAE070FEF782F82949FEF787F92949FE
:10B42C00FEF7D0F8FEF7D0FA274B1880204B1B689C
:10B43C00DA0540F16281254BDFF8A4A09D4204D9C6
:10B44C009AF80230002B01F0F3859AF80230002BA9
:10B45C0000F053819AF821B01D4BBBF1010F14BFC2
:10B46C00032600261D78134BDFF878901B68194FC4
:10B47C0003F0806305F0040502939AF82020052A56
:10B48C0000F23781DFE812F01001D902FD0220032F
:10B49C00390357036E13002059130020CDCCCC4038
:10B4AC00AA110020001001400000002018140020F8
:10B4BC00501900203C110020200D002054190020B0
:10B4CC0000007A4400C07F440C090020404B4C0023
:10B4DC00F2130020000E0020DC1100200080BB4382
:10B4EC005C0D0020580D0020072D96BFD9F80030B8
:10B4FC002946595D3846DAF800309847032D034643
:10B50C0021D8D9F8002002EB8501C86B0A90D3B181
:10B51C0005F10F0002EB800132F82020981A4FF44D
:10B52C007A7358434B889B1A90FBF3F040F2EE234E
:10B53C0000F57A709842B8BF184640F6CA03984294
:10B54C00A8BF184683B25C4A013602EB45052B8333
:10B55C00D9E5C6B1594931F91500049980B2898AE7
:10B56C00814203D80499C98A814221D25BF8251003
:10B57C000398814209D93AF815000599E1B92AF8DE
:10B58C0015000135FAE53046E7E7E8B20992089371
:10B59C00FCF700FA032D089B099AEEDC464F03FAE0
:10B5AC0005F197F83CE02EEA010187F83C10E4E73E
:10B5BC0007994BF82510E0E706216943069F02EB3B
:10B5CC00010E2EF807003C4F97F8D0C0BCF1000FCD
:10B5DC0004D1B9F1020FD2D987F8D030515ABEF844
:10B5EC0002000844BEF804100844354900B221F8A2
:10B5FC001500032190FBF1F080B2C0E70121314826
:10B60C001B68417001709168D3605B1A516800250A
:10B61C008B4288BF00232C4E88BF82F82130029BBE
:10B62C00AB427FF7C4ADE8B2FCF7B4F926F81500CD
:10B63C000135F4E7254B1B681F047FF5F7AED4F8F2
:10B64C00EC30EB1A002BFFF6F1AE05F59C432033E2
:10B65C00C4F8EC301E4B5A791E4B33F81220CB7ABF
:10B66C0092B292FBF3F294F8F0301349013303F0E9
:10B67C000F0384F8F0300B4483F8F1200346F131CA
:10B68C005A5C01331044102B00B2F9D190FBF3F04B
:10B69C0000B2002806DB6428A8BF6420FDF73EFF3B
:10B6AC000D49BAE60020F9E7C5B1BBF1010F20D076
:10B6BC0001228AF82020E0E6780400209004002083
:10B6CC004A050020000000205419002050190020C9
:10B6DC0088120020981200200000C842029B4FF4F0
:10B6EC008060002B00F0A681FCF778FD0023CAF8DF
:10B6FC00103016B13046FAF7BDFADFF82CB3BBF8B0
:10B70C00DE00FCF727FB804668B9F8F7B7F9002292
:10B71C00AF4BC3F80080C3F80480C3F80880AD4B6E
:10B72C001A605A609A60AC4B1B785D0708D5AB4B1E
:10B73C001B68D80604D5AA4B1B78D90641F1848422
:10B74C00002213469BF872919BF873A1BBF82C0155
:10B75C00BBF82E51A34E36F912109B088142C4BF80
:10B76C0063F07F03DBB20132A942B8BF43F0400360
:10B77C00042AF0D194F809219A4240F0158294F8E9
:10B78C000A21F92A02D8013284F80A21964F84F84A
:10B79C0009313B78954DA3B92B68DA0740F1068245
:10B7AC00B8F1000F0DD10022914B1A60F7F7F2FCA3
:10B7BC00904B83F80080884B1B78DB0701D5F8F79A
:10B7CC006DFC94F80A31DFF86482142B30D13B788D
:10B7DC00D3B194F809315F2B07D17F4B1B7813F051
:10B7EC00040A00F0FA81F8F79BFCB9F1000F0BD0BA
:10B7FC0094F809317D2B07D1774B1B7813F0040A91
:10B80C0000F0F181F8F78CFC734B1B7859070FD4BF
:10B81C0094F80931572B40F0EC814FF47A72764B47
:10B82C001A80764B1B6813F0080301D1744A1380FD
:10B83C006A4B1B68580723D5724A13788BB1664B39
:10B84C001B7859070DD5B6F90610BBF82C31994267
:10B85C0007DD2B6813F0010301BF32206A49137016
:10B86C0008802B68DA0340F12082684B1A782AB9D9
:10B87C00674A127812B93221634A118001221A7078
:10B88C0094F80B3113B140F2DC53B38100234FF029
:10B89C000109D8F800602B6006F17B0706F1CB0894
:10B8AC003A787B789A420CD2394617F8010CFAF7A1
:10B8BC00B1F930B117F8023C2A6809FA03F31343C3
:10B8CC002B600437B845EBD14FF00C094FF0000A50
:10B8DC004FF001084F4F06F1C90506F211166A78B0
:10B8EC00AB789A4223D2691C2878FAF793F9F0B115
:10B8FC006979EB7809FB01FE474A013B03EB4303F3
:10B90C0007EB0E001344426895F804C093420ED026
:10B91C004360424B08FA01F193F80C3107F80EC062
:10B92C0023EA01013D4BC0F808A083F80C11063541
:10B93C00AE42D4D100253A4B364E1B68374F02939A
:10B94C00384BDFF8EC80D3F80090237903937268BE
:10B95C00002A00F0CB811178002900F0C781B36870
:10B96C00A9EB0303002B0BDB09F5FA73B36001237E
:10B97C0003FA05F097F80C3123EA000387F80C3131
:10B98C00039B002B00F0B281337850780433DBB288
:10B99C00002840F0E581134830F91300224BB3F82E
:10B9AC002A3103F1C80E704540F38E81927897F8D6
:10B9BC000C312B41DB0700F199810298FAF7A2F9BF
:10B9CC00012397F80C21AB40134387F80C318DE120
:10B9DC0050090020C0090020F2130020501900204B
:10B9EC00C219002054190020440000203C110020F2
:10B9FC009C0A0020980A0020CA190020B8080020D0
:10BA0C00FE0800203E0B0020F4130020121400202E
:10BA1C0013140020240D0020A4E00008780400205A
:10BA2C00040D0020000E002028140020180D00200A
:10BA3C001C0D0020FCF7C0FB58E6BBF1010F01D137
:10BA4C00052236E601228AF8032002224FF4806098
:10BA5C008AF82020FCF7C2FBD9F80010D8F80000B7
:10BA6C004A78642101FB0202CAF81420BAF80020BB
:10BA7C00AC490132AAF800200A8842F020020A8060
:10BA8C00FBE4BBF1010F04BF05228AF820206DB145
:10BA9C000226A54BD3F80421B2F90E10A34A11804B
:10BAAC0051809180D9F800104988D1803968DAF832
:10BABC0014208A42C1F0C182002D01F0BE82BBF17C
:10BACC00010F3FF4DAAC14E6994B1A7842F00202FB
:10BADC001A70F8F725FBD8F80010DAF81C200A4485
:10BAEC00CAF8182004228AF820204FF48060FCF752
:10BAFC0063FB0520FCF753FBBFE4BBF1010F13D133
:10BB0C003968DAF818208A42BFF4F3AD894B1A78F9
:10BB1C0022B9894A1268D3073FF5EBAD844B1A78EA
:10BB2C0022F002021A708BE73A68DAF81C301344E0
:10BB3C00CAF81830DDE5D9F80010D8F80000CA882A
:10BB4C00642101FB0202CAF8102000228AF820208E
:10BB5C008AF80320C9E79BF87431B8F1000F0FD1B4
:10BB6C00002B01F07A82754B1A68754B1B689B1A77
:10BB7C00002B81F27282F8F7D3FA84F80881DFE5A2
:10BB8C003BB14FF47A716D4A126801FB03236C4A86
:10BB9C00136094F80831002B3FF4D2ADFAF75CF83F
:10BBAC00002384F80831CBE50022EDE50420FCF7F6
:10BBBC00F6FA5F4B1B7858077FF503AE2379002B01
:10BBCC003FF4FFADBAF1000F02D0F8F7A9FAF8E58F
:10BBDC00B8F1000F7FF4F5ADF7E70B20FAF74AF850
:10BBEC0084F80AA101E60B20FAF744F884F80AA1BC
:10BBFC000AE6544A1268520704D55A2B02D1F8F7B8
:10BC0C0031FA15E65D2B01F02E825B2B01F03982A7
:10BC1C005E2B41F03882032001F026BAB9F1000FF7
:10BC2C0002D07E2B01F03D823F4B93F80931972BCC
:10BC3C0004D14FF4C872444B1A80F9E5A72B05D1F7
:10BC4C00424A137843F004031370F1E50022BB2B36
:10BC5C000B9219D10223ADF82E30D8F80020BDF884
:10BC6C002C10B2F858300B44A2F85830BDF82E10F6
:10BC7C00B2F85A300B44A2F85A30FCF7D1FA002330
:10BC8C00294A82F80A31D3E5B72B02D14FF6FE735D
:10BC9C00E1E7BE2B03D10223ADF82C30DDE7BD2B41
:10BCAC007FF4C6AD4FF6FE73F6E7294A1378002BE6
:10BCBC003FF4E6AD1E4B1B7813F004037FF4E0ADAC
:10BCCC0013700122234BDAE5C83B984202DA9278D2
:10BCDC0052426CE6012303FA05F297F80C3123EA81
:10BCEC00020387F80C3109F5FA73B3600135042DA2
:10BCFC0006F10C067FF42BAE0F4D174E2B6813F08C
:10BD0C00020F06D10F4B1B68D80506D5134BDB78F9
:10BD1C001BB13368990701F1C8810120FCF74CFA7B
:10BD2C00012762E0781900207804002054190020C3
:10BD3C00F2130020440000203C110020000E0020D3
:10BD4C00440B002050190020C0190020C2190020FB
:10BD5C001314002014140020B80800205C0D0020DF
:10BD6C0001287FF42DAE0C297FF42AAE1948927865
:10BD7C0030F9130040F633039842A8BF18464FF42D
:10BD8C009663B0F5617FB8BF4FF4617093FBF2F32B
:10BD9C00A0F5617090FBF3F098F800305FFA80FA30
:10BDAC0053453FF40DAEBAF1030FD4BF53460223F3
:10BDBC00094A88F8003001FB0323084A03F2F643D2
:10BDCC001360F8F73FFF0AF10100C0B2F9F77EFFEC
:10BDDC00F6E500BF5419002028140020040D0020A3
:10BDEC00F7F74CFE0120FCF7F9F92A68520740F1ED
:10BDFC00AD81002F00F0AA810120FCF7DDF9B74BD3
:10BE0C001B889B0704D4F7F739FE0220FCF7E6F9F0
:10BE1C00B34B1B785F0708D4B04B1B8803F044036B
:10BE2C001BB1B04B1A88B04B1A80336813F00A0F51
:10BE3C0041F044812B684FF480701F0540F1AB81B9
:10BE4C00FCF7CCF99BF80530082B01D00E2B02D156
:10BE5C004020FCF7B1F90122A44B83F80D2193F893
:10BE6C000E314BB13368590706D52B681A0700F110
:10BE7C0095810820FCF7A0F9FAF716F99C4B206085
:10BE8C009B892BB1D4F82021821A002AC0F2CA87D0
:10BE9C00984D0344C4F820312B6897480293974B74
:10BEAC005B6898470595002840F0E981944B954DC7
:10BEBC001B6813F0020300F08C82D4F87C31284606
:10BECC009847002866D0904E94F88421294628463D
:10BEDC00FBF7ACFB3388B1468C4F002B45D00023CD
:10BEEC001A46D7F800C08A48B9F800104FEA830EFA
:10BEFC00B1F5C87F08BF40F8232035F9138050F8FE
:10BF0C000E1025F81320414440F80E102CF8132085
:10BF1C000133032BE8D13388012B23D14FF4C87E96
:10BF2C00D4F888313868C83393FBFEF30380D4F817
:10BF3C008C11C83191FBFEF14180D4F89031C8339B
:10BF4C0093FBFEFE734B1B88AEEB030E029BA0F81B
:10BF5C0004E0A3F85820A3F85A20FCF761F96422F6
:10BF6C006D4B1A603388013B33806C4B1B685B074D
:10BF7C0003D502985830FBF787FC3A682B88118858
:10BF8C005B1A2B8051886B885B1A6B809288AB880C
:10BF9C009B1AAB80F6F7F6FEFAF786F8D4F89431D4
:10BFAC005F4AC31A13804E4B20601B78C4F894016F
:10BFBC005F0704D55B4B1B680BB1FAF75DFB4D4C6F
:10BFCC00236893F85230002B40F00782564BB3F99C
:10BFDC000660564B1F687B899E42C0F24D82B6F5B7
:10BFEC00FA6FFA79BFBFF51A5543C3F5FA6395FB9F
:10BFFC00F3F5ACBFC2F16403C5F1640302933C4B8F
:10C00C002268B3F82AE193F9EE3000215B429BB22F
:10C01C000593134664200133454C0392049340F27C
:10C02C00E632414B4FEA410833F911C0ACEB0E0339
:10C03C0003F2F319914500F22182002BB8BF5B4249
:10C04C000229039A00F01D8292F811211AB19A422A
:10C05C00ACBF00239B1A93FBF0F26FF0630B354DD2
:10C06C0002F1010935F912A00BFB023235F91990D6
:10C07C00A9EB0A0902FB09F292FBF0F2524424F8F4
:10C08C0008207A18127953432B4A93FBF2F3029A45
:10C09C0064339BB2534393FBF0F3049D022915F8D0
:10C0AC00012B03FB02F292FBF0F20495234D6A5430
:10C0BC00049AD27C03FB02F393FBF0F3204A535413
:10C0CC00204B40F00682F4459870C0F20782084F6E
:10C0DC00B7F82C21964280F20B8235E07A190020B9
:10C0EC00F2130020FE080020A41900207804002080
:10C0FC0028140020180D0020E0080020600A002001
:10C10C00B80800200C140020C0190020800D00205D
:10C11C000006002028000020100A002050190020E2
:10C12C00081100203811002054190020040D0020A3
:10C13C0038090020CE1000200CFEFFFF9C090020C7
:10C14C00B4090020400900201346D7E10220FCF777
:10C15C0033F85DE6AE4B1B88580706D40420FCF779
:10C16C003DF8AC4B1A88AC4B1A802B6899060ED54F
:10C17C00A74B1B885A0602D44020FCF72FF82B68DB
:10C18C005B0641BFA34B1A88A44B1A8052E6402091
:10C19C00FCF712F8F3E7FCF70FF853E69C4B1D88FD
:10C1AC0015F008057FF468AE0820FCF717F89C4BD7
:10C1BC001A689C4B1A604FF4C8629B4B1A809B4BBD
:10C1CC001D609B4B1D6057E6D4F810516B1C012D64
:10C1DC00C4F8103140D0022D45D0002D34D1954BF0
:10C1EC001B681B0730D5944E3368C31A002B2BDB0E
:10C1FC0000F5C330A0303060D4F818318F48984720
:10C20C008E4994F81C210846FBF710FA8C480178EB
:10C21C004F0717D532688B4BAC461A608A4E2B46AB
:10C22C00DFF818E2894F8A4D3EF9132026F802CF29
:10C23C0027F8132025F813200133032BF4D121F018
:10C24C0004030370FBF7F6FFD4F81031032BC4BFC3
:10C25C000023C4F810310FE6764B1B685A07F3D550
:10C26C00F9F77CF9F0E7FCF7DFFB7A4D28B9206889
:10C27C00F7F712FC01232B70E6E72E70E4E7764902
:10C28C00764F94F824210846FBF7D0F93B88002B15
:10C29C004DD04FF00008724B724E1B6806F10C0526
:10C2AC001B7803936D4B4FEA480BB3F800A0BAF51B
:10C2BC007A7F02BF002333602B61674B33F9180080
:10C2CC00336803443360FDF729F92A6902F1010947
:10C2DC00B9F1010FC5F8109037D1002368602860C0
:10C2EC00AB6000235C4ADFF88091BAF1010F2BF8A8
:10C2FC0002302BF8093057D12869012849DD013863
:10C30C00FDF70CF90146E868FDF710FA01F066F844
:10C31C00039B8246002B3ED01846FDF7FFF8514692
:10C32C00FDF7EEFA002836D04FF47A733B800023E9
:10C33C0049494D4D31F8132035F81300121A21F8E4
:10C34C0013200133032BF5D1B0E52A680790114671
:10C35C000692FDF72DF804904846FDF7DFF80146EC
:10C36C000498FDF7E3F9069A1146FDF723F8079BAD
:10C37C000146814668601846FDF71AF80499FDF7E6
:10C38C0021F9A968FDF716F8C5F80090E860A860D7
:10C39C00A7E70020BAE74FF47A72336803F5FA7313
:10C3AC0093FBF2F329F80B3008F10108B8F1030FF5
:10C3BC0006F1040605F114057FF474AF38880128E2
:10C3CC0004D1F9F757FC6422284B1A603B88013BD7
:10C3DC00ACE72B806B80AB80DEE50025244EDFF8CC
:10C3EC009480059BB6F902001B6808EB050793F8CF
:10C3FC005290FDF793F84A463946F9F7EDFEFDF7F2
:10C40C00BDFA04350C2D26F8020FEAD1DEE500BF8B
:10C41C007A190020FE080020A4190020400B0020EF
:10C42C0000090020240B0020380B00202C0B0020CE
:10C43C00300B0020B808002080190020841900203F
:10C44C00C21900207C190020281500208A19002010
:10C45C00901900203F0B0020E0080020CA19002092
:10C46C00540D0020A0050020E8050020100A002033
:10C47C00DE080020100600206423BFE54FF4FA7399
:10C48C00DEE592F812211AB19342D4BF00239B1A15
:10C49C0093FBF0F26FF0630BBD4D02F1010935F91E
:10C4AC0012A00BFB023235F91990059DA9EB0A0974
:10C4BC0002FB09F292FBF0F252446A43A280BA7971
:10C4CC00002BB8BF5B425343B24A93FBF2F3643385
:10C4DC00E3E59DF80820F4455A5404DA34F80830A2
:10C4EC005B4224F80830013103297FF498ADEEE566
:10C4FC00B6F5FA6F3346A8BF4FF4FA634FF47A716E
:10C50C009B1A4B43C2F5FA626425B3FBF2F292FB21
:10C51C00F5F3A14903F1010E31F9130031F91E10A5
:10C52C006FF0630E0EFB0323091A4B4393FBF5F3D9
:10C53C009A4D0344E38095F80B319BB12288D5F8D2
:10C54C00A431134423806288D5F8A8311344638046
:10C55C00A288D5F8AC311344A380D5F8B0311E4471
:10C56C008F4BDE808F4B1B885E063ED58E4B18881A
:10C57C008E4B1B88C01A00B2FCF7D0FF8C49FDF71C
:10C58C0021F88C490646FCF715FFFBF7C2FC8146E7
:10C59C003046FBF7BEFC0646B4F90200FCF7BEFFC2
:10C5AC008046B4F90000FCF7B9FF49468246FDF716
:10C5BC0009F8414683463046FDF704F801465846D3
:10C5CC00FCF7F6FEFDF7DAF9494620804046FCF709
:10C5DC00F9FF514680463046FCF7F4FF01464046D1
:10C5EC00FCF7E8FEFDF7CAF96080734B1B689807EF
:10C5FC000BD545F207212A68D5F8B431D31A8B42F2
:10C60C0003DDC5F8B421FBF7CFF86B4B6B4E1A6802
:10C61C0012F4006F32D0D5F8B8112B68A3EB010BD4
:10C62C0045F207218B4529DDC5F8B831644BB4F9C7
:10C63C000680D3F800A0A8F57A789AF80A30DFF8CB
:10C64C00A091012B55D0C0F09E80022B74D0D9F84C
:10C65C0000305C4A03FB0BFB4FF47A739BFBF3FB40
:10C66C00594BD3E9000110EB0B0041EBEB71C3E923
:10C67C0000010023FDF7C8F9544B1860DFF86491F2
:10C68C00D9F80030DB0402D50A20F9F7F3FA504B45
:10C69C001968002900F0B280DFF84CB1DFF84CA12A
:10C6AC00DBF80000DAF80020824200F2A780494A49
:10C6BC00DFF83C811078002867D101201070B8F8A1
:10C6CC0000004A68125C42B138B90A78053A012A6E
:10C6DC0003D80293F9F7E8FC029B1B68B8F800102A
:10C6EC005B685A5CFE2A40F085800023A8F8003075
:10C6FC0084E0394AD5F8BC31517B384A32F81120E4
:10C70C00082193FBF1F092B21B1A1A44C5F8BC2114
:10C71C0092FBF1F240F6E44192B25143BAF8082090
:10C72C00BAF90630C2EB11314FF47A724A4392FBDC
:10C73C00F3F2C9F800208AE73178BAF808304907D3
:10C74C00B7F8DE00C9F8003081D503930292FBF7ED
:10C75C0001FB029A039B20B912F0100F18BF4FF087
:10C76C000008322108FB08F292FBF1F24244BAF9BC
:10C77C00068008FB02F84FF47A7298FBF2F84344F7
:10C78C00C9F8003063E70023FAE700211170A4E731
:10C79C00080D00200CFEFFFFB610002078040020CE
:10C7AC00541900207A190020FE080020400B0020AC
:10C7BC0035FA8E3CDB0FC93F50190020F2130020D4
:10C7CC006C110020407E050038060020080900206E
:10C7DC00E8100020DC1000208812002098120020A5
:10C7EC00100900203C110020000E0020E010002059
:10C7FC00E4100020FF2A37D1F9F72EFA33785807C6
:10C80C003BD5904A138843F4807313804FF0000893
:10C81C00DFF870A20AEB080393F84A20012A40F0D3
:10C82C004681894ADFF824929346C9F800305AF8B9
:10C83C0008301360DBF8000003685B689847002839
:10C84C0000F0AE80DBF800000368DB6898477F4B94
:10C85C001B6893F84810002953D1242840F0B78066
:10C86C00012183F8481082E00A20DBF8003000FB3D
:10C87C000233CAF800304B1C38E70820FBF78FFC5A
:10C88C00D9F80030D9071ED4714BDFF8B8811B786A
:10C89C0013F0080F02D06F4B1B78EBB933780720DD
:10C8AC0023F001033370FBF77AFCB8F8003043F047
:10C8BC004003A8F80030684B1B88B3F5AA7F19DD3C
:10C8CC000220FBF76CFCFCF7AFF800289ED0337805
:10C8DC0023F00103337099E73378062043F001030A
:10C8EC003370B8F8003043F08003A8F80030FBF741
:10C8FC0056FCE0E7B8F8003043F00403A8F8003029
:10C90C00E1E7012905D14D2808BF022118BF0021FC
:10C91C00A7E7022903D13C2808BF0321F6E7032926
:10C92C0009D100214028DFBF1971D9715871987154
:10C93C00D8BF042195E7042906D1997983F84900D9
:10C94C004840987105218CE7052910D193F805E032
:10C95C001979714593F806E033DA80EA0E0E83F804
:10C96C0006E001F1010E194483F804E0087293F813
:10C97C00481006297FF45EAF93F84900F4F72BFEBC
:10C98C0020B9FBF7E5FC002800F0A183D9F80030B2
:10C99C009879F8F753FF0022D9F8003083F8482033
:10C9AC002E4B1B78002B00F082805AF80890D9F897
:10C9BC00003048465B699847C0B90A20F9F79BFBE1
:10C9CC00F5E7864501D106214BE7002149E731788F
:10C9DC004A07CCD42249096809788142C7D1214A37
:10C9EC00214911602149224ACA60C0E7214BDFF876
:10C9FC0098901B68DFF894E0D8044CBF1E4B1F4B7B
:10CA0C0099F800001B68B3F904200023D9B28842BE
:10CA1C0013D8F6F755F93220F9F76DFB00221146C1
:10CA2C0099F800E01648D3B2734502F101022FDAEF
:10CA3C0050F823301B681980F5E72EF813200133CA
:10CA4C00E4E700BF78190020B00E0020A0190020E8
:10CA5C00C21900203F0B002068110020C8190020CB
:10CA6C00C4190020F04F0020EFBEADDE00ED00E059
:10CA7C000400FA0550190020840D0020880D0020B8
:10CA8C00AC0B002040060020B7090020E60800206F
:10CA9C003220F9F730FBB94B1B68590304D5B84B5E
:10CAAC009B685A0340F11683B64AB74BDA6008F11B
:10CABC004C08B8F1980F7FF4ABAEB44B9B680BB13C
:10CACC00B348984797F82931002B4FD0B14BB5F8A4
:10CADC0062621888FCF71EFDAF490122F9F77CFB56
:10CAEC00FCF772FF80B2B6FBF0F095F80D31411CEB
:10CAFC0009B2A5F86812002B00F0C6810023A74EDE
:10CB0C00B5F96A9206F1080C36F9132034F9138042
:10CB1C0009FB02F292FBF1F23CF813E02CF81380C3
:10CB2C00A8EB0E0E724426F813200133042BEBD124
:10CB3C000023A5F86A0285F80D31B5F96A020023C5
:10CB4C00002840F3A7819649B5F96862A1F1080E57
:10CB5C003EF9132031F813C0424392FBF6F2ACEBD2
:10CB6C00020224F813200133042BF1D1012385F8A0
:10CB7C000E318C4B19680B0738D595F87C328A48E6
:10CB8C001BB10023038085F87C32A388874A453388
:10CB9C009BB28A2B00F28181854B1B8803F04403E6
:10CBAC00002B00F07A8103881288D21A92B210B24C
:10CBBC0010F1B30FBCBF02F5B47210B2B328C4BFEE
:10CBCC00A0F5B47318B27B4B1B781E070ED57A4BAD
:10CBDC007A4A1B685B7A43431BB2B3F5C87FA8BF84
:10CBEC004FF4C8739342B8BF1346A38011F0140FCF
:10CBFC0040F07582724B1B783BB1724BB3F9062037
:10CC0C00B7F82C319A4240F37F82DFF8AC81D8F828
:10CC1C00003093F81891B9F1000F4CD0644B1B887D
:10CC2C009A0748D0684B19689E680846D3F804B038
:10CC3C00FCF7C8FC594682465846FCF7C3FC014633
:10CC4C005046FCF7B7FB314682463046FCF7BAFC3F
:10CC5C0001465046FCF7AEFB00F0C0FB01463046E7
:10CC6C00FCF764FD59490646FCF754FE002840F0D9
:10CC7C001A81304600F0EAFA554B1968FCF7A2FC11
:10CC8C0000F0AAFAB0F5617FA8BF4FF46170FCF711
:10CC9C0045FC5049FCF74AFDFBF73BF90646484674
:10CCAC00FCF73CFC3146FCF78DFC00F095FA00B229
:10CCBC00E3881844E080484BD8F80000B7F8FA2015
:10CCCC0046490093464B09681E6800F15803B0476B
:10CCDC00444B45491E78454A032E18D90B68B3F8C6
:10CCEC0002C0BCF5FA7F12D2B4F90430B2F904E0F8
:10CCFC0083EAE377A7EBE377CCF10000C31B9E45F7
:10CD0C0004DB0CEB07037345A8BF734693804FF00D
:10CD1C0000080968B4F90630B2F90290B2F900A023
:10CD2C00B2F904B0324C334F0291B04504F1100407
:10CD3C00C0F0BB80304B1B7813F0040300F047812C
:10CD4C002E4BB7F90010DB78039301239E4200F2BF
:10CD5C00E8802B4B1B4A1868B2F906E04388294A35
:10CD6C009942D4BF0021C91A044BD2F800801B6829
:10CD7C00204A03F4805B03F0100C45E050190020AE
:10CD8C00281400200400FA0500ED00E0600A0020E1
:10CD9C00D806002008110020DC060020E406002044
:10CDAC00EC060020B8080020A4190020FE08002082
:10CDBC007A190020C2190020180D002070FEFFFF08
:10CDCC004400002054190020F40900208FC2753C47
:10CDDC00AC0D0020EFB6B04444150020040D00202B
:10CDEC001C000020B70900208C0D00208C090020AD
:10CDFC00F8060020E6080020F21300205C0D00204D
:10CE0C00880D0020900D0020C14BC8BF89B21C6852
:10CE1C0007EB4606B24240F08B8095F840330BB1DD
:10CE2C00F5F74EFFBB4BBC4CB3F90A2040F2DC5378
:10CE3C009A420CBF0123002384F80B3194F80B3178
:10CE4C00002B00F0CD80F9F72FF9D4F84433C31A36
:10CE5C00002BFDF680AFB14B00F506401B7BA030DC
:10CE6C00C4F844032BB10023AC4A1373012384F898
:10CE7C0048330023C4F8A431C4F8A831C4F8AC3149
:10CE8C00C4F8B031FDF767BFB5F86A32013BA5F8BD
:10CE9C006A3252E6A5F86A3268E613880380A5E682
:10CEAC00F7F73CF8A6E6002002E718460493FCF7D7
:10CEBC0035FB54F8101CFCF785FB03904846FCF737
:10CECC002DFB54F8081CFCF77DFB039A0146104619
:10CEDC00FCF770FA03905046FCF720FB54F80C1C3E
:10CEEC00FCF770FB039A01461046FCF763FA029BB1
:10CEFC00039093F9010040420BFB00F0FCF70EFB92
:10CF0C0054F8041CFCF75EFB039A01461046FCF730
:10CF1C0051FAFCF733FD049B27F8180008F10108BF
:10CF2C0003E737F9132001339142B8BF11460DE7DF
:10CF3C0013885B1A1BB222F8023BBBF1000F26D000
:10CF4C00029F3F784FB9B8F80E90E788A9EB070A13
:10CF5C00F24502DA4F44774512DCB8F80E7077458B
:10CF6C00B9BF6788B0F802908788B4F80090BB42CC
:10CF7C0003DB99454F46A8BF1F4622F8027C49E7C0
:10CF8C00F145B4BF6388238822F8023C42E7039F33
:10CF9C00B0F802900FB18788E9E70788BB4203DB42
:10CFAC0099454F46A8BF1F4622F8027CB8F81030AE
:10CFBC009E45BFF62FAFBCF1000F01D08388E3E78D
:10CFCC00029B1B78002B7FF425AF0388DCE75449C8
:10CFDC0031F8132027F813200133082BF8D11CE764
:10CFEC0094F84823002A3DF4B6AE01224B49C4F80C
:10CFFC00A431C4F8A831C4F8AC31C4F8B0310A7308
:10D00C0084F84833FDF7A7BE012323730023434A5A
:10D01C0005F5C335A0355370A560FEF70AB8414A33
:10D02C00138843F010031380F7F77AF8FEF736B83D
:10D03C0001238AF80230FEF708BA42F21072CAF8DD
:10D04C001C200322FEF735BB374B1B78002B7EF4DC
:10D05C0082ADB8F1000F7EF49CAD1020F8F70AFEFB
:10D06C000123FEF79EBD0120C7B27B1E8BF8F43462
:10D07C00F7F732FEF7F7D4FE3846F8F727FEFEF73F
:10D08C00D7BB0220F0E7562B01D1FBF7C9F83B7850
:10D09C00002B3EF4C9AD204B93F809316F2B7EF475
:10D0AC00BDADF6F7FBFFFEF7C3BB204B1B8813F09F
:10D0BC0001073EF495AE0027FEF797BE2B68DB0602
:10D0CC003FF548A80420FBF777F8FFF74EB8FAF7BE
:10D0DC003DFE5BE440F2DC50F9F70DF8E4E4134B51
:10D0EC001B8803F40273002B3FF484AD104B1B78A8
:10D0FC00D9067FF5D5AE0F4B628897F97A111B686C
:10D10C0001FB0323638075E50023A3807DE500BF4D
:10D11C00840D002054190020780400200000002009
:10D12C00A819002078190020440000207A1900204A
:10D13C00C2190020300B002019481A4902680060FF
:10D14C008A4217D0002103E0174B5B58435004313F
:10D15C001648174B42189A42F6D3164A02E000239F
:10D16C0042F8043B144B9A42F9D3FAF739FAFDF71B
:10D17C00EBFDFEE7114E4FF00900306010480168DE
:10D18C0021F070610160410201600E4C182020609A
:10D19C000D490E4808600E48D0F800D04068004792
:10D1AC00F04F0020EFBEADDEF0E8000800000020DC
:10D1BC007804002078040020D019002018100240B8
:10D1CC0004000140140C0140000C01404434434461
:10D1DC0000F0FF1FFEE7000030B5C0F3C751A1F10E
:10D1EC007F021E2A83B020DC531C1BDB162A4FEA5D
:10D1FC00D07409DDC0F3160040F400009639884065
:10D20C0004B1404203B030BD0F4B53F824502946B3
:10D21C00FCF7D0F8019001982946FCF7C9F830F0DA
:10D22C00004306D1002003B030BDFCF7A7FB03B0D0
:10D23C0030BDC0F31603C0F3C75243F40000C2F173
:10D24C009603D840DCE700BF28E70008F0B58BB0A8
:10D25C00044600F013F9224E054696F900300133CE
:10D26C002FD021462046FCF773FB074648BB2046CF
:10D27C0000F0B0FD4FF07E51FCF760FB08B30122CB
:10D28C00184B20468DE80C000897FBF7D7FD02469B
:10D29C000B461548CDE90423CDE9022300F07EFCB2
:10D2AC0096F90030CDE90601022B0DD0684600F04E
:10D2BC0073FC48B1089B73B9DDE90601FCF724F84F
:10D2CC00054628460BB0F0BD00F088FD2123036015
:10D2DC00089B002BF0D000F081FD089B0360EBE76E
:10D2EC004500002030E700083CE7000800F02ABAAF
:10D2FC0070B58AB0044600F0B7FA334B064693F982
:10D30C0000506B1C0AD021462046FCF721FB28B9A3
:10D31C0000212046FCF712FB034610B130460AB040
:10D32C0070BD2A4A204608930192FBF787FDCDE990
:10D33C000401CDE90201D5B94FF06042244B2046DF
:10D34C000021CDE90623FCF7D1FA002834D00223C2
:10D35C000093684600F020FCB0B1089BCBB9DDE926
:10D36C000601FBF7D1FF064630460AB070BD00221D
:10D37C00184B20460021CDE90623FCF7B7FA68B11B
:10D38C0002239D420093E4D100F028FD2223036088
:10D39C00E3E700F023FD089B0360E0E70123022D87
:10D3AC0000930BD100F01AFD212303600A4800F012
:10D3BC00F5FBCDE90601D0E701230093684600F0A8
:10D3CC00EBFB0028F2D1EDE74500002038E7000820
:10D3DC00FFFFEFC70000F0FF3CE70008F0B58BB093
:10D3EC00044600F085FB234B064693F900506B1C5A
:10D3FC000AD021462046FCF7ABFA074620B900219B
:10D40C002046FCF77DFA10B930460BB0F0BD012276
:10D41C00194B20468DE80C000897FBF70FFD0022F6
:10D42C00CDE90401CDE902010023ADB11046194646
:10D43C00FBF782FE022DCDE906010FD100F0CEFCE8
:10D44C0021230360089B7BB9DDE90601FBF75CFF38
:10D45C00064630460BB0F0BDCDE90623684600F019
:10D46C009BFB0028EED1E9E700F0B8FC089B0360B9
:10D47C00EAE700BF4500002040E70008F8B520F0BF
:10D48C000043B3F17E5F11D0044608DCB3F17C5F3E
:10D49C0011DAB3F10C5F00F383809B48F8BD0146B1
:10D4AC00FBF786FF0146FCF741F9F8BD002840F375
:10D4BC00CB800020F8BD0028C0F2C88001464FF098
:10D4CC007E50FBF775FF4FF07C51FCF77BF8044660
:10D4DC0000F00EFB8D4906462046FCF773F88C498C
:10D4EC00FBF768FF2146FCF76DF88A49FBF760FFF4
:10D4FC002146FCF767F88849FBF75CFF2146FCF7EF
:10D50C0061F88649FBF754FF2146FCF75BF8844928
:10D51C00FBF750FF2146FCF755F88249054620469B
:10D52C00FCF750F88049FBF743FF2146FCF74AF81B
:10D53C007E49FBF73FFF2146FCF744F87C49FBF79B
:10D54C0037FF2146FCF73EF84FF07E51FBF732FFD8
:10D55C0001462846FCF7EAF83146FCF733F826F486
:10D56C007F6525F00F05074629462846FCF72AF863
:10D57C0001462046FBF71CFF314604462846FBF7C4
:10D58C0019FF01462046FCF7D1F801463846FBF757
:10D59C0011FF2946FBF70EFF0146FBF70BFFF8BD09
:10D5AC000146FCF70FF805465849FCF70BF85849AB
:10D5BC00FBF700FF2946FCF705F85649FBF7F8FE88
:10D5CC002946FBF7FFFF5449FBF7F4FE2946FBF70E
:10D5DC00F9FF5249FBF7ECFE2946FBF7F3FF5049E4
:10D5EC00FBF7E8FE2946FBF7EDFF4E4906462846B9
:10D5FC00FBF7E8FF4C49FBF7DBFE2946FBF7E2FFA4
:10D60C004A49FBF7D7FE2946FBF7DCFF4849FBF7F5
:10D61C00CFFE2946FBF7D6FF4FF07E51FBF7CAFE33
:10D62C0001463046FCF782F82146FBF7CBFF01465A
:10D63C004048FBF7BDFE01462046FBF7B9FE01460C
:10D64C003D48FBF7B5FEF8BD3C48F8BD4FF07E51A8
:10D65C00FBF7B0FE4FF07C51FBF7B4FF04462B49AF
:10D66C00FBF7B0FF2A49FBF7A5FE2146FBF7AAFF03
:10D67C002849FBF79DFE2146FBF7A4FF2649FBF743
:10D68C0099FE2146FBF79EFF2449FBF791FE2146AC
:10D69C00FBF798FF2249FBF78DFE2146FBF792FF23
:10D6AC000646204600F024FA1E4905462046FBF7A4
:10D6BC0089FF1D49FBF77CFE2146FBF783FF1B49C5
:10D6CC00FBF778FE2146FBF77DFF1949FBF770FE4F
:10D6DC002146FBF777FF4FF07E51FBF76BFE0146BF
:10D6EC003046FCF723F82946FBF76CFF1149FBF792
:10D6FC005FFE2946FBF75EFE0146FBF75BFE01462B
:10D70C000F48FBF755FEF8BDDB0FC93F08EF11388A
:10D71C00047F4F3A4611243DA80A4E3E90B0A63ED7
:10D72C00ABAA2A3E2EC69D3D6133303F2D5701409A
:10D73C0039D119406821A233DA0FC93FDB0F4940B8
:10D74C00DA0F4940F8B50C4621F00041B1F1FF4F1A
:10D75C00034614DC20F00046B6F1FF4F07460EDC02
:10D76C00B4F17E5F3DD0A51705F0020545EAD075F2
:10D77C0056B9022D30D0032D30D13248F8BD1946A0
:10D78C002046FBF717FEF8BD01B3B1F1FF4F2CD0CB
:10D79C00B6F1FF4F1AD0711AC9153C291ADC002CAE
:10D7AC0039DB21461846FBF7C1FF00F013FB00F0F4
:10D7BC00FBF9012D2CD0022D22D0002D2FD0224987
:10D7CC00FBF7F8FD2149FBF7F3FDF8BD002F06DB55
:10D7DC001F48F8BD1E48ECE71C48F8BDF8BD1D48B5
:10D7EC00F8BDBDE8F84000F0DFB9B6F1FF4F17D037
:10D7FC00022DF1D0032DC0D0012D19D00020F8BD81
:10D80C001149FBF7D7FD01461048FBF7D1FDF8BDD8
:10D81C0000F10040F8BD3C31C3DA0020C9E7F8BD87
:10D82C00022D0CD0032D08D0012D04D00A48F8BDD0
:10D83C004FF00040F8BD0948F8BD0948F8BD09484B
:10D84C00F8BD00BFDB0F49C02EBDBB33DB0F494019
:10D85C00DB0FC93FDB0FC9BFDB0F493FDB0F49BFF4
:10D86C00E4CB16C0E4CB164030F000432DE9F04772
:10D87C002DD00028014604464ADBB0F1FF4F3BDABD
:10D88C00B0F5000F3CDB00218D4AC4F316052A4489
:10D89C0002F40002E41582F07E507F3C0C442843D5
:10D8AC004FF07E5104EBD254FBF782FD05F10F03D0
:10D8BC00C3F316030F2B064631DC0021FCF716F8D8
:10D8CC00002800F094804CB90020BDE8F0870021BE
:10D8DC004FF04C40FBF72AFFBDE8F0872046FBF7E2
:10D8EC001DFE78490546FBF76DFE77490446284630
:10D8FC00FBF768FE01462046FBF75CFDBDE8F087B0
:10D90C004FF09841FBF75EFE6FF018010446BBE741
:10D91C00FBF74EFD0021FBF709FFBDE8F0874FF048
:10D92C008041FBF747FD01463046FBF7FFFE804682
:10D93C002046FBF7F3FD414681464046FBF742FE8D
:10D94C0001468246FBF73EFE07466049FBF73AFE6E
:10D95C005F49FBF72FFD3946FBF734FE5D49FBF7BA
:10D96C0029FD3946FBF72EFE5B49FBF723FD51469B
:10D97C00FBF728FE594982463846FBF723FE5849E7
:10D98C00FBF718FD3946FBF71DFE5649FBF712FD58
:10D99C003946FBF717FE01465046FBF70BFDDFF847
:10D9AC004CA1C5F55713AA4403F5227343EA0A03A5
:10D9BC00002B074665DD4FF07C513046FBF702FE2D
:10D9CC003146FBF7FFFD0546002C32D1294638467F
:10D9DC00FBF7F0FC4146FBF7F5FD01462846FBF74B
:10D9EC00E7FC01463046FBF7E3FCBDE8F0873E4917
:10D9FC003046FBF7E7FD01464FF07C50FBF7D8FCB7
:10DA0C00314605463046FBF7DDFD01462846FBF75F
:10DA1C00D9FD0546002C2ED02046FBF77FFD294969
:10DA2C000746FBF7CFFD044638462749FBF7CAFDEE
:10DA3C0014E024494846FBF7C5FD29460446384600
:10DA4C00FBF7B8FC4146FBF7BDFD1F4907464846AE
:10DA5C00FBF7B8FD01463846FBF7ACFC01462846FF
:10DA6C00FBF7A6FC3146FBF7A3FC01462046FBF76F
:10DA7C009FFCBDE8F08701463046FBF799FCBDE8FA
:10DA8C00F0877CB10F494846FBF79CFD39460446AC
:10DA9C003046FBF78DFC4146FBF794FD0A490546E1
:10DAAC004846C3E701463046FBF782FC4146FBF78C
:10DABC0089FD01463046FBF77BFCBDE8F08700BFD3
:10DACC0020FB4A008071313FD1F717379788173EFA
:10DADC0025333A3E2549923EABAA2A3F4FD01C3EF5
:10DAEC00298E633ECDCCCC3EABAAAA3E305CCFFF98
:10DAFC0020F00042B2F1FF4FF8B504462FD26AB3C2
:10DB0C00002803463EDBB2F5000F4FEAE0502DD360
:10DB1C0000267F38C2074FF0190431464FF080724F
:10DB2C00C3F3160343F4000348BF5B0047105B00CC
:10DB3C008D189D4202DC5B1BA9181644013C4FEA70
:10DB4C0043034FEA5202F3D113B1013626F001061A
:10DB5C00701000F17C5000EBC750F8BDF8BD0146C9
:10DB6C00FBF730FD2146FBF725FCF8BD14F4000251
:10DB7C0001D00EE00A465B001C0202F10101F9D54E
:10DB8C00801AC5E70146FBF713FC0146FBF7CEFDF7
:10DB9C00F8BD4FF0FF32F3E7002070470020014939
:10DBAC00704700BF0000F87F2DE9F04120F00045E0
:10DBBC00B5F1A14F0446064608DBB5F1FF4F6FDC0B
:10DBCC00002840F3A0806F48BDE8F0816E4B9D4269
:10DBDC0077DCB5F1445F68DB4FF0FF372146204618
:10DBEC00FBF7F0FC01468046FBF7ECFC0546674969
:10DBFC00FBF7E8FC6649FBF7DDFB2946FBF7E2FC8B
:10DC0C006449FBF7D7FB2946FBF7DCFC6249FBF7C1
:10DC1C00D1FB2946FBF7D6FC6049FBF7CBFB294629
:10DC2C00FBF7D0FC5E49FBF7C5FB4146FBF7CAFC92
:10DC3C005C4980462846FBF7C5FC5B49FBF7B8FB03
:10DC4C002946FBF7BFFC5949FBF7B2FB2946FBF70A
:10DC5C00B9FC5749FBF7ACFB2946FBF7B3FC55491C
:10DC6C00FBF7A6FB2946FBF7ADFC7B1C01464046A7
:10DC7C004CD0FBF79FFB2146FBF7A4FC4E4B4F4DC2
:10DC8C0053F82710FBF794FB2146FBF791FB014659
:10DC9C0055F82700FBF78CFB002E30DBBDE8F0813C
:10DCAC000146FBF787FBBDE8F0814549FBF782FB9A
:10DCBC004FF07E51FBF742FE00288DD02046BDE888
:10DCCC00F08100F087F83F4B04469D4229DCA3F518
:10DCDC00D0039D4244DC0146FBF76CFB4FF07E51B8
:10DCEC00FBF766FB4FF0804105462046FBF762FBD5
:10DCFC0001462846FBF71AFD002704466EE700F1A3
:10DD0C000040BDE8F0813048BDE8F081FBF752FBE4
:10DD1C002146FBF757FC01462046FBF749FBBDE8C3
:10DD2C00F0812A4B9D4214DC4FF07F51FBF740FBF6
:10DD3C004FF07F5105462046FBF744FC4FF07E51D7
:10DD4C00FBF738FB01462846FBF7F0FC022704469C
:10DD5C0044E701461E48FBF7E9FC032704463DE770
:10DD6C004FF07E51FBF724FB4FF07E5105462046C9
:10DD7C00FBF720FB01462846FBF7D8FC012704469D
:10DD8C002CE700BFDB0FC93FFFFFDF3ED769853CA7
:10DD9C0059DA4B3D356B883D6E2EBA3D2549123E06
:10DDAC00ABAAAA3E21A215BD6BF16E3D95879D3D98
:10DDBC00388EE33DCDCC4C3E58E7000848E70008D0
:10DDCC00CAF24971FFFF973FDB0FC9BFFFFF1B4032
:10DDDC00000080BF20F00040704700BF014B186866
:10DDEC00704700BF4800002070B4860746D0541E10
:10DDFC00002A41D0CAB2034602E014F1FF343BD3EF
:10DE0C0003F8012B9D07F8D1032C2ED9CDB245EA8E
:10DE1C0005250F2C45EA054519D9264603F11002B4
:10DE2C00103E0F2E42F8105C42F80C5C42F8085C75
:10DE3C0042F8045C02F11002F2D8A4F1100222F0B4
:10DE4C000F0204F00F041032032C13440DD91E469C
:10DE5C002246043A032A46F8045BFAD8221F22F021
:10DE6C0003020432134404F003042CB1C9B21C4461
:10DE7C0003F8011B9C42FBD170BC7047144603464F
:10DE8C00C2E700BFC9B2002941D08207F0B467D005
:10DE9C000378002B68D0994237D0431C04E013F868
:10DEAC00010B90B381422FD09A071C46F7D12568FD
:10DEBC0041EA012343EA034383EA0506A6F1013054
:10DECC00A5F1013220EA060022EA0502024312F013
:10DEDC00803F11D1204650F8046F83EA0607A7F162
:10DEEC000135A6F1013225EA070522EA06022A438A
:10DEFC0012F0803FEFD00446207818B905E014F8F2
:10DF0C00010F10B18142FAD12046F0BC7047830753
:10DF1C0024D00378002BF9D0431C03E002780133A2
:10DF2C00002AF3D099071846F8D11968A1F10132EB
:10DF3C0022EA010212F0803F08D153F8041FA1F12C
:10DF4C00013222EA010212F0803FF6D01A7818460C
:10DF5C0042B110F8013F002BFBD170470346E4E7B8
:10DF6C000446A4E7184670471846CEE720F0030194
:10DF7C0010F00300C0F1000051F8043B00F1040C58
:10DF8C004FEACC0C6FF000021CBF22FA0CF21343C8
:10DF9C004FF0010C4CEA0C2C4CEA0C4CA3EB0C0291
:10DFAC0022EA030212EACC1204BF51F8043B0430FB
:10DFBC00F4D0C2F1000102EA0102B2FA82F2C2F11B
:10DFCC001F0200EBD200704708B5062000F034F8B1
:10DFDC00012000F05FF800BF20B51F2982B0054674
:10DFEC0025D8D0F8DC22AAB152F8213093B1012BFC
:10DFFC000ED0581C07D00025084642F821509847EF
:10E00C00284602B020BD162301202B6002B020BD93
:10E01C000020F6E72846019100F02AF801990A46FB
:10E02C000146284602B0BDE8204000F00DB816238A
:10E03C004FF0FF302B60E4E7024B01461868FFF706
:10E04C00CBBF00BF4800002070B50D460023074C25
:10E05C00064611462846236000F014F8431C00D0F5
:10E06C0070BD2368002BFBD0336070BDCC19002031
:10E07C0000F000B85822024B4FF0FF301A60704786
:10E08C00CC1900205822024B4FF0FF301A60704719
:10E09C00CC190020FEE700BF0100010200010300C3
:10E0AC000104000105000106000107000108000140
:10E0BC000900010A00010B00010C01030D00010E07
:10E0CC0000010F00011000011100011200011300EA
:10E0DC000114000100000000000000000102030414
:10E0EC000607080900100140004010020010014012
:10E0FC0000201002001001400080100200080140B6
:10E10C00100010020008014020001002000801401D
:10E11C004000100254E2000844E2000842E2000809
:10E12C0040E2000800080040000C014000020C1EF8
:10E13C000028000000080040000C01400001081EEF
:10E14C000028000000000040000801400200041CF0
:10E15C000028000000040040000C01400100081DD4
:10E16C000028000000040040000C014002000C1DBF
:10E17C0000280000002C01400008014000080C1B86
:10E18C000128000000000040000801400100001CB4
:10E19C0000280000000000400008014008000C1C92
:10E1AC0000280000002C0140000801400001001B69
:10E1BC000128000000080040000C01404000001E37
:10E1CC000028000000080040000C01408000041EE4
:10E1DC00002800000000803F000080BF0000803F4E
:10E1EC00000080BF0000803F000080BF000080BFA7
:10E1FC000000803F0000803F0000803F0000803F17
:10E20C000000803F0000803F0000803F000080BF86
:10E21C00000080BF0000000080250000004B0000C3
:10E22C000096000000E1000000C201000084030021
:10E23C0090D00300FFFFFFFF00010D030C0301034F
:10E24C00060307030903FFFF000301030203030393
:10E25C00040305030603070308030903FFFF524FDA
:10E26C004C4C3B50495443483B5941573B414C540F
:10E27C003B506F733B506F73523B4E6176523B4C2D
:10E28C004556454C3B4D41473B56454C3B00414563
:10E29C0052543132333435363738616263646566D3
:10E2AC006768000023420008BF410008974100083E
:10E2BC00514100085D45000881410008594500089E
:10E2CC0001000000E0E30008A3E5000802010000E3
:10E2DC00CDE30008B3E5000803020000CAE3000820
:10E2EC00C3E5000804030000C5E30008CBE5000803
:10E2FC0005040000C0E30008CEE500080605000098
:10E30C00B7E30008D5E5000807060000B4E30008F1
:10E31C00E4E5000808070000B1E30008F1E5000897
:10E32C0009080000EC100020000000000A090000A1
:10E33C00AEE30008F9E500080C0A0000A9E30008A8
:10E34C0000E600080D0B0000A4E3000810E600082E
:10E35C000E0C000095E3000825E600080F0D0000E8
:10E36C00EC100020000000000B0E000091E30008F0
:10E37C0030E60008100F00008CE300083EE60008B1
:10E38C0000F50A05FF00640AFF0405040508050FE3
:10E39C0005080504050405FF140F2305FF050505F5
:10E3AC0005FF0A0AFF1932FF3202FF05050F0505AA
:10E3BC00050F1EFF1E050505FF0F050F05FF323269
:10E3CC00FF0A0A0A0A0A28280A280A28280A0A0A16
:10E3DC000A0A46FF140A140A140AFF00000000017E
:10E3EC0002030401020304060708090204060800DC
:10E3FC0000540040000C0140400080001F20000031
:10E40C000000200000580040000C014000040008EF
:10E41C0021220000000040000000000044E600083B
:10E42C00000000000100000049E6000801000000A7
:10E43C000200000050E6000802000000030000008B
:10E44C0059E6000803000000040000005FE6000825
:10E45C00050000000500000064E60008060000004E
:10E46C00060000006EE60008070000000700000030
:10E47C0077E60008080000000800000080E60008AD
:10E48C00090000000900000089E600080A000000ED
:10E49C000A00000093E600080B0000000B000000CF
:10E4AC009DE600080C0000000C000000A7E6000828
:10E4BC000D0000000D000000AFE600080E0000008B
:10E4CC000E000000B7E600080F0000000F0000006F
:10E4DC00BFE600081000000010000000C8E60008AD
:10E4EC001100000011000000CFE60008120000002F
:10E4FC0012000000D9E60008130000001300000011
:10E50C00E1E600081400000014000000ECE600082E
:10E51C001500000015000000F3E6000816000000CE
:10E52C0016000000FAE600081700000017000000B3
:10E53C0002E7000818000000180000000AE70008B5
:10E54C00190000001900000012E700081A00000072
:10E55C001A0000001CE700081B0000001B00000054
:10E56C0000000000FF000000434C464C00504C558E
:10E57C00544F5F5633525F44004D6172203133204B
:10E58C00323031380031363A31323A353900414582
:10E59C00545231323334004759524F5F43414C4946
:10E5AC004252415445440052585F4C4F53545F4CB7
:10E5BC00414E44494E470052585F4C4F535400440F
:10E5CC00495341524D494E470041524D494E475FC8
:10E5DC004750535F464958004241545F4352495497
:10E5EC005F4C4F57004241545F4C4F570052585F9D
:10E5FC00534554004143435F43414C4942524154BB
:10E60C00494F4E004143435F43414C4942524154B0
:10E61C00494F4E5F4641494C0052454144595F4277
:10E62C004545500044495341524D5F524550454178
:10E63C00540041524D45440041524D3B00414E4720
:10E64C004C453B00484F52495A4F4E3B00424152B9
:10E65C004F3B004D41473B004845414446524545E0
:10E66C003B004845414441444A3B0043414D5354CF
:10E67C0041423B0043414D545249473B00475053A4
:10E68C0020484F4D453B0047505320484F4C443B8E
:10E69C000050415353544852553B00424545504558
:10E6AC00523B004C45444D41583B004C45444C4F6B
:10E6BC00573B004C4C49474854533B0043414C4951
:10E6CC00423B00474F5645524E4F523B004F53442E
:10E6DC002053573B0054454C454D455452593B0033
:10E6EC004754554E453B00534F4E41523B0053450A
:10E6FC0052564F313B00534552564F323B00534517
:10E70C0052564F333B00424C41434B424F583B0017
:10E71C004641494C534146453B0000000000004B2C
:10E72C00000000CB61636F73660000006C6F67665E
:10E73C000000000073717274660000003863ED3ED7
:10E74C00DA0F493F5E987B3FDA0FC93F6937AC312E
:0CE75C0068212233B40F14336821A2336B
:10E7680008B10181B0B000840000000008B1018147
:08E77800B0B0008400000000B5
:10E780008C19FF7FB0AF2080002EFF7F01000000BA
:10E79000522EFF7FAF08B1806A39FF7F0100000071
:10E7A0008C39FF7FB0B0AE805C3AFF7F0100000083
:10E7B0009C3FFF7FB0AF0A80D845FF7FB0AF10808D
:10E7C000E049FF7F010000006C4FFF7FB0AF088081
:10E7D000B852FF7F01000000CC52FF7FB0B0AE8086
:10E7E0004857FF7F01000000806DFF7FA908B180BE
:10E7F000B06EFF7F01000000587AFF7FB0A9028051
:10E80000947AFF7FB0A80180F07AFF7F01000000BA
:10E810002C7BFF7FB0B0AA80CC7BFF7F0100000083
:10E82000188EFF7FAD08B1808C8FFF7F0100000044
:10E8300070B6FF7FB0A902800CB7FF7FB0B0A88090
:10E840005CB7FF7F0100000068B7FF7FB0B0AA800F
:10E85000A0B7FF7FAE71B28070B8FF7F01000000EB
:10E860006CB8FF7FAB3F3880C4B8FF7F0100000069
:10E87000D0B8FF7FB0B0AA800CB9FF7F01000000C4
:10E88000C4B9FF7FAB0EB28030BAFF7FB0AF0A8051
:10E89000F8BCFF7F01000000FCBCFF7FAB3F0480A1
:10E8A00040BFFF7F010000001CC1FF7F0084048087
:10E8B00030C1FF7F010000002CC1FF7FB0AD04809C
:10E8C000F4C3FF7FB0A9048018C4FF7F9CFEFF7FC4
:10E8D0001CC4FF7FA0FEFF7F28C4FF7F0100000053
:10E8E00074C4FF7FB0AF0C805CE8FF7F01000000C4
:10E8F00001010000F40100006400000001000000BC
:10E900000000803F0000000000000000B534000857
:10E91000FFFFFFFF00A24A040001010000127A007D
:10E920000000803F0000803F0000803F01000000A9
:10E930009571000801010000500000200000000057
:10E94000000000003C030020A40300200C04002071
:10E9500000000000000000000000000000000000B7
:10E9600000000000000000000000000000000000A7
:10E970000000000000000000000000000000000097
:10E980000000000000000000000000000000000087
:10E990000000000000000000000000000000000077
:10E9A0000000000000000000000000000000000067
:10E9B0000000000000000000000000000000000057
:10E9C0000000000000000000000000000000000047
:10E9D0000000000000000000000000000000000037
:10E9E0000000000000000000010000000000000026
:10E9F0000E33CDAB34126DE6ECDE05000B000000EB
:10EA00000000000000000000000000000000000006
:10EA100000000000000000000000000000000000F6
:10EA200000000000000000000000000000000000E6
:10EA300000000000000000000000000000000000D6
:0400000508000000EF
:00000001FF
